:100000000C947F030C94A7030C94A7030C94A703F0
:100010000C94A7030C94A7030C94A7030C94A703B8
:100020000C94A7030C94A7030C9496080C94050950
:100030000C94A7030C94A7030C94A7030C94A70398
:100040000C94A7030C94A7030C94A7030C94A70388
:100050000C94A7030C94A7030C94A7030C94370BE0
:100060000C94A7030C94A7030C94A7030C94A70368
:100070000C94A7030C94A7030C94A7030C94A70358
:100080000C94A7030C94A7030C94A7030C94A70348
:100090000C94A7030C94A7030C94A7030C94A70338
:1000A0000C94A7030C94A7030C94A7030000000072
:1000B000003E5B4F5B3E3E6B4F6B3E1C3E7C3E1CEE
:1000C000183C7E3C181C577D571C1C5E7F5E1C0034
:1000D000183C1800FFE7C3E7FF0018241800FFE7EB
:1000E000DBE7FF30483A060E2629792926407F05AE
:1000F0000507407F05253F5A3CE73C5A7F3E1C1CC4
:1001000008081C1C3E7F14227F22145F5F005F5F83
:1001100006097F017F006689956A6060606060946F
:10012000A2FFA29408047E040810207E2010080874
:100130002A1C08081C2A08081E101010100C1E0C7F
:100140001E0C30383E3830060E3E0E060000000011
:100150000000005F00000007000700147F147F14F8
:10016000242A7F2A1223130864623649562050003D
:1001700008070300001C2241000041221C002A1C29
:100180007F1C2A08083E0808008070300008080814
:100190000808000060600020100804023E51494534
:1001A0003E00427F400072494949462141494D3352
:1001B0001814127F1027454545393C4A49493141B9
:1001C000211109073649494936464949291E000087
:1001D00014000000403400000008142241141414DC
:1001E0001414004122140802015909063E415D59C8
:1001F0004E7C1211127C7F494949363E41414122D1
:100200007F4141413E7F494949417F090909013EFA
:10021000414151737F0808087F00417F4100204021
:10022000413F017F081422417F404040407F021C33
:10023000027F7F0408107F3E4141413E7F0909094A
:10024000063E4151215E7F09192946264949493216
:1002500003017F01033F4040403F1F2040201F3FDC
:100260004038403F63140814630304780403615961
:10027000494D43007F4141410204081020004141A3
:10028000417F04020102044040404040000307084F
:100290000020545478407F2844443838444444284B
:1002A000384444287F385454541800087E090218F2
:1002B000A4A49C787F0804047800447D400020407A
:1002C000403D007F1028440000417F40007C0478BE
:1002D00004787C080404783844444438FC18242406
:1002E0001818242418FC7C08040408485454542486
:1002F00004043F44243C4040207C1C2040201C3C03
:100300004030403C44281028444C9090907C4464F9
:10031000544C44000836410000007700000041368C
:10032000080002010204023C2623263C1EA1A16112
:10033000123A4040207A3854545559215555794144
:100340002154547841215554784020545579400C1B
:100350001E527212395555555939545454593955FC
:100360005454580000457C410002457D420001453F
:100370007C40F0292429F0F0282528F07C545545AC
:10038000002054547C547C0A097F4932494949323F
:100390003248484832324A4848303A4141217A3A54
:1003A00042402078009DA0A07D39444444393D401E
:1003B00040403D3C24FF2424487E4943662B2FFCCB
:1003C0002F2BFF0929F620C0887E09032054547979
:1003D000410000447D413048484A32384040227A4A
:1003E000007A0A0A727D0D19317D2629292F2826C7
:1003F0002929292630484D402038080808080808CF
:100400000808382F10C8ACBA2F102834FA00007B27
:10041000000008142A142222142A1408950022002D
:1004200095AA005500AAAA55AA55AA000000FF00E7
:10043000101010FF00141414FF001010FF00FF1024
:1004400010F010F0141414FC001414F700FF000056
:10045000FF00FF1414F404FC141417101F10101FD5
:10046000101F1414141F00101010F0000000001FC3
:10047000101010101F10101010F010000000FF10CE
:100480001010101010101010FF10000000FF1400CA
:1004900000FF00FF00001F10170000FC04F41414FC
:1004A0001710171414F404F40000FF00F7141414C8
:1004B00014141414F700F7141414171410101F1048
:1004C0001F141414F4141010F010F000001F101F6B
:1004D0000000001F14000000FC140000F010F010D9
:1004E00010FF10FF141414FF141010101F00000050
:1004F00000F010FFFFFFFFFFF0F0F0F0F0FFFFFF54
:100500000000000000FFFF0F0F0F0F0F38444438AA
:10051000447C2A2A3E147E02020606027E027E02E5
:1005200063554941633844443C04407E201E200604
:10053000027E020299A5E7A5991C2A492A1C4C7241
:1005400001724C304A4D4D303048784830BC625AC8
:10055000463D3E494949007E0101017E2A2A2A2A58
:100560002A44445F444440514A444040444A514034
:100570000000FF0103E080FF000008086B6B0836F5
:1005800012362436060F090F060000181800000066
:100590001010003040FF0101001F01011E00191D55
:1005A0001712003C3C3C3C0000000000F0F89C8E20
:1005B0008783878E9CF8F00000FEFF03030303038C
:1005C000070EFCF80000FEFF0303030303070EFC05
:1005D000F80000FFFF00000000000000FFFF000027
:1005E000FEFF8383838383C7EE7C380000F8FC0E14
:1005F00007030303070EFCF800003F7FE0C0808084
:10060000C0E07F3FFFFF01010101010101FFFF0089
:1006100000FFFF0C0C0C0C1C3E77E3C100007FFFB9
:10062000C0C0C0C0C0E0703F1F00001F3F70E0C0EE
:10063000C0C0E0703F1F00007FFFC1C1C1C1C1E366
:10064000773E1C00001F3F70E0C0C0C0E0703F1F3D
:10065000000000000001FFFF01000000D5F08D1434
:10066000A1C881CFD9F1AF2000667800454C454341
:1006700054524F43415244494F47524F554E440004
:10068000496E737472756374696F6E7300080B0042
:100690000202020000090400000102020000052419
:1006A00000100105240101010424020605240600AE
:1006B000010705810310004009040100020A00003F
:1006C0000007050202400000070583024000000405
:1006D00003090412010002EF0201404123368000A9
:1006E000010102030141726475696E6F204C4C4335
:1006F0000041726475626F790000B40B1D13112400
:100700001FBECFEFDAE0DEBFCDBF11E0A0E0B1E069
:10071000ECE7F1E302C005900D92AA3BB107D9F7CF
:100720002AE0AAEBB1E001C01D92A234B207E1F7C2
:1007300013E0CEE7D3E004C02197FE010E94B91672
:10074000CD37D107C9F70E94170C0C94B1180C943F
:100750000000E0EFF1E0A0E0B8E000800EBC811105
:10076000012C1197A0FDFDCF0192B9F70DB40895AA
:10077000FC018091EF01882311F13FB7F89482E0EA
:100780008093E9002091F200822F90E0181619065C
:1007900014F481E090E0882339F0289844E64093EF
:1007A000EE014091F1004083222339F02091F200C4
:1007B000211103C02BE62093E8003FBF08958FEF7F
:1007C0009FEF08952FB7F89483E08093E90090910C
:1007D000E800892F807295FF04C09091F20080E4B8
:1007E000891B2FBF08958091E60181110DC082E021
:1007F0008093E20184E08093E3011092E50110927E
:10080000E40181E08093E60182EE91E00895CF93C8
:10081000DF931F92CDB7DEB76983DC01ED91FC91C8
:100820000280F381E02D41E050E0BE016F5F7F4F19
:1008300009950F90DF91CF91089583E08093E900AF
:100840008091F200882319F08AE38093E8000895EC
:100850000E94E20390E00895CF93DF931F92CDB7FB
:10086000DEB7FC018485958597FD08C02FEF3FEF2B
:10087000358724870F90DF91CF910895CE0101969F
:100880000E94B803019719F4898190E0F3CF8FEFAC
:100890009FEFF0CF0F931F93CF93DF931F92CDB7AE
:1008A000DEB78C01FC018485958597FF0BC0CE01D6
:1008B00001960E94B803019771F4898190E0F801D4
:1008C00095878487F801848595850F90DF91CF9176
:1008D0001F910F9108958FEF9FEFF1CFFC01848559
:1008E000958597FD0BC09FB7F89482E08093E9004F
:1008F0008091F2009FBF90E0019608959FB7F89411
:1009000082E08093E9008091F2009FBF90E008951B
:100910004091DC015091DD012091DA013091DB0141
:1009200042175307B4F49091E8009570E1F3909169
:10093000E80092FD19C08093F1008091DC01909154
:10094000DD0101968F739927892B19F48EEF80931F
:10095000E8008091DC019091DD0101969093DD012A
:100960008093DC0181E0089580E00895DF92EF92AA
:10097000FF920F931F93CF93DF93D82E8A01EB0141
:100980007B01E40EF51ECE15DF0559F0D7FE12C02F
:10099000FE0184910E94880421968111F4CF0FEF0B
:1009A0001FEFC801DF91CF911F910F91FF90EF9042
:1009B000DF9008958881EECF0F931F93CF93DF933D
:1009C0001F92CDB7DEB782E0898342E450E06DE844
:1009D00076E080E80E94B6040E94F303DC011296E0
:1009E0000D911C910115110589F0D801ED91FC9133
:1009F0000280F381E02DBE016F5F7F4FC801099532
:100A000097FD04C0F80100851185ECCF89810F9016
:100A1000DF91CF911F910F910895615030F0209197
:100A2000F100FC0120830196F8CF289884E680939A
:100A3000EE0108953FB7F8948091D6019091D701C7
:100A4000A091D801B091D90126B5A89B05C02F3F30
:100A500019F00196A11DB11D3FBFBA2FA92F982FE4
:100A60008827BC01CD01620F711D811D911D42E0DF
:100A7000660F771F881F991F4A95D1F708958F92A7
:100A80009F92AF92BF92CF92DF92EF92FF926B0153
:100A90007C010E941A054B015C01C114D104E104E0
:100AA000F104B9F00E941A05681979098A099B09AD
:100AB000683E73408105910580F321E0C21AD10898
:100AC000E108F10888EE880E83E0981EA11CB11C95
:100AD000E4CFFF90EF90DF90CF90BF90AF909F90CA
:100AE0008F9008958F929F92AF92BF92CF92DF9294
:100AF000EF92FF920F931F93CF93DF936C017B01D3
:100B00008A0180910E01882309F45CC08091EF0175
:100B1000882309F457C08091E10180FF05C08091CE
:100B2000E00082608093E000E801B12C8AEFA82EFB
:100B300093E0892E2AE3922E209711F4BB20D9F15D
:100B40000E94E20381110AC0AA94AA20D9F161E0AF
:100B500070E080E090E00E943F05EECF8C171D060C
:100B600011F00CF08C2F9FB7F8948092E90020913F
:100B7000E80025FD02C09FBFDFCF282F30E0C21B59
:100B8000D30BF701815020F041914093F100FACF4F
:100B9000E20EF31EBB2021F09092E800B12CEBCFC7
:100BA0008091E80085FDE7CF9092E800BB24B394E4
:100BB000209709F3F3CF5D9884E68093E001101647
:100BC00011063CF081E090E0F6019383828310E00F
:100BD00000E0C801DF91CF911F910F91FF90EF903E
:100BE000DF90CF90BF90AF909F908F900895AF927D
:100BF000BF92CF92DF92EF92FF920F931F93CF930A
:100C0000DF936C017B018B01040F151FEB015E016B
:100C1000AE18BF08C017D10759F06991D601ED9100
:100C2000FC910190F081E02DC6010995892B79F79F
:100C3000C501DF91CF911F910F91FF90EF90DF9051
:100C4000CF90BF90AF900895FC01448155816081A1
:100C500071818AE39AE00C94F7052D9A0895BC01FE
:100C600090E080E00C943F058FB18095807F669B7B
:100C700088601C9B8460089520E191E061FD94E010
:100C800060FD990F62FD9295687F269FD001112427
:100C9000A80FA051BE4F8C9140FF03C0892B8C93AD
:100CA000089590958923FBCF6F927F928F929F92A8
:100CB000AF92BF92CF92DF92EF92FF920F931F936A
:100CC000CF93DF936D3089F0C090CB01D090CC01F1
:100CD0006A30E1F41092CA011092C90188E0C80E8E
:100CE000D11CD092CC01C092CB0181E090E0DF9189
:100CF000CF911F910F91FF90EF90DF90CF90BF9019
:100D0000AF909F908F907F906F90089560900101B9
:100D1000E090C901F090CA01E5E06E9FE001112466
:100D2000C455DF4F570100E010E0053029F0CE0137
:100D30000196FE011491EC01460188E0782E412FC6
:100D4000417010FD23C0662061F0F0E8AF16B104D9
:100D500040F480E48816910420F4B401C5010E9497
:100D60003C0616957A94EFEF8E1A9E0A7110E7CF23
:100D70000F5FFFEFAF1ABF0A0630B1F686E0E80E4C
:100D8000F11CF092CA01E092C901AFCF462DDDCF30
:100D90000F931F93CF93DF938C01D0E0C0E0F80155
:100DA000EC0FFD1F6491662341F08AE39AE00E94F4
:100DB0005406892B11F02196F2CFCE01DF91CF910D
:100DC0001F910F9108959091CD01982329F490914E
:100DD000CE01982381E009F480E00895CF93C82FD5
:100DE0000E943406982F9C2381E09C1380E0CF91D1
:100DF000089580E00C94A9038F929F92AF92BF92C6
:100E0000CF92DF92EF92FF920F93CF93DF935B012C
:100E1000EC014C01840E911C6B01C20ED11CC81553
:100E2000D905ECF47501B7FE02C0F12CE12CC60126
:100E300021E4C216D10414F080E490E0E816F9062B
:100E400064F4C038D1052CF4402FB701CE010E94C4
:100E50003C068FEFE81AF80AEACF2196E0CFDF913F
:100E6000CF910F91FF90EF90DF90CF90BF90AF9018
:100E70009F908F9008958091C50190910201909369
:100E8000C50180930201ECE4F6E081E090E010827D
:100E9000928381831482138235962AE0E433F20729
:100EA000B1F71092C2011092C10182E08093D0018B
:100EB0000895EF92FF920F931F93CF93DF93282F04
:100EC000C091C101D091C201ECE4F6E0B0E0A0E035
:100ED00080E030E08901055011092B5F3F4FEE247F
:100EE000FF24E61AF70AAC17BD079CF44181528132
:100EF0004617570759F4408150E04017510734F026
:100F0000241735071CF0F282E18281E011963596B4
:100F1000EACFDF91CF911F910F91FF90EF9008954D
:100F20000F930091C50120E240E870E060E090E09E
:100F300080E00E94FC060091020120E240E860E2AD
:100F400070E090E080E00E94FC060F9108951092FE
:100F5000BF011092BE0185E08093C0011092C401D0
:100F60001092C3011092CF01E0E4F6E081E090E03E
:100F7000918380838FE790E093838283148224E3BC
:100F800025832FEF3FEF3783268391878087128653
:100F90008CE483870895089590E080E008958F920F
:100FA0009F92AF92BF920F931F93CF93DF93CDB7D2
:100FB000DEB7A1970FB6F894DEBF0FBECDBF19A262
:100FC000423008F44AE08E010F5D1F4F842E912CB1
:100FD000B12CA12CA50194010E943F15E62FB90167
:100FE000CA01EA3044F5E05DD801EE938D01232B70
:100FF000242B252B79F790E080E0109769F0FD0114
:1010000001900020E9F73197AF014A1B5B0BBD014E
:101010008AE39AE00E94F705A1960FB6F894DEBF26
:101020000FBECDBFDF91CF911F910F91BF90AF90B9
:101030009F908F900895E95CD7CFCF92DF92EF9287
:10104000FF92CF93DF936C01990FEE08FF08F7FE34
:1010500019C06DE28AE39AE00E945406EC0166270B
:101060007727CB016C197D098E099F094AE00E9400
:10107000CF078C0F9D1FDF91CF91FF90EF90DF90F6
:10108000CF9008954AE0C701B601DF91CF91FF905C
:10109000EF90DF90CF900C94CF07FC01808191817D
:1010A000009711F00C945B1708950C94C014EF9204
:1010B000FF920F931F93CF93DF93EC017B018A0183
:1010C00088819981009729F02A813B81241735076F
:1010D00088F4B8016F5F7F4F0E94E417009791F08A
:1010E000998388831B830A832C813D81232B11F4F0
:1010F000FC0110821D830C83B701888199810E94B5
:10110000AA180CC088819981009711F00E945B1782
:10111000198218821D821C821B821A82CE01DF91E5
:10112000CF911F910F91FF90EF9008951F920F9212
:101130000FB60F9211248F939F938091E1009091AD
:10114000E100937F9093E10083FF0FC01092E900CC
:1011500091E09093EB001092EC0092E39093ED00FD
:101160001092EF0198E09093F00082FF22C093E08C
:101170009093E9009091F200992319F09AE39093EB
:10118000E8009091E001992341F09091E0019150A5
:101190009093E001911101C05D9A9091EE01992325
:1011A00041F09091EE0191509093EE01911101C0A8
:1011B000289A84FF18C08091E2008E7E816080931F
:1011C000E2008091E1008F7E8093E1008091E10157
:1011D0008E7E80618093E1019F918F910F900FBE71
:1011E0000F901F90189580FFF7CF8091E2008E7EC0
:1011F00080618093E2008091E1008E7E8093E10027
:101200008091E1018E7E8160E5CF1F920F920FB633
:101210000F921124CF92DF92EF92FF920F931F93C0
:101220002F933F934F935F936F937F938F939F93EE
:10123000AF93BF93EF93FF93CF93DF93CDB7DEB719
:101240006C97DEBFCDBF1092E9008091E80083FF6C
:1012500025C068E0CE0145960E940D0582EF80937F
:10126000E8008D8987FF39C09091E80090FFFCCF9E
:10127000982F907609F034C19E894F89588D2F8917
:10128000F88C911131C0803861F58091DF01809335
:10129000F1001092F1008EEF8093E8006C960FB68B
:1012A000F894DEBF0FBECDBFDF91CF91FF91EF91DC
:1012B000BF91AF919F918F917F916F915F914F916E
:1012C0003F912F911F910F91FF90EF90DF90CF9062
:1012D0000F900FBE0F901F9018959EEF9093E8000F
:1012E000C7CF1092F100D5CF913059F48111D3CFEF
:1012F0004130510581F68091DF018D7F8093DF01C0
:10130000CACF933049F48111C6CF4130510519F647
:101310008091DF018260F2CF953041F48091E80046
:1013200080FFFCCF20682093E300B5CF963009F012
:10133000A9C00B8D1C8D22E01092E9001092DD01F6
:101340001092DC01F2122EC01092DB011092DA0131
:101350000E94DC041F8299E09983FA8291E09E83C7
:1013600090EA98879AEF99872091DC013091DD010E
:10137000275F3F4F3C832B838D831092E9001092AF
:10138000DD011092DC011093DB010093DA0149E0EA
:1013900050E0BE016F5F7F4F80E00E94B6040E9464
:1013A000DC0479CF1093DB010093DA010E94F30390
:1013B000DC0112960D911C910115110509F451C122
:1013C000D801ED91FC910480F581E02DBE016B5EAA
:1013D0007F4FC8010995009709F03EC1F8010085CB
:1013E0001185EACFF3E0FF120EC08F89882309F43C
:1013F00040C0823061F440E867E081EF96E00E94EF
:10140000810B811148CF81E28093EB0047CF81307F
:1014100029F440E86BE085EE96E0F1CF833099F750
:101420000E94F303DC011296ED90FC908E010F5F99
:101430001F4F6801E114F10479F0D701ED91FC919F
:101440000680F781E02DB801C7010995080F111D2D
:10145000F701E084F184EECFD8011C92F6010190EF
:101460000020E9F73197BF016C197D0940E0C60102
:10147000C6CF6FEC76E0FB01449150E080E80E941B
:10148000B60409CF973009F4BECF983021F481E03B
:101490008093F10000CF993009F0FDCE837009F000
:1014A000B2CFE6E5F1E081E031E096E3219122233D
:1014B00071F08093E9003093EB00DF0111972C91DC
:1014C0002093EC009093ED008F5F873079F78EE7E3
:1014D0008093EA001092EA008F898093EF01DBCEBF
:1014E0008B8D9C8D1092E9001092DD011092DC0131
:1014F0009093DB018093DA01898D811192C08E89EE
:101500009D89913A49F4813209F07DCF47E050E05E
:1015100067E071E080E0B3CF913209F074CF83329D
:1015200069F48F89988DB0E0A0E0809303019093D7
:101530000401A0930501B0930601ADCE803269F499
:101540008091E80082FFFCCF67E087E091E00E9495
:101550000D058BEF8093E8009ECE823209F09BCE82
:101560008F8980930E01EEEFFFE7859194918B3F79
:101570009C4D51F1E0E0F8E0809107019091080165
:10158000A0910901B0910A01803B9440A105B105E9
:10159000F1F480910E0180FD1AC0EE3F8AE0F80759
:1015A00089F587E797E79183808380916000809336
:1015B000DE0188E19BE00FB6F894A8958093600067
:1015C0000FBE9093600067CEEEEFFAE0D5CF80813A
:1015D00091818737974709F05ECEA895809160008A
:1015E0008861809360008091DE0180936000EE3F0F
:1015F0002AE0F20789F08091FE0A9091FF0A918318
:10160000808349CE808191818737980751F29093EA
:10161000FF0A8093FE0AC5CF1092FF0A1092FE0ABD
:101620003ACE0E94F303DC0112960D911C91011534
:10163000110509F4E8CED801ED91FC910190F081FB
:10164000E02DBE016B5E7F4FC8010995811123CE4D
:10165000F80100851185EBCF181619060CF41BCE86
:10166000D2CEF1E0FF12BECE63ED76E004CF1F9242
:101670000F920FB60F9211242F933F938F939F9346
:10168000AF93BF938091D2019091D301A091D401E7
:10169000B091D5013091D10123E0230F2D3758F5BA
:1016A0000196A11DB11D2093D1018093D201909389
:1016B000D301A093D401B093D5018091D60190912C
:1016C000D701A091D801B091D9010196A11DB11DFA
:1016D0008093D6019093D701A093D801B093D901FC
:1016E000BF91AF919F918F913F912F910F900FBE1E
:1016F0000F901F90189526E8230F0296A11DB11D8B
:10170000D2CFEF92FF920F931F93CF93DF93F82ED8
:10171000192FE62E042F81E0860F880F0E9488047F
:1017200083E00E948804CF2DD12FEC0EFD2EF11CFA
:10173000CE15DF05B9F007FF13C0FE0184910E94AA
:101740008804182F80E00E9488048123219681114B
:10175000EFCFDF91CF911F910F91FF90EF90089500
:101760008881EDCF81E0F5CF1092F3051092F2055C
:1017700088EE93E0A0E0B0E08093F4059093F50547
:10178000A093F605B093F70580E691E09093F105FC
:101790008093F0058FEF9FEF9093FD058093FC05FC
:1017A00010923D0A10923C0A82E791E090933B0A26
:1017B00080933A0A1092350A1092340A1092370A2E
:1017C0001092360A1092390A1092380A50E040E01E
:1017D00065EA71E084E39AE00E945708ECE4F6E0E1
:1017E00081E090E010829283818314821382359687
:1017F0002AE0E433F207B1F7909341068093400664
:101800002FE730E0309343062093420610924406BF
:1018100010924506909347068093460630934906FA
:101820002093480610924A0610924B060895CF93D3
:10183000DF93CDB7DEB729970FB6F894DEBF0FBEA2
:10184000CDBF789484B5826084BD84B5816084BD49
:1018500085B5826085BD85B5816085BD80916E004E
:10186000816080936E00109281008091810082607F
:1018700080938100809181008160809381008091BC
:1018800080008160809380008091910082608093CD
:1018900091008091910081608093910080919000EF
:1018A0008160809390008091C10084608093C1002A
:1018B0008091C10082608093C1008091C1008160ED
:1018C0008093C1008091C30081608093C3008091A8
:1018D000C00082608093C0008091C20081608093CC
:1018E000C20080917A00846080937A0080917A00AF
:1018F000826080937A0080917A00816080937A0080
:1019000080917A00806880937A001092EF011092A3
:10191000DF011092E1018091D70081608093D700B0
:1019200080EA8093D80089B5806189BD89B58260DD
:1019300089BD09B400FEFDCF61E070E080E090E079
:101940000E943F058091D8008F7C80618093D800F1
:101950008091E000807F8093E0008091E1008E7EA6
:101960008093E1008DE08093E200559A209A0E94D6
:10197000A70781EC80937C0085B1806F85B984B125
:10198000877E84B984B1876E84B95E9A5F988AB184
:10199000806D8AB9769A6E9881B3806F81BB899881
:1019A00080B38D7080BB80E58CBD81E08DBD85E00E
:1019B00090E00E942F065F9A85E090E00E942F063B
:1019C0005E985C98ECE5F6E089E696E024912EBD01
:1019D00000000DB407FEFDCF31968E179F07B1F7BB
:1019E0005C9A81E8809364008091650081608093B7
:1019F00065000E94F90680E80E94EE068823A9F09F
:101A00005C9885EA8EBD00000DB407FEFDCF5C9AA0
:101A10002E982F982D9880916400806280936400A6
:101A200081E083BF889513BEFCCF84E00E94EE0660
:101A3000882309F448C02D9884E80E94EE06882384
:101A4000E1F00E942D0688EC90E00E942F062F986E
:101A500082E090E00E94C0148F3F29F06FEF82E097
:101A600090E00E94C81484EF91E00E942F062F9A04
:101A700084E80E94EE068111FBCF84E10E94EE060D
:101A80008823E1F00E942D0688EC90E00E942F064A
:101A90002E9882E090E00E94C014882329F060E034
:101AA00082E090E00E94C81484EF91E00E942F062B
:101AB0002E9A84E10E94EE068111FBCF88EC90E023
:101AC0000E942F06B2CF0E942D0682E090E00E9475
:101AD0005508882309F47AC03E9A3F9A81E090E045
:101AE0000E94550881FF14C0082F0470302E82FD1B
:101AF0002E9801EF1FEF88E0A82EB12C80E40E9401
:101B0000EE06882309F465C02E9A2F9A0E942D06AE
:101B100082E390E00E942F060E9434068111F8CFE4
:101B200080E180930001809164008E7F8093640047
:101B300080917A00806480937A0080917A0086FD9B
:101B4000FCCF00917800109179000E941A05AB013A
:101B5000BC01C801B0E0A0E0DC01992788278C0116
:101B60009D01040F151F261F371FC901B8012091C1
:101B70006400216020936400611571058105910561
:101B800011F00E94BC1374E3672E7AE0772EE2E036
:101B90008E2E912CA12CB12C15E08FB7F89440918A
:101BA000D2015091D3016091D4017091D5018FBFC2
:101BB0000091BC01002309F4CFC01092BC0180E069
:101BC00090E0892B51F30E940000E6CF3E983F98A9
:101BD00085CF332029F00430110511F42E9A2F9867
:101BE00081E00E94A903980117FF04C02227332730
:101BF000201B310B27703327C80117FD0796B3E070
:101C000095958795BA95E1F717FF05C00197A5014E
:101C1000421B530B9A01AC015695542F44275795FC
:101C2000479540515E4FB0E0A0E02501421A530AAB
:101C30008E3F6FEF960709F43FC07A0170E060E0D5
:101C4000FD01E455FA4F4F013A01F0E86F0E711CA7
:101C50008F3F980779F0F401E60FF71FE491F0E069
:101C60006F01022E01C0CC0C0A94EAF7F701D48868
:101C7000CD28C48A21153105B9F0F401E60FF71F0C
:101C800024906301C60ED71EE22DF0E0042C02C0A2
:101C9000F595E7950A94E2F7F987E887F601248835
:101CA000F8852F2AF601248A6F5F7F4FFFEFEF1A26
:101CB000FF0A6835710561F60196A85ABF4F405872
:101CC0005F4FA03BB10509F0B3CF0E94F9068FE04A
:101CD00090E00E942F060F5F1F4F0931110509F098
:101CE0000DCF332011F02F9A2D9880E991E00E94BA
:101CF0002F060E942D0681E090E00E94550880FF8B
:101D000007CF8AE090E00E9455089FEF980F9E3F12
:101D100008F0FECE22E330E03093CA012093C901DF
:101D200028E330E03093CC012093CB010BE010E0AE
:101D3000682F8AE39AE00E945406C8010E94550861
:101D40000F5F1F4F0131110599F70E94F90688EEC8
:101D500093E00E942F06DCCE8091BD01242F281B2A
:101D6000822F90910001291748F48F5F891708F09E
:101D700026CF81E083BF889513BE21CF81E0809379
:101D8000BC014093BD018091BA019091BB010196C5
:101D90009093BB018093BA018091CE018093CD01D5
:101DA0000E9434068093CE01E0EFF1E001110FEFC5
:101DB000002401930193019301930394D1F71092AE
:101DC000CC011092CB011092CA011092C9018091EE
:101DD000D001813009F4DBC070F0823009F46CC3AB
:101DE000833009F4D5C38091CF018F5F8093CF01F9
:101DF0000E94F906E4CE0E94900780E40E94E30668
:101E0000882369F08091C7019091C80101968330C1
:101E100091050CF081C09093C8018093C70180E2C6
:101E20000E94E306882359F08091C7019091C80170
:101E3000019797FD76C09093C8018093C701809168
:101E4000C7019091C801009709F06EC01092C601B9
:101E500087E190E09093CA018093C9018CE290E001
:101E60009093CC018093CB018091C50180930101B7
:101E70004EE050E06AE771E08AE39AE00E94F705DD
:101E8000E090C701F090C80132E0E316F10421F1BF
:101E900087E090E09093CA018093C90188E090E0C8
:101EA0009093CC018093CB0180910201809301013A
:101EB0008CE696E00E94C80689E390E09093CA0100
:101EC0008093C90182E190E09093CC018093CB0193
:101ED00089E696E00E94C80688E00E94E306811128
:101EE00010C080E10E94E30681110BC084E00E94D3
:101EF000E306811106C080E80E94E306882309F406
:101F000072CF42E0E416F10409F46DCF0E94A707F6
:101F100081E08093D00167CF1092C8011092C70171
:101F20007ECF82E090E087CF81309105C1F481E0DF
:101F30008093C60187E190E09093CA018093C90124
:101F40008CE290E09093CC018093CB018091C5010D
:101F5000809301014EE050E069E871E08DCF029777
:101F600009F08ECF87E090E09093CA018093C90179
:101F700088E090E09093CC018093CB0180910201A6
:101F80008093010180E896E00E94C80679CF0E9404
:101F9000900788E00E94EE06811123C080E10E9434
:101FA000EE0681111EC080914406811151C06091DE
:101FB0004206709143066F37710514F5072E000C29
:101FC000880B990B0E94C71320E030E040E050E4FA
:101FD0000E9471150E944F1670934306609342064B
:101FE0000FC081E0809344068091420690914306A1
:101FF000181619062CF40497909343068093420612
:1020000084E00E94EE0681112FC080E80E94EE0657
:1020100081112AC080914A0681114AC16091480607
:10202000709149066F37710574F5072E000C880B07
:10203000990B0E94C71320E030E040E050E40E947A
:1020400071150E944F1670934906609348061BC095
:1020500010924406609140067091410680914506B9
:1020600090E00E945907A3CF81E080934A068091B7
:10207000480690914906181619062CF40497909377
:102080004906809348068091D0018130C1F4809147
:10209000420690914306181619063CF480914806B2
:1020A000909149061816190654F046E050E068E988
:1020B00071E084E39AE00E9457080E943B07609118
:1020C000420670914306072E000C880B990B0E9464
:1020D000C71320E030E04EEF52E40E94DD1520E00F
:1020E00030E040ED51E40E9402140E944F163091FE
:1020F00044065AEF5303F001112420E230E0261B7E
:10210000370BE20FF31F3091450600910201262F95
:1021100046E0BF01832F90E00E94FC0660914806D4
:1021200070914906072E000C880B990B0E94C7136B
:1021300020E030E04EEF52E40E94DD1520E030E078
:1021400040ED51E40E9402140E944F16262F809108
:102150004A0696E0899FB0011124605E7F4F80910E
:102160004B060091C50146E090E00E94FC0690916C
:10217000C601E090C301F090C4012091CF019130DD
:1021800009F0A6C0C70168ED7FEF0E9491166B5F52
:10219000633008F499C06093C001822F90E0609191
:1021A000C001E6E06E9FB00111240E9491167C01EF
:1021B000892B09F04EC00E946D13A50194010E9465
:1021C000D614CC24CA94DC2C672B682B692B19F409
:1021D000CC24C394D12C0E946D13A50194010E94BC
:1021E000D61421E030E0672B682B692B29F02FEF04
:1021F0003FEF4FE7E42EF12C8091C1019091C20195
:10220000883C91058CF4189FF001199FF00D112462
:10221000E45BF94FE082D282C1823483238301964A
:102220009093C2018093C1018091CF0190E06091B1
:10223000C001F8E16F9FB00111240E949116892B13
:1022400041F48091C501909102019093C501809362
:10225000020190E080E04091C1015091C2018417D9
:1022600095070CF096C0189FD001199FB00D11244E
:10227000A45BB94F2C9113963C911397230F2C9389
:1022800027FF14C09A0121503109129FF001139FBA
:10229000F00D1124E45BF94F45E001900D924A9551
:1022A000E1F73093C2012093C10101970196D3CF8A
:1022B00010924A06609146067091470680914B063F
:1022C00090E00E945907AACE83E08093C00165CFB9
:1022D0009111BFCF822F90E064E270E00E949116CE
:1022E0000097F1F52091BE013091BF012E313105EB
:1022F000B8F5F901E95CFE4F4081442359F1A1E0B2
:10230000B0E0413011F0AFEFBFEFF901E75EFE4FF3
:102310006081062E000C770B6130710511F08FE79C
:1023200090E04091C1015091C201483C510594F4A4
:10233000149FF001159FF00D1124E45BF94F808389
:10234000B283A183748363834F5F5F4F5093C20155
:102350004093C1012F5F3F4F3093BF012093BE01D7
:1023600008ECE016F1040CF474CFECE4F6E0108213
:1023700021E030E0328321831482138235966E1679
:102380007F06A9F71092C2011092C10183E08093E9
:10239000D0012CE4E22E26E0F22E6091450670E09A
:1023A0009B01245031096C5F7F4FA0914006B09192
:1023B0004106409144064F8320904B06312C210169
:1023C00054E0451A510884E0280E311CC09046069E
:1023D000D090470600914A06F701808190E082176D
:1023E00093075CF08617970744F441815281A41744
:1023F000B50719F44F81442369F084159505ACF1B4
:102400008215930594F5818192818C159D0569F55E
:1024100001112BC046E050E06FE971E084E39AE0DF
:102420000E9457080E943B07D12CC12C0091020149
:102430008091C1019091C201C816D906E4F4F70158
:1024400081819281019709F0F4C06AE170E0F7019F
:10245000808126E046E090E00E94FC06FFEFCF1A64
:10246000DF0A05E0E00EF11CE1CF35966E167F061F
:1024700009F0B3CFD9CF8091CF0166E00E948516D5
:10248000911109C08091C3019091C401019690936C
:10249000C4018093C3011092CA011092C901109225
:1024A000CC011092CB01009301018091C301909166
:1024B000C4010E941D0897CC0E9490071A821982BD
:1024C0001C821B821E821D826091340A7091350A23
:1024D0006115710541F04091380A5091390ACE01D9
:1024E00001960E94570890E3E92EF12CF092CA0160
:1024F000E092C9018BE090E09093CC018093CB01F6
:102500008091020180930101CE0101960E94240670
:10251000F092CA01E092C9018CE290E09093CC0164
:102520008093CB018091C50180930101CE0101967A
:102530000E942406CE0101960E944D081092CA0105
:102540001092C9011092CC011092CB01809102012E
:10255000809301018091C3019091C4010E941D08E4
:1025600088E00E94E306811110C080E10E94E3062A
:1025700081110BC084E00E94E306811106C080E84F
:102580000E94E306882309F42ECC1092D0012BCCB4
:102590000E9490071A8219821C821B821E821D8251
:1025A00042E150E066EA71E0CE0101960E945708D0
:1025B0008BE0E82EF12CF092CA01E092C9018FE085
:1025C00090E09093CC018093CB01809102018093A5
:1025D0000101CE0101960E942406F092CA01E09208
:1025E000C9018DE290E09093CC018093CB01809162
:1025F000C50180930101CE0101960E94240688E066
:102600000E94E30681110EC080E10E94E306811161
:1026100009C084E00E94E306811104C080E80E94A2
:10262000E30681111092D001CE0101960E944D085F
:10263000DACB0091C50160E209CF84E39AE00C9403
:102640004D088F929F92AF92BF92CF92DF92EF92FE
:10265000FF92CF93DF93EC01688179818A819B811E
:10266000611571058105910521F464E279ED8BE531
:1026700097E02DE133EF41E050E00E94D61449018C
:102680005A019B01AC01A7EAB1E40E94F5146B0169
:102690007C01ACEEB4EFA50194010E940315C60EB7
:1026A000D71EE81EF91EF7FE06C081E0C81AD10841
:1026B000E10880E8F80AC882D982EA82FB82C70171
:1026C000B6019F77DF91CF91FF90EF90DF90CF9091
:1026D000BF90AF909F908F9008958F929F92AF92EE
:1026E000BF92CF92DF92EF92FF9260910F017091B3
:1026F0001001809111019091120161157105810500
:10270000910521F464E279ED8BE597E02DE133EF5B
:1027100041E050E00E94D61449015A019B01AC01EE
:10272000A7EAB1E40E94F5146B017C01ACEEB4EFB2
:10273000A50194010E940315C60ED71EE81EF91EBE
:10274000F7FE06C081E0C81AD108E10880E8F80A5F
:10275000C0920F01D0921001E0921101F09212018B
:10276000C701B6019F77FF90EF90DF90CF90BF90A9
:10277000AF909F908F90089560930F017093100118
:1027800080931101909312010895E89409C097FB7A
:102790003EF490958095709561957F4F8F4F9F4F38
:1027A0009923A9F0F92F96E9BB279395F69587957C
:1027B00077956795B795F111F8CFFAF4BB0F11F43F
:1027C00060FF1BC06F5F7F4F8F4F9F4F16C08823E6
:1027D00011F096E911C0772321F09EE8872F762F1C
:1027E00005C0662371F096E8862F70E060E02AF05D
:1027F0009A95660F771F881FDAF7880F9695879549
:1028000097F908950E9415140C9486140E94781468
:1028100038F00E947F1420F0952311F00C946F146F
:102820000C94751411240C94BA140E94971470F32C
:10283000959FC1F3950F50E0551F629FF001729F65
:10284000BB27F00DB11D639FAA27F00DB11DAA1F74
:10285000649F6627B00DA11D661F829F2227B00DC1
:10286000A11D621F739FB00DA11D621F839FA00D4C
:10287000611D221F749F3327A00D611D231F849F9C
:10288000600D211D822F762F6A2F11249F575040F3
:102890009AF0F1F088234AF0EE0FFF1FBB1F661F6E
:1028A000771F881F91505040A9F79E3F510580F037
:1028B0000C946F140C94BA145F3FE4F3983ED4F375
:1028C000869577956795B795F795E7959F5FC1F7DB
:1028D000FE2B880F911D9695879597F9089597F986
:1028E0009F6780E870E060E008959FEF80EC0895B6
:1028F00000240A94161617061806090608950024DF
:102900000A9412161306140605060895092E039458
:10291000000C11F4882352F0BB0F40F4BF2B11F4CC
:1029200060FF04C06F5F7F4F8F4F9F4F089557FD2B
:102930009058440F551F59F05F3F71F04795880F2D
:1029400097FB991F61F09F3F79F0879508951216C4
:1029500013061406551FF2CF4695F1DF08C0161670
:1029600017061806991FF1CF869571056105089421
:102970000895E894BB2766277727CB0197F9089538
:10298000F999FECF92BD81BDF89A992780B5089537
:10299000262FF999FECF1FBA92BD81BD20BD0FB67B
:1029A000F894FA9AF99A0FBE01960895052E97FBAE
:1029B0001EF400940E94ED1457FD07D00E943F15AD
:1029C00007FC03D04EF40C94ED14509540953095CF
:1029D00021953F4F4F4F5F4F08959095809570958B
:1029E00061957F4F8F4F9F4F08950E946115A59F5E
:1029F000900DB49F900DA49F800D911D11240895FA
:102A0000B7FF0C94F5140E94F514821B930B0895E4
:102A10002F923F924F925F926F927F928F929F92EE
:102A2000AF92BF92CF92DF92EF92FF920F931F93DC
:102A3000CF93DF93CDB7DEB7CA1BDB0B0FB6F8948D
:102A4000DEBF0FBECDBF09942A88398848885F84CD
:102A50006E847D848C849B84AA84B984C884DF803E
:102A6000EE80FD800C811B81AA81B981CE0FD11D22
:102A70000FB6F894DEBF0FBECDBFED010895A1E201
:102A80001A2EAA1BBB1BFD010DC0AA1FBB1FEE1FE8
:102A9000FF1FA217B307E407F50720F0A21BB30B33
:102AA000E40BF50B661F771F881F991F1A9469F7AF
:102AB00060957095809590959B01AC01BD01CF010B
:102AC0000895A29FB001B39FC001A39F700D811D07
:102AD0001124911DB29F700D811D1124911D089527
:102AE0005058BB27AA270E9488150C9486140E9470
:102AF000781438F00E947F1420F039F49F3F19F4C5
:102B000026F40C9475140EF4E095E7FB0C946F1406
:102B1000E92F0E94971458F3BA17620773078407C6
:102B2000950720F079F4A6F50C94B9140EF4E0950D
:102B30000B2EBA2FA02D0B01B90190010C01CA0177
:102B4000A0011124FF27591B99F0593F50F4503E22
:102B500068F11A16F040A22F232F342F4427585F14
:102B6000F3CF469537952795A795F0405395C9F72C
:102B70007EF41F16BA0B620B730B840BBAF09150E4
:102B8000A1F0FF0FBB1F661F771F881FC2F70EC083
:102B9000BA0F621F731F841F48F487957795679556
:102BA000B795F7959E3F08F0B0CF9395880F08F042
:102BB0009927EE0F9795879508950E94F1150C942B
:102BC00086140E947F1458F00E94781440F029F473
:102BD0005F3F29F00C946F1451110C94BA140C94AB
:102BE00075140E94971468F39923B1F3552391F358
:102BF000951B550BBB27AA2762177307840738F06C
:102C00009F5F5F4F220F331F441FAA1FA9F335D0C8
:102C10000E2E3AF0E0E832D091505040E695001C7C
:102C2000CAF72BD0FE2F29D0660F771F881FBB1F36
:102C3000261737074807AB07B0E809F0BB0B802D14
:102C4000BF01FF2793585F4F3AF09E3F510578F040
:102C50000C946F140C94BA145F3FE4F3983ED4F3D1
:102C6000869577956795B795F7959F5FC9F7880F14
:102C7000911D9695879597F90895E1E0660F771F66
:102C8000881FBB1F621773078407BA0720F0621BF7
:102C9000730B840BBA0BEE1F88F7E09508950E9422
:102CA00056166894B1110C94BA1408950E949F149A
:102CB00088F09F5798F0B92F9927B751B0F0E1F0FD
:102CC000660F771F881F991F1AF0BA95C9F714C0AD
:102CD000B13091F00E94B914B1E008950C94B91488
:102CE000672F782F8827B85F39F0B93FCCF38695E6
:102CF00077956795B395D9F73EF490958095709543
:102D000061957F4F8F4F9F4F0895991B79E004C0C5
:102D1000991F961708F0961B881F7A95C9F780951A
:102D2000089597FB072E16F4009407D077FD09D07D
:102D30000E94A51607FC05D03EF4909581959F4F03
:102D40000895709561957F4F0895AA1BBB1B51E1B3
:102D500007C0AA1FBB1FA617B70710F0A61BB70B0B
:102D6000881F991F5A95A9F780959095BC01CD01B0
:102D70000895EE0FFF1F0590F491E02D09940F9335
:102D80001F93CF93DF938230910510F482E090E09F
:102D9000E091400AF091410A30E020E0B0E0A0E08C
:102DA000309799F42115310509F44AC0281B390BD5
:102DB00024303105D8F58A819B816115710589F12F
:102DC000FB0193838283FE0111C040815181028106
:102DD000138148175907E0F04817590799F41097DD
:102DE00061F012960C93129713961C933296CF01B2
:102DF000DF91CF911F910F9108950093400A109396
:102E0000410AF4CF2115310551F04217530738F02C
:102E1000A901DB019A01BD01DF01F801C1CFEF017A
:102E2000F9CF9093410A8093400ACDCFFE01E20F83
:102E3000F31F819391932250310939832883D7CF8F
:102E400020913E0A30913F0A232B41F42091150135
:102E50003091160130933F0A20933E0A20911301CE
:102E6000309114012115310541F42DB73EB7409141
:102E7000170150911801241B350BE0913E0AF09187
:102E80003F0AE217F307A0F42E1B3F0B2817390760
:102E900078F0AC014E5F5F4F2417350748F04E0FB6
:102EA0005F1F50933F0A40933E0A819391939FCFB7
:102EB000F0E0E0E09CCFCF93DF930097E9F0FC01D6
:102EC000329713821282A091400AB091410AED011B
:102ED00030E020E01097A1F420813181820F931F10
:102EE00020913E0A30913F0A2817390709F061C046
:102EF000F0933F0AE0933E0ADF91CF910895EA01F3
:102F0000CE17DF07E8F54A815B819E014115510527
:102F1000B1F7E901FB83EA8349915991C40FD51FA9
:102F2000EC17FD0761F4808191810296840F951F53
:102F3000E90199838883828193819B838A83F0E06E
:102F4000E0E012968D919C9113970097B9F52D9121
:102F50003C911197CD010296820F931F20913E0A5A
:102F600030913F0A2817390739F6309751F51092FA
:102F7000410A1092400AB0933F0AA0933E0ABCCF88
:102F8000D383C28340815181840F951FC817D9070D
:102F900061F44E5F5F4F88819981480F591F5183BB
:102FA00040838A819B81938382832115310509F0B7
:102FB000B0CFF093410AE093400A9ECFFD01DC01BF
:102FC000C0CF13821282D7CFB0E0A0E0EAEEF7E1E3
:102FD0000C940A158C01009751F4CB010E94BF1686
:102FE0008C01C801CDB7DEB7E0E10C942615FC01D9
:102FF000E60FF71F9C0122503109E217F30708F48E
:103000009DC0D901CD91DC911197C617D70798F0D3
:10301000C530D10530F3CE0104978617970708F322
:10302000C61BD70B2297C193D1936D937C93CF018D
:103030000E945B17D6CF5B01AC1ABD0A4C018C0E07
:103040009D1EA091400AB091410A512C412CF12CB7
:10305000E12C109731F580913E0A90913F0A881536
:10306000990509F05CC04616570608F058C08091D3
:10307000130190911401009741F48DB79EB74091D0
:10308000170150911801841B950BE817F90708F0F8
:1030900055C0F0933F0AE0933E0AF90171836083C3
:1030A000A0CF8D919C91119712966C9012971396C8
:1030B0007C901397A815B90559F56C0142E0C40E30
:1030C000D11CCA14DB0420F1AC014A195B09DA01F6
:1030D0001296159780F06282738251834083D901E2
:1030E0006D937C93E114F10471F0D7011396FC9376
:1030F000EE93129776CF22968C0F9D1FF901918344
:103100008083F301EFCFF093410AE093400A69CF47
:103110004816590608F42C017D01D3019ACFCB0142
:103120000E94BF167C01009749F0AE01B8010E94D1
:10313000A118C8010E945B17870153CF10E000E07F
:1031400050CFFB01DC0102C001900D924150504074
:10315000D8F70895FB01DC0101900D920020E1F702
:10316000089513E0CEE7D3E004C0FE010E94B91633
:0C3170002196CF37D107C9F7F894FFCFA4
:10317C00100101FFFFFFFF00E10000000000000153
:10318C000000000000420A80000100010101000162
:10319C000100FF010000FFFF010100FF0001FF0023
:1031AC00FFFF0001010101010001010000FF01000E
:1031BC0001010000FFFF0101000100010100FF01FE
:1031CC000001FF01FF00C180810000000000000031
:1031DC000704720528041D046E042C044A04000024
:1031EC0000005406F705CC07CB073C202020476590
:1031FC006E746C652020203E003C2020204D4159EF
:10320C0048454D2020203E00456D707479210043C7
:10321C0072617368210047656E746C6520436F752D
:0A322C007273652057696E210000DF
:00000001FF
