:100000000C946D0B0C94950B0C94950B0C94950B18
:100010000C94950B0C94950B0C94950B0C94950BE0
:100020000C94950B0C94950B0C9444110C94B311F7
:100030000C94950B0C94950B0C94950B0C94950BC0
:100040000C94950B0C94950B0C94950B0C94950BB0
:100050000C94950B0C94950B0C94950B0C94E51348
:100060000C94950B0C94950B0C94950B0C94950B90
:100070000C94950B0C94950B0C94950B0C94950B80
:100080000C94950B0C94950B0C94950B0C94950B70
:100090000C94950B0C94950B0C94950B0C94950B60
:1000A0000C94950B0C94950B0C94950B0000000090
:1000B000003E5B4F5B3E3E6B4F6B3E1C3E7C3E1CEE
:1000C000183C7E3C181C577D571C1C5E7F5E1C0034
:1000D000183C1800FFE7C3E7FF0018241800FFE7EB
:1000E000DBE7FF30483A060E2629792926407F05AE
:1000F0000507407F05253F5A3CE73C5A7F3E1C1CC4
:1001000008081C1C3E7F14227F22145F5F005F5F83
:1001100006097F017F006689956A6060606060946F
:10012000A2FFA29408047E040810207E2010080874
:100130002A1C08081C2A08081E101010100C1E0C7F
:100140001E0C30383E3830060E3E0E060000000011
:100150000000005F00000007000700147F147F14F8
:10016000242A7F2A1223130864623649562050003D
:1001700008070300001C2241000041221C002A1C29
:100180007F1C2A08083E0808008070300008080814
:100190000808000060600020100804023E51494534
:1001A0003E00427F400072494949462141494D3352
:1001B0001814127F1027454545393C4A49493141B9
:1001C000211109073649494936464949291E000087
:1001D00014000000403400000008142241141414DC
:1001E0001414004122140802015909063E415D59C8
:1001F0004E7C1211127C7F494949363E41414122D1
:100200007F4141413E7F494949417F090909013EFA
:10021000414151737F0808087F00417F4100204021
:10022000413F017F081422417F404040407F021C33
:10023000027F7F0408107F3E4141413E7F0909094A
:10024000063E4151215E7F09192946264949493216
:1002500003017F01033F4040403F1F2040201F3FDC
:100260004038403F63140814630304780403615961
:10027000494D43007F4141410204081020004141A3
:10028000417F04020102044040404040000307084F
:100290000020545478407F2844443838444444284B
:1002A000384444287F385454541800087E090218F2
:1002B000A4A49C787F0804047800447D400020407A
:1002C000403D007F1028440000417F40007C0478BE
:1002D00004787C080404783844444438FC18242406
:1002E0001818242418FC7C08040408485454542486
:1002F00004043F44243C4040207C1C2040201C3C03
:100300004030403C44281028444C9090907C4464F9
:10031000544C44000836410000007700000041368C
:10032000080002010204023C2623263C1EA1A16112
:10033000123A4040207A3854545559215555794144
:100340002154547841215554784020545579400C1B
:100350001E527212395555555939545454593955FC
:100360005454580000457C410002457D420001453F
:100370007C40F0292429F0F0282528F07C545545AC
:10038000002054547C547C0A097F4932494949323F
:100390003248484832324A4848303A4141217A3A54
:1003A00042402078009DA0A07D39444444393D401E
:1003B00040403D3C24FF2424487E4943662B2FFCCB
:1003C0002F2BFF0929F620C0887E09032054547979
:1003D000410000447D413048484A32384040227A4A
:1003E000007A0A0A727D0D19317D2629292F2826C7
:1003F0002929292630484D402038080808080808CF
:100400000808382F10C8ACBA2F102834FA00007B27
:10041000000008142A142222142A1408950022002D
:1004200095AA005500AAAA55AA55AA000000FF00E7
:10043000101010FF00141414FF001010FF00FF1024
:1004400010F010F0141414FC001414F700FF000056
:10045000FF00FF1414F404FC141417101F10101FD5
:10046000101F1414141F00101010F0000000001FC3
:10047000101010101F10101010F010000000FF10CE
:100480001010101010101010FF10000000FF1400CA
:1004900000FF00FF00001F10170000FC04F41414FC
:1004A0001710171414F404F40000FF00F7141414C8
:1004B00014141414F700F7141414171410101F1048
:1004C0001F141414F4141010F010F000001F101F6B
:1004D0000000001F14000000FC140000F010F010D9
:1004E00010FF10FF141414FF141010101F00000050
:1004F00000F010FFFFFFFFFFF0F0F0F0F0FFFFFF54
:100500000000000000FFFF0F0F0F0F0F38444438AA
:10051000447C2A2A3E147E02020606027E027E02E5
:1005200063554941633844443C04407E201E200604
:10053000027E020299A5E7A5991C2A492A1C4C7241
:1005400001724C304A4D4D303048784830BC625AC8
:10055000463D3E494949007E0101017E2A2A2A2A58
:100560002A44445F444440514A444040444A514034
:100570000000FF0103E080FF000008086B6B0836F5
:1005800012362436060F090F060000181800000066
:100590001010003040FF0101001F01011E00191D55
:1005A0001712003C3C3C3C0000000000F0F89C8E20
:1005B0008783878E9CF8F00000FEFF03030303038C
:1005C000070EFCF80000FEFF0303030303070EFC05
:1005D000F80000FFFF00000000000000FFFF000027
:1005E000FEFF8383838383C7EE7C380000F8FC0E14
:1005F00007030303070EFCF800003F7FE0C0808084
:10060000C0E07F3FFFFF01010101010101FFFF0089
:1006100000FFFF0C0C0C0C1C3E77E3C100007FFFB9
:10062000C0C0C0C0C0E0703F1F00001F3F70E0C0EE
:10063000C0C0E0703F1F00007FFFC1C1C1C1C1E366
:10064000773E1C00001F3F70E0C0C0C0E0703F1F3D
:10065000000000000001FFFF01000000D5F08D1434
:10066000A1C881CFD9F1AF2000FFFFFFFFFFFFFF3F
:10067000FFFFFFFF3FBF3FFF3FBF3FFF3FFF3FBFCA
:10068000FF3FBFFFFFFFFFFFFFFFFFFFFFFFFF3F3A
:10069000BF3FFF3FFF3FFF3FBF3FFF3FFF3FBF7FEA
:1006A000FFFFFF3FFF3FBFFFBF3FBFFF3FBF3FFF1A
:1006B0003FBF3FBF3FFF3FBF3FFFFFFFFFFFFFFFCA
:1006C000FFFFFFFFFFFF3FBFFF3FFF3FFF3FBF3F7A
:1006D000FF3FFF3FFF3FFF3FFF3FFF3FBFFFFFFFEA
:1006E000FFFFFFFFFFFFFFFFFFFFFFFFFFFFFFFF1A
:1006F000FFFFFFFFF8FEF9FFF8FEF8FFF8FFFAF83A
:10070000FFF8FAFFFFFFFFFFFFFFFFFFFFFFFFF80C
:10071000FEF8FFFCFBFCFFF8FBF8FFF8FFF8FBFC22
:10072000FFFBFCFFFFFAF8FFFFF8FFFFF8FBF8FF05
:10073000F8FFFCFFF8FFF8FDFCFFFFFFFFFFFFFFE6
:10074000FFFFFFFFFFFFFAF8FFF8FBF8FFF8FEF9E5
:10075000FFFCFBFCFFF8FFFCFBFCFFF8FAFFFFFFD0
:10076000FFFFFFFFFFFFFFFFFFFFFFFFFFFFFFFF99
:10077000FFFFFFFFFFFFFFFFFF000000FFFFFFFF86
:10078000FFFFFFFFFFFFFFFFFFFFFFFFFFFFFFFF79
:10079000FFFFFFFFFFFFFFFFFFFFFFFFFFFFFFFF69
:1007A000FFFFFF000000FFFFFFFFFFFFFFFFFFFF56
:1007B000FFFFFFFFFFFFFFFFFFFFFFFFFFFFFFFF49
:1007C000FFFFFFFFFFFFFF7FFFFFFFFFFFFF43FF75
:1007D000FFFFFFFFFFFFFFFFFFFFFFFFFFFFFFFF29
:1007E000FFFFFFFFFFFFFFFFFFFFFFFFFFFFFFFF19
:1007F000FFFFFFFFFFFFFFFFFFB8D8B8FFFFFFFFBE
:10080000FFFFFFFFFFFFFFFFFFFFFFFFFFFFFFFFF8
:10081000FFFFFFFFFFFFFFFFFFFF1F1F1FFFFF5F28
:10082000BFFFFFF8F8F8FFFFFFFFFFFFFFFFFFFF2D
:10083000FFFFFFFFFFFFFFFFFFFFFFFFFFFFFFFFC8
:10084000FFFFFFFFFFFF1F141FFF5FBFFF03030337
:10085000FFFFFFFFFFFFFFFFFFFFFFFFFFFFFFFFA8
:10086000FFFFFFFFFFFFFFFFFF0000000000000091
:10087000000000000000000000000000000000F286
:10088000F4F2000000000000000000000000000082
:100890000000000000000000000000000000000058
:1008A000000000000040204007F7F7F000000000C3
:1008B0000000000000000000000000000000000038
:1008C0000000000000000000000000000000000028
:1008D000000000FFFFFF0002050007D7070000002F
:1008E0000000000000000000000000000000000008
:1008F0000000000000000000000000000000007F79
:100900007F7F0000000000000000000000000000E9
:1009100000000000000000000000000000000000D7
:100920000000000000000000007F7F7F000000004A
:1009300000000000000000000000000000000000B7
:1009400000000000000000000000000000000000A7
:10095000000000070707000000000003000000007F
:100960000000000000000000000000000000C06067
:10097000A060C000C0E060E0C0000000804000C097
:1009800020A060C000C0E0E0E0C000000000000067
:100990000000000000000000000000000000000057
:1009A0000000000000000000000000000000000047
:1009B0000000000000000000000000000000000037
:1009C0000000000000000000000000000000000027
:1009D0000000000000000000000000000000000017
:1009E00000000000000000000000000000000708F8
:1009F0000E080700070E0F0E070002010000000797
:100A0000080A0D0700070E0D0E0700000000000089
:100A100000000000000000000000000000000000D6
:100A200000000000000000000000000000000000C6
:100A300000000000000000000000000000000000B6
:100A40000000000000003E28380058201800000078
:100A50003828380038283E0038283E00B8A8F8006A
:100A60003828380038283800000000000000000056
:100A700000000000C040C000C040C000C000C04036
:100A800000C040000000000000000000000000C0A6
:100A900040C000C000C000C040C000C000C04080D6
:100AA000000000C000C0400040C04000C040C00086
:100AB000C040C040C000C040C000000000000000B6
:100AC000000000000000C04000C000C000C040C0E6
:100AD00000C000C000C000C000C000C04000000056
:100AE0000000000000000000000000000000000006
:100AF00000000000070106000701070007000507C6
:100B000000070500000000000000000000000007D2
:100B1000010700030403000704070007000704039C
:100B20000004030000050700000700000704070099
:100B30000700030007000702030000000000000098
:100B40000000000000000507000704070007010679
:100B5000000304030007000304030007050000006E
:100B60000000000000000000000000000000000085
:100B7000000000000000000000FFFFFF0000000078
:100B80000000000000000000000000000000000065
:100B90000000000000000000000000000000000055
:100BA000000000FFFFFF0000000000000000000048
:100BB0000000000000000000000000000000000035
:100BC0000000000000000080000000000000BC00E9
:100BD0000000000000000000000000000000000015
:100BE0000000000000000000000000000000000005
:100BF0000000000000000000004727470000000040
:100C000000000000000000000000000000000000E4
:100C100000000000000000000000E0E0E00000A094
:100C2000400000070707000000000000000000006F
:100C300000000000000000000000000000000000B4
:100C4000000000000000E0EBE000A04000FCFCFC25
:100C50000000000000000000000000000000000094
:100C6000000000000000000000FFFFFFFFFFFFFF8B
:100C7000FFFFFFFFFFFFFFFFFFFFFFFFFFFFFF0D76
:100C80000B0DFFFFFFFFFFFFFFFFFFFFFFFFFFFF5A
:100C9000FFFFFFFFFFFFFFFFFFFFFFFFFFFFFFFF64
:100CA000FFFFFFFFFFBFDFBFF808080FFFFFFFFFD9
:100CB000FFFFFFFFFFFFFFFFFFFFFFFFFFFFFFFF44
:100CC000FFFFFFFFFFFFFFFFFFFFFFFFFFFFFFFF34
:100CD000FFFFFF000000FFFDFAFFF828F8FFFFFF0D
:100CE000FFFFFFFFFFFFFFFFFFFFFFFFFFFFFFFF14
:100CF000FFFFFFFFFFFFFFFFFFFFFFFFFFFFFF8083
:100D00008080FFFFFFFFFFFFFFFFFFFFFFFFFFFFF1
:100D1000FFFFFFFFFFFFFFFFFFFFFFFFFFFFFFFFE3
:100D2000FFFFFFFFFFFFFFFFFF808080FFFFFFFF50
:100D3000FFFFFFFFFFFFFFFFFFFFFFFFFFFFFFFFC3
:100D4000FFFFFFFFFFFFFFFFFFFFFFFFFFFFFFFFB3
:100D5000FFFFFFF8F8F8FFFFFFFFFFFCFFFFFFFFBB
:100D6000FFFFFFFFFFFFFFFFFFFFFFFFFFFF3F9FB3
:100D70005F9F3FFF3F1F9F1F3FFFFFFF7FBFFF3F63
:100D8000DF5F9F3FFF3F1F1F1F3FFFFFFFFFFFFF73
:100D9000FFFFFFFFFFFFFFFFFFFFFFFFFFFFFFFF63
:100DA000FFFFFFFFFFFFFFFFFFFFFFFFFFFFFFFF53
:100DB000FFFFFFFFFFFFFFFFFFFFFFFFFFFFFFFF43
:100DC000FFFFFFFFFFFFFFFFFFFFFFFFFFFFFFFF33
:100DD000FFFFFFFFFFFFFFFFFFFFFFFFFFFFFFFF23
:100DE000FFFFFFFFFFFFFFFFFFFFFFFFFFFFF8F722
:100DF000F1F7F8FFF8F1F0F1F8FFFDFEFFFFFFF863
:100E0000F7F5F2F8FFF8F1F2F1F8FFFFFFFFFFFF4F
:100E1000FFFFFFFFFFFFFFFFFFFFFFFFFFFFFFFFE2
:100E2000FFFFFFFFFFFFFFFFFFFFFFFFFFFFFFFFD2
:100E3000FFFFFFFFFFFFFFFFFFFFFFFFFFFFFFFFC2
:100E4000FFFFFFFFFFFFC1D7C7FFA7DFE7FFFFFFE0
:100E5000C7D7C7FFC7D7C1FFC7D7C1FF475707FFCE
:100E6000C7D7C7FFC7D7C7FFFFFFFFFFFFFFFFFFC2
:100E7000FF07F7F7F7F7FF07FFFFFFFFFF07F7F79A
:100E8000F7F7FF07F7F7F7F7FFE7E707E7E7FF07EA
:100E9000F7F7F707FF07F7F7F707FF07F7F7F7F792
:100EA000FF0FF7F7F70FFF07F7F7F707FF07F7F75A
:100EB000F70FFFF7F707F7F7FF07F7F7F707FF0752
:100EC000F7F7F7F7FF07F7F7F707FF07F7F7F70762
:100ED000FF07FFFFFF07FF077FFFFF07FF07F7F78A
:100EE000F70FFFFFFFFFFFFFFFE7E7E7E7E7FFFF82
:100EF000FF00E7E7E7E7FF00FFFFFFFFFF00E7E78F
:100F0000E7E7FF00FFFFFFFFFFFFFF00FFFFFF001E
:100F1000E19979F8FF00FFFFFF00FF00FFFFFFFFEF
:100F2000FF00F9F9F900FF00E19979F8FF00FFFFF0
:100F3000FF00FFFFFF00FFFFFF00FFFFFF00FF00BC
:100F4000FFE7E707FF00E19979F8FF00FFFFFF00E7
:100F5000FF00FFFFFF00FF00FCC33F00FF00FFFF9B
:100F6000FF00FFFFFFE7E7E7E7FFFFFFFFFFFFFFF0
:100F7000FFF0F1F1F1F1FFF0F1F1F1F1FFF0F1F13A
:100F8000F1F1FFF0F1F1F1F1FFFFFFF0FFFFFFF0F2
:100F9000FFFFFEF1FFF0F1F1F1F0FFF0F1F1F1F1FF
:100FA000FFF03FBFBFB0FFB07FFF7EB1FFF0F1F1B8
:100FB000F1F8FFF1F1F0F1F1FFF0F1F1F1F0FFF0F4
:100FC000F1F1F1F0FFF0FFFFFEF1FFF0F1F1F1F0D0
:100FD000FFF0F1F1F1F0FFF0FFFFF8F0FFF0F1F1B9
:100FE000F1F8FFFFFFFFFFFFFFFFFFFFFFFFFFFF26
:100FF000FFFFFFFFFFFFFFFFFFFFFFFFFFFFFFFF01
:10100000FFFFFFFFFFFFFFFFFFFFFFFFFFFFFFFFF0
:10101000FFFFFFFFFFFFFFFFFFFFFFFFFFFFFFFFE0
:10102000F3FCFDFDFDFFF7FBFCF8F7FFFFFFFFFF03
:10103000FFFFFFFFFFFFFFFFFFFFFFFFFFFFFFFFC0
:10104000FFFFFFFFFFFFFFFFFFFFFFFFFFFFFFFFB0
:10105000FFFFFFFFFFFFFFFFFFFFFFFFFFFFFFFFA0
:10106000FFFFFFFFFFFFFFFFFF0000000000000089
:101070000000000000000000000000000000000070
:101080000000000000000000000000000000000060
:101090000000000000000000000000000000000050
:1010A0000000000000000000000000000000000040
:1010B0000000000000000000000000000000000030
:1010C0000000000000000000000000000000000020
:1010D0000000000000000000000000000000000010
:1010E0000000000000000000000000000000000000
:1010F00000000000000000000000000000000000F0
:1011000000000000000000000000000000000000DF
:1011100000000000000000000000000000000000CF
:1011200000000000000000000000000000000000BF
:1011300000000000000000000000000000000000AF
:10114000000000000000000000000000000000009F
:10115000000000000000000000000000000000008F
:10116000000000000000000000000000000000007F
:10117000000000000000000000000000000000006F
:10118000000000000000000000000000000000005F
:10119000000000000000000000000000000000004F
:1011A000000000000000000000000000000000003F
:1011B000000000000000000000000000000000002F
:1011C000000000000000000000000000000000001F
:1011D000000000000000000000000000000000000F
:1011E00000000000000000000000000000000000FF
:1011F00000000000000000000000000000000000EF
:1012000000000000000000000000000000000000DE
:1012100000000000000000000000000000000000CE
:1012200000000000000000000000000000000000BE
:1012300000000000000000000000000000000000AE
:10124000000000000000000000000000000000009E
:10125000000000000000000000000000000000008E
:10126000000000000000000000000000000000007E
:1012700000F80808080800F80000000000F8080856
:10128000080800F808080808001818F8181800F8E6
:10129000080808F800F8080808F800F8080808081E
:1012A00000F0080808F000F8080808F800F8080836
:1012B00008F0000808F8080800F8080808F800F81E
:1012C0000808080800F8080808F800F8080808F8EE
:1012D00000F8000000F800F8800000F800F80808A6
:1012E00008F000000000000000181818181800008E
:1012F00000FF1818181800FF0000000000FF181861
:10130000181800FF00000000000000FF000000FFB0
:101310001E66860700FF000000FF00FF00000000BF
:1013200000FF060606FF00FF1E66860700FF00009E
:1013300000FF000000FF000000FF000000FF00FFB2
:10134000001818F800FF1E66860700FF000000FF67
:1013500000FF000000FF00FF033CC0FF00FF000093
:1013600000FF00000018181818000000000000001E
:10137000000F0E0E0E0E000F0E0E0E0E000F0E0EB4
:101380000E0E000F0E0E0E0E0000000F0000000FDC
:101390000000010E000F0E0E0E0F000F0E0E0E0EAF
:1013A000000FC040404F004F8000814E000F0E0ED6
:1013B0000E07000E0E0F0E0E000F0E0E0E0F000F7A
:1013C0000E0E0E0F000F0000010E000F0E0E0E0F7E
:1013D000000F0E0E0E0F000F0000070F000F0E0E75
:1013E0000E070000000000000000000000000000E8
:1013F00000000000000000000000000000000000ED
:1014000000000000000000000000000000000000DC
:1014100000000000000000000000000000000000CC
:101420000C03020202000804030708000000000089
:1014300000000000000000000000000000000000AC
:10144000000000000000000000000000000000009C
:10145000000000000000000000000000000000008C
:10146000000000000000000000FFFFFFFFFFFFFF83
:10147000FFFFFFFFFFFFFFFFFFFFFFFFFFFFFFFF7C
:10148000FFFFFFFFFFFFFFFFFFFFFFFFFFFFFFFF6C
:10149000FFFFFFFFFFFFFFFFFFFFFFFFFFFFFFFF5C
:1014A000FFFFFFFFFFFFFFFFFFFFFFFFFFFFFFFF4C
:1014B000FFFFFFFFFFFFFFFFFFFFFFFFFFFFFFFF3C
:1014C000FFFFFFFFFFFFFFFFFFFFFFFFFFFFFFFF2C
:1014D000FFFFFFFFFFFFFFFFFFFFFFFFFFFFFFFF1C
:1014E000FFFFFFFFFFFFFFFFFFFFFFFFFFFFFFFF0C
:1014F000FFFFFFFFFFFFFFFFFFFFFFFFFFFFFFFFFC
:10150000FFFFFFFFFFFFFFFFFFFFFFFFFFFFFFFFEB
:10151000FFFFFFFFFFFFFFFFFFFFFFFFFFFFFFFFDB
:10152000FFFFFFFFFFFFFFFFFFFFFFFFFFFFFFFFCB
:10153000FFFFFFFFFFFFFFFFFFFFFFFFFFFFFFFFBB
:10154000FFFFFFFFFFFFFFFFFFFFFFFFFFFFFFFFAB
:10155000FFFFFFFFFFFFFFFFFFFFFFFFFFFFFFFF9B
:10156000FFFFFFFFFFFFFFFFFFFFFFFFFFFFFFFF8B
:10157000FFFFFFFFFFFFFFFFFFFFFFFFFFFFFFFF7B
:10158000FFFFFFFFFFFFFFFFFFFFFFFFFFFFFFFF6B
:10159000FFFFFFFFFFFFFFFFFFFFFFFFFFFFFFFF5B
:1015A000FFFFFFFFFFFFFFFFFFFFFFFFFFFFFFFF4B
:1015B000FFFFFFFFFFFFFFFFFFFFFFFFFFFFFFFF3B
:1015C000FFFFFFFFFFFFFFFFFFFFFFFFFFFFFFFF2B
:1015D000FFFFFFFFFFFFFFFFFFFFFFFFFFFFFFFF1B
:1015E000FFFFFFFFFFFFFFFFFFFFFFFFFFFFFFFF0B
:1015F000FFFFFFFFFFFFFFFFFFFFFFFFFFFFFFFFFB
:10160000FFFFFFFFFFFFFFFFFFFFFFFFFFFFFFFFEA
:10161000FFFFFFFFFFFFFFFFFFFFFFFFFFFFFFFFDA
:10162000FFFFFFFFFFFFFFFFFFFFFFFFFFFFFFFFCA
:10163000FFFFFFFFFFFFFFFFFFFFFFFFFFFFFFFFBA
:10164000FFFFFFFFFFFFFFFFFFFFFFFFFFFFFFFFAA
:10165000FFFFFFFFFFFFFFFFFFFFFFFFFFFFFFFF9A
:10166000FFFFFFFFFFFFFFFFFF080B00020202006A
:101670000009040000010202000005240010010519
:101680002401010104240206052406000107058146
:101690000310004009040100020A000000070502CF
:1016A0000240000007058302400000040309041201
:1016B000010002EF020140412336800001010203D4
:1016C0000141726475696E6F204C4C430041726435
:1016D00075626F79000062143B1B11241FBECFEFAF
:1016E000DAE0DEBFCDBF11E0A0E0B1E0EAEAF1E46C
:1016F00002C005900D92A03CB107D9F72AE0A0ECFA
:10170000B1E001C01D92A934B207E1F71BE0CCE6BD
:10171000DBE004C02197FE010E94D01ECB36D1072A
:10172000C9F70E94E6140C94C8200C940000E7EF5F
:10173000F1E0A0E0B8E000800EBC8111012C11970F
:10174000A0FDFDCF0192B9F70DB408954F925F92BD
:101750006F927F928F929F92AF92BF92CF92DF92C1
:10176000EF92FF920F931F93CF93DF93FB01E00F54
:10177000F11D1E161F060CF08AC0603471050CF0B6
:1017800086C0DB0177FF04C0AA27BB27A61BB70BC7
:10179000A770BB27EB0177FD2796E3E0D595C795AA
:1017A000EA95E1F777FF07C0219768E070E0FB0159
:1017B000EA1BFB0BDF0130E0069506950695802EAF
:1017C000912C8A01AE015695542F44275795479581
:1017D000480F591F49505E4FBE01E0E8F0E07F011D
:1017E000E81AF90A88E090E03C016A1A7B0A6F3F28
:1017F000FFEF7F070CF43BC090E080E05A01E0E887
:10180000AE0EB11C6F3F760709F452C0FC01E00F29
:10181000F11FE4916A01C80ED91EF0E02F010A2ED3
:1018200001C0440C0A94EAF7F60150804528408232
:101830001097B1F06730710599F0F801E80FF91FC2
:10184000E4916501C80ED91EF0E02F01062C02C0FC
:10185000559447940A94E2F7F60150804528408257
:101860000196821793071CF4E816F90659F66F5F84
:101870007F4F020F131F40585F4FCB018C1B9D0BF6
:101880008815990524F46830710509F0B0CFDF910F
:10189000CF911F910F91FF90EF90DF90CF90BF906D
:1018A000AF909F908F907F906F905F904F90089532
:1018B000109709F0C2CFD4CFFC018091F6018823A4
:1018C00011F13FB7F89482E08093E9002091F20093
:1018D000822F90E01816190614F481E090E0882316
:1018E00039F0289844E64093F5014091F100408397
:1018F000222339F02091F200211103C02BE620931E
:10190000E8003FBF08958FEF9FEF08952FB7F89439
:1019100083E08093E9009091E800892F807295FF21
:1019200004C09091F20080E4891B2FBF089580913C
:10193000ED0181110DC082E08093E90184E0809384
:10194000EA011092EC011092EB0181E08093ED012D
:1019500089EE91E00895CF93DF931F92CDB7DEB764
:101960006983DC01ED91FC910280F381E02D41E07F
:1019700050E0BE016F5F7F4F09950F90DF91CF91CF
:10198000089583E08093E9008091F200882319F0A4
:101990008AE38093E80008950E94860C90E0089501
:1019A000CF93DF931F92CDB7DEB7FC018485958579
:1019B00097FD08C02FEF3FEF358724870F90DF9109
:1019C000CF910895CE0101960E945C0C019719F405
:1019D000898190E0F3CF8FEF9FEFF0CF0F931F93AC
:1019E000CF93DF931F92CDB7DEB78C01FC018485C6
:1019F000958597FF0BC0CE0101960E945C0C019764
:101A000071F4898190E0F80195878487F8018485D5
:101A100095850F90DF91CF911F910F9108958FEFD2
:101A20009FEFF1CFFC018485958597FD0BC09FB793
:101A3000F89482E08093E9008091F2009FBF90E0EB
:101A4000019608959FB7F89482E08093E900809111
:101A5000F2009FBF90E008954091E3015091E401AE
:101A60002091E1013091E20142175307B4F49091C3
:101A7000E8009570E1F39091E80092FD19C0809321
:101A8000F1008091E3019091E40101968F73992711
:101A9000892B19F48EEF8093E8008091E3019091F7
:101AA000E40101969093E4018093E30181E00895BD
:101AB00080E00895DF92EF92FF920F931F93CF93F0
:101AC000DF93D82E8A01EB017B01E40EF51ECE15C3
:101AD000DF0559F0D7FE12C0FE0184910E942C0D43
:101AE00021968111F4CF0FEF1FEFC801DF91CF9145
:101AF0001F910F91FF90EF90DF9008958881EECFB6
:101B00000F931F93CF93DF931F92CDB7DEB782E081
:101B1000898342E450E069E676E180E80E945A0D4C
:101B20000E94970CDC0112960D911C910115110574
:101B300089F0D801ED91FC910280F381E02DBE0186
:101B40006F5F7F4FC801099597FD04C0F8010085BC
:101B50001185ECCF89810F90DF91CF911F910F916B
:101B60000895615030F02091F100FC01208301962E
:101B7000F8CF289884E68093F50108953FB7F8944C
:101B80008091DD019091DE01A091DF01B091E00133
:101B900026B5A89B05C02F3F19F00196A11DB11DC8
:101BA0003FBFBA2FA92F982F8827BC01CD01620F04
:101BB000711D811D911D42E0660F771F881F991FBF
:101BC0004A95D1F708958F929F92AF92BF92CF928C
:101BD000DF92EF92FF926B017C010E94BE0D4B01E0
:101BE0005C01C114D104E104F104B9F00E94BE0DFE
:101BF000681979098A099B09683E73408105910536
:101C000080F321E0C21AD108E108F10888EE880EBD
:101C100083E0981EA11CB11CE4CFFF90EF90DF90F1
:101C2000CF90BF90AF909F908F9008958F929F928A
:101C3000AF92BF92CF92DF92EF92FF920F931F93DA
:101C4000CF93DF936C017B018A0180910E01882381
:101C500009F45CC08091F601882309F457C0809193
:101C6000E80180FF05C08091E00082608093E00081
:101C7000E801B12C8AEFA82E93E0892E2AE3922E58
:101C8000209711F4BB20D9F10E94860C81110AC063
:101C9000AA94AA20D9F161E070E080E090E00E946F
:101CA000E30DEECF8C171D0611F00CF08C2F9FB7B3
:101CB000F8948092E9002091E80025FD02C09FBFC2
:101CC000DFCF282F30E0C21BD30BF701815020F06B
:101CD00041914093F100FACFE20EF31EBB2021F0B8
:101CE0009092E800B12CEBCF8091E80085FDE7CF22
:101CF0009092E800BB24B394209709F3F3CF5D984A
:101D000084E68093E701101611063CF081E090E034
:101D1000F6019383828310E000E0C801DF91CF9148
:101D20001F910F91FF90EF90DF90CF90BF90AF90F9
:101D30009F908F900895AF92BF92CF92DF92EF92D3
:101D4000FF920F931F93CF93DF936C017B018B0165
:101D5000040F151FEB015E01AE18BF08C017D107B5
:101D600059F06991D601ED91FC910190F081E02D3F
:101D7000C6010995892B79F7C501DF91CF911F9194
:101D80000F91FF90EF90DF90CF90BF90AF900895AC
:101D90002D9A0895BC0190E080E00C94E30D8FB182
:101DA0008095807F669B88601C9B8460089520E1FD
:101DB00091E061FD94E060FD990F62FD9295687F6E
:101DC000269FD0011124A80FA950BE4F8C9140FF2F
:101DD00003C0892B8C93089590958923FBCF6F9234
:101DE0007F928F929F92AF92BF92CF92DF92EF92AB
:101DF000FF920F931F93CF93DF936D3089F0C090C4
:101E0000D301D090D4016A30E1F41092D201109243
:101E1000D10188E0C80ED11CD092D401C092D30168
:101E200081E090E0DF91CF911F910F91FF90EF90B3
:101E3000DF90CF90BF90AF909F908F907F906F90EA
:101E4000089560900201E090D101F090D201E5E0A8
:101E50006E9FE0011124C455DF4F570100E010E0F0
:101E6000053029F0CE010196FE011491EC014601E6
:101E700088E0782E412F417010FD23C0662061F06C
:101E8000F0E8AF16B10440F480E48816910420F421
:101E9000B401C5010E94D70E16957A94EFEF8E1A01
:101EA0009E0A7110E7CF0F5FFFEFAF1ABF0A06302F
:101EB000B1F686E0E80EF11CF092D201E092D10179
:101EC000AFCF462DDDCF9091D501982329F4909185
:101ED000D601982381E009F480E00895CF93C82FBC
:101EE0000E94CF0E982F9C2381E09C1380E0CF911D
:101EF000089580E00C94970B8F929F92AF92BF92BF
:101F0000CF92DF92EF92FF920F93CF93DF935B011B
:101F1000EC014C01840E911C6B01C20ED11CC81542
:101F2000D905ECF47501B7FE02C0F12CE12CC60115
:101F300021E4C216D10414F080E490E0E816F9061A
:101F400064F4C038D1052CF4402FB701CE010E94B3
:101F5000D70E8FEFE81AF80AEACF2196E0CFDF918B
:101F6000CF910F91FF90EF90DF90CF90BF90AF9007
:101F70009F908F9008958091CE0190910101909350
:101F8000CE0180930101E3E5F6E081E090E010826C
:101F9000928381831482138235962AE0EB33F20711
:101FA000B1F71092C8011092C70182E08093D70167
:101FB0000895EF92FF920F931F93CF93DF93282FF3
:101FC000C091C701D091C801E3E5F6E0B0E0A0E020
:101FD00080E030E08901055011092B5F3F4FEE246E
:101FE000FF24E61AF70AAC17BD079CF44181528121
:101FF0004617570759F4408150E04017510734F015
:10200000241735071CF0F282E18281E011963596A3
:10201000EACFDF91CF911F910F91FF90EF9008953C
:102020000F930091CE0120E240E870E060E090E084
:1020300080E00E947C0F0091010120E240E860E214
:1020400070E090E080E00E947C0F0F910895109264
:10205000C5011092C40185E08093C6011092CA01A7
:102060001092C9011092CC011092CB01E7E4F6E086
:1020700081E090E0918380838FE790E09383828377
:10208000148224E325832FEF3FEF37832683918744
:10209000808712868CE483870895089590E080E01D
:1020A00008958F929F92AF92BF920F931F93CF93F9
:1020B000DF93CDB7DEB7A1970FB6F894DEBF0FBEA2
:1020C000CDBF19A2423008F44AE08E010F5D1F4FC8
:1020D000842E912CB12CA12CA50194010E94621D8B
:1020E000E62FB901CA01EA3044F5E05DD801EE936C
:1020F0008D01232B242B252B79F790E080E010977E
:1021000069F0FD0101900020E9F73197AF014A1B0A
:102110005B0BBD0181E49AE00E949B0EA1960FB675
:10212000F894DEBF0FBECDBFDF91CF911F910F910D
:10213000BF90AF909F908F900895E95CD7CFCF92DA
:10214000DF92EF92FF92CF93DF936C01990FEE082D
:10215000FF08F7FE19C06DE281E49AE00E94EF0EDD
:10216000EC0166277727CB016C197D098E099F0941
:102170004AE00E9451108C0F9D1FDF91CF91FF907C
:10218000EF90DF90CF9008954AE0C701B601DF914C
:10219000CF91FF90EF90DF90CF900C945110FC0105
:1021A00001900020E9F73197AF01481B590BBC01A2
:1021B00081E49AE00C949B0ECF93DF93EC01809125
:1021C0003B0A90913C0A009759F020913D0A3091CA
:1021D0003E0A2C173D0720F081E0DF91CF91089552
:1021E000BE016F5F7F4F0E94FB1F009789F09093A5
:1021F0003C0A80933B0AD0933E0AC0933D0A20914B
:102200003F0A3091400A232B39F7FC011082E4CFBA
:1022100080E0E3CF0F931F93CF93DF938C01EC010A
:1022200009900020E9F72197C81BD90BCE010E9425
:10223000DC1020913B0A30913C0A811117C0211516
:10224000310519F0C9010E94721F10923C0A1092C8
:102250003B0A1092400A10923F0A10923E0A1092D6
:102260003D0ADF91CF911F910F910895D093400ABD
:10227000C0933F0AB801C901DF91CF911F910F911F
:102280000C94C1200C94E31C1F920F920FB60F9276
:1022900011248F939F938091E1009091E100937FAF
:1022A0009093E10083FF0FC01092E90091E09093BA
:1022B000EB001092EC0092E39093ED001092F60187
:1022C00098E09093F00082FF22C093E09093E900A1
:1022D0009091F200992319F09AE39093E80090917D
:1022E000E701992341F09091E70191509093E70124
:1022F000911101C05D9A9091F501992341F090915F
:10230000F50191509093F501911101C0289A84FF35
:1023100018C08091E2008E7E81608093E2008091FF
:10232000E1008F7E8093E1008091E8018E7E8061E4
:102330008093E8019F918F910F900FBE0F901F9097
:10234000189580FFF7CF8091E2008E7E80618093A8
:10235000E2008091E1008E7E8093E1008091E801AF
:102360008E7E8160E5CF1F920F920FB60F921124DF
:10237000CF92DF92EF92FF920F931F932F933F9391
:102380004F935F936F937F938F939F93AF93BF937D
:10239000EF93FF93CF93DF93CDB7DEB76C97DEBF9C
:1023A000CDBF1092E9008091E80083FF25C068E06E
:1023B000CE0145960E94B10D82EF8093E8008D8991
:1023C00087FF39C09091E80090FFFCCF982F90765E
:1023D00009F034C19E894F89588D2F89F88C91114D
:1023E00031C0803861F58091E6018093F100109250
:1023F000F1008EEF8093E8006C960FB6F894DEBF84
:102400000FBECDBFDF91CF91FF91EF91BF91AF9103
:102410009F918F917F916F915F914F913F912F91FC
:102420001F910F91FF90EF90DF90CF900F900FBE14
:102430000F901F9018959EEF9093E800C7CF1092D1
:10244000F100D5CF913059F48111D3CF41305105EE
:1024500081F68091E6018D7F8093E601CACF9330AB
:1024600049F48111C6CF4130510519F68091E6013A
:102470008260F2CF953041F48091E80080FFFCCF7C
:1024800020682093E300B5CF963009F0A9C00B8DEA
:102490001C8D22E01092E9001092E4011092E301F9
:1024A000F2122EC01092E2011092E1010E94800D02
:1024B0001F8299E09983FA8291E09E8390EA98873F
:1024C0009AEF99872091E3013091E401275F3F4F14
:1024D0003C832B838D831092E9001092E4011092CB
:1024E000E3011093E2010093E10149E050E0BE01F5
:1024F0006F5F7F4F80E00E945A0D0E94800D79CF60
:102500001093E2010093E1010E94970CDC01129606
:102510000D911C910115110509F451C1D801ED91DE
:10252000FC910480F581E02DBE016B5E7F4FC801F8
:102530000995009709F03EC1F80100851185EACFA1
:10254000F3E0FF120EC08F89882309F440C0823067
:1025500061F440E867E08DEC96E10E942F14811150
:1025600048CF81E28093EB0047CF813029F440E8E7
:102570006BE081EC96E1F1CF833099F70E94970CE4
:10258000DC011296ED90FC908E010F5F1F4F6801E9
:10259000E114F10479F0D701ED91FC910680F78107
:1025A000E02DB801C7010995080F111DF701E0845E
:1025B000F184EECFD8011C92F60101900020E9F7DA
:1025C0003197BF016C197D0940E0C601C6CF6BEAA7
:1025D00076E1FB01449150E080E80E945A0D09CF5A
:1025E000973009F4BECF983021F481E08093F10058
:1025F00000CF993009F0FDCE837009F0B2CFE6E547
:10260000F1E081E031E096E32191222371F08093A3
:10261000E9003093EB00DF0111972C912093EC003F
:102620009093ED008F5F873079F78EE78093EA0013
:102630001092EA008F898093F601DBCE8B8D9C8D02
:102640001092E9001092E4011092E3019093E201EC
:102650008093E101898D811192C08E899D89913A83
:1026600049F4813209F07DCF47E050E067E071E046
:1026700080E0B3CF913209F074CF833269F48F894F
:10268000988DB0E0A0E08093030190930401A093A3
:102690000501B0930601ADCE803269F48091E80067
:1026A00082FFFCCF67E087E091E00E94B10D8BEFE5
:1026B0008093E8009ECE823209F09BCE8F89809372
:1026C0000E01EEEFFFE7859194918B3F9C4D51F108
:1026D000E0E0F8E08091070190910801A0910901E4
:1026E000B0910A01803B9440A105B105F1F48091BD
:1026F0000E0180FD1AC0EE3F8AE0F80789F587E7F2
:1027000097E791838083809160008093E50188E161
:102710009BE00FB6F894A895809360000FBE90934D
:10272000600067CEEEEFFAE0D5CF808191818737E8
:10273000974709F05ECEA8958091600088618093EC
:1027400060008091E50180936000EE3F2AE0F2078F
:1027500089F08091FE0A9091FF0A9183808349CE8F
:10276000808191818737980751F29093FF0A809377
:10277000FE0AC5CF1092FF0A1092FE0A3ACE0E94BE
:10278000970CDC0112960D911C910115110509F4AD
:10279000E8CED801ED91FC910190F081E02DBE01D1
:1027A0006B5E7F4FC8010995811123CEF80100852A
:1027B0001185EBCF181619060CF41BCED2CEF1E022
:1027C000FF12BECE6FEA76E104CF1F920F920FB6D2
:1027D0000F9211242F933F938F939F93AF93BF93A7
:1027E0008091D9019091DA01A091DB01B091DC01D7
:1027F0003091D80123E0230F2D3758F50196A11D04
:10280000B11D2093D8018093D9019093DA01A09350
:10281000DB01B093DC018091DD019091DE01A0919C
:10282000DF01B091E0010196A11DB11D8093DD0192
:102830009093DE01A093DF01B093E001BF91AF91CF
:102840009F918F913F912F910F900FBE0F901F90EE
:10285000189526E8230F0296A11DB11DD2CFEF9245
:10286000FF920F931F93CF93DF93F82E192FE62E2D
:10287000042F81E0860F880F0E942C0D83E00E94B8
:102880002C0DCF2DD12FEC0EFD2EF11CCE15DF051A
:10289000B9F007FF13C0FE0184910E942C0D182F80
:1028A00080E00E942C0D812321968111EFCFDF91D2
:1028B000CF911F910F91FF90EF9008958881EDCFF8
:1028C00081E0F5CF1092FA051092F90588EE93E0B9
:1028D000A0E0B0E08093FB059093FC05A093FD057C
:1028E000B093FE0580E691E09093F8058093F7059C
:1028F0008FEF9FEF90930406809303061092440A93
:102900001092430A82E791E09093420A8093410A31
:1029100010923C0A10923B0A10923E0A10923D0A15
:102920001092400A10923F0A85E090E00E94DC106D
:1029300020913B0A30913C0A81113CC021153105A0
:1029400019F0C9010E94721F10923C0A10923B0AB2
:102950001092400A10923F0A10923E0A10923D0ACD
:10296000E3E5F6E02BE33AE081E090E01082928329
:1029700081831482138235962E173F07B9F79093FF
:102980004806809347062FE730E030934A062093AD
:10299000490610924B0610924C0690934E06809377
:1029A0004D063093500620934F0610925106109218
:1029B0005206089585E090E09093400A80933F0A84
:1029C0006AE771E0C9010E94C120CACFCF93DF93AB
:1029D00000D01F92CDB7DEB7789484B5826084BDF5
:1029E00084B5816084BD85B5826085BD85B5816013
:1029F00085BD80916E00816080936E001092810091
:102A0000809181008260809381008091810081604B
:102A1000809381008091800081608093800080910C
:102A200091008260809391008091910081608093F9
:102A30009100809190008160809390008091C1000E
:102A400084608093C1008091C10082608093C10046
:102A50008091C10081608093C1008091C30081603A
:102A60008093C3008091C00082608093C0008091F9
:102A7000C20081608093C20080917A00846080935C
:102A80007A0080917A00826080937A0080917A0047
:102A9000816080937A0080917A00806880937A00C8
:102AA0001092F6011092E6011092E8018091D70091
:102AB00081608093D70080EA8093D80089B58061D7
:102AC00089BD89B5826089BD09B400FEFDCF61E092
:102AD00070E080E090E00E94E30D8091D8008F7C50
:102AE00080618093D8008091E000807F8093E00037
:102AF0008091E1008E7E8093E1008DE08093E20082
:102B0000559A209A0E94271081EC80937C0085B111
:102B1000806F85B984B1877E84B984B1876E84B9AA
:102B20005E9A5F988AB1806D8AB9769A6E9881B301
:102B3000806F81BB899880B38D7080BB80E58CBD30
:102B400081E08DBD85E090E00E94CA0E5F9A85E02D
:102B500090E00E94CA0E5E985C98ECE5F6E089E68B
:102B600096E024912EBD00000DB407FEFDCF3196F6
:102B70008E179F07B1F75C9A81E88093640080917B
:102B800065008160809365000E94790F80E80E9453
:102B90006E0F8823A9F05C9885EA8EBD00000DB405
:102BA00007FEFDCF5C9A2E982F982D988091640097
:102BB00080628093640081E083BF889513BEFCCF60
:102BC00084E00E946E0F882309F448C02D9884E8A1
:102BD0000E946E0F8823E1F00E94C80E88EC90E0FE
:102BE0000E94CA0E2F9882E090E00E94E31C8F3F63
:102BF00029F06FEF82E090E00E94EB1C84EF91E0FF
:102C00000E94CA0E2F9A84E80E946E0F8111FBCF9A
:102C100084E10E946E0F8823E1F00E94C80E88ECC8
:102C200090E00E94CA0E2E9882E090E00E94E31C81
:102C3000882329F060E082E090E00E94EB1C84EFA2
:102C400091E00E94CA0E2E9A84E10E946E0F8111BB
:102C5000FBCF88EC90E00E94CA0EB2CF0E94C80E53
:102C600082E090E00E944211882309F47DC03E9AE0
:102C70003F9A81E090E00E944211182F147081FF6A
:102C800010C011112E9821EF3FEF3B832A8380E47F
:102C90000E946E0F882309F46AC02E9A2F9A0E9410
:102CA000C80E82E390E00E94CA0E0E94CF0E8111EE
:102CB000F8CF80E180930001809164008E7F809343
:102CC000640080917A00806480937A0080917A0019
:102CD00086FDFCCF00917800109179000E94BE0D16
:102CE000AB01BC01C801B0E0A0E0DC019927882756
:102CF0008C019D01040F151F261F371FC901B80144
:102D000020916400216020936400611571058105A4
:102D1000910511F00E94DF1B87EF482E81E0582EAD
:102D20009BE3E92E9AE0F92E22E0822E912CA12C31
:102D3000B12C15E08FB7F8944091D9015091DA0188
:102D40006091DB017091DC018FBF0091C2010983AA
:102D5000002309F472C01092C20180E090E0892B38
:102D600049F30E940000E5CF3E983F9882CF11239F
:102D700039F04A815B814430510511F42E9A2F9825
:102D800081E00E94970B00E128E54CEA55E06A815A
:102D90007B8184E190E00E94A60B0E94790F8FE076
:102DA00090E00E94CA0E8A819B8101969B838A8350
:102DB000499709F06CCF112311F02F9A2D9880E9D3
:102DC00091E00E94CA0E0E94C80E81E090E00E942D
:102DD000421180FF66CF8AE090E00E9442119FEF8F
:102DE000980F9E3F08F05DCF22E330E03093D20190
:102DF0002093D10128E330E03093D4012093D30114
:102E00000BE010E01B830A83682F81E49AE00E94A4
:102E1000EF0E8A819B810E9442110A811B810F5F04
:102E20001F4F1B830A830131110571F70E94790F2F
:102E300088EE93E00E94CA0E34CF8091C301242F04
:102E4000281B822F90910001291748F48F5F891762
:102E500008F083CF81E083BF889513BE7ECF81E0E9
:102E60008093C2014093C3018091C0019091C10140
:102E700001969093C1018093C0018091D601809307
:102E8000D5010E94CF0E8093D601F2013981311114
:102E90003FEF002431933193319331930394D1F771
:102EA0001092D4011092D3011092D2011092D1014C
:102EB0008091D701813009F4B1C048F0823009F423
:102EC00049C3833009F49AC30E94790F46CF80E446
:102ED0000E94630F882369F08091CF019091D00107
:102EE0000196833091050CF067C09093D0018093D8
:102EF000CF0180E20E94630F882359F08091CF01B7
:102F00009091D001019797FD5CC09093D001809380
:102F1000CF014091CF015091D0015B834A83D09083
:102F2000CE0100E420E84230510509F465C049E6CD
:102F300052E1DD2011F049E65EE070E060E090E0F3
:102F400080E00E94A60B8A819B81892BE9F5109273
:102F5000CD0187E190E09093D2018093D1018CE282
:102F600090E09093D4018093D301D092020180E845
:102F700091E00E94CF1088E00E94630F811110C081
:102F800080E10E94630F81110BC084E00E94630FF7
:102F9000811106C080E80E94630F882309F494CF52
:102FA0008091CF019091D001029799F10E94271052
:102FB00081E08093D70188CF1092D0011092CF0189
:102FC00098CF82E090E0A1CFEA81FB81319799F61A
:102FD00081E08093CD0187E190E09093D2018093CE
:102FE000D1018CE290E09093D4018093D301D092F0
:102FF00002018FE891E0BDCF49E65AE0DD2011F0F3
:1030000049E656E070E060E090E080E00E94A60BA8
:10301000B2CF1092D0011092CF0156CF0E94101063
:1030200088E00E946E0F811128C080E80E946E0F18
:10303000811123C080E20E946E0F81111EC0809119
:103040004B06811156C06091490670914A066F3750
:10305000710514F5072E000C880B990B0E94EA1BD2
:1030600020E030E040E050E40E94941D0E94721E77
:1030700070934A06609349060FC081E080934B0627
:103080008091490690914A06181619062CF4049767
:1030900090934A068093490684E00E946E0F811146
:1030A00034C080E10E946E0F81112FC080E40E9425
:1030B0006E0F81112AC08091510681112FC160913C
:1030C0004F06709150066F37710574F5072E000C8E
:1030D000880B990B0E94EA1B20E030E040E050E4AE
:1030E0000E94941D0E94721E7093500660934F06BA
:1030F0001BC010924B066091470670914806809164
:103100004C0690E00E94D90F9ECF81E0809351063B
:1031100080914F0690915006181619062CF40497CA
:103120009093500680934F068091D7018130A1F48F
:103130008091490690914A06181619063CF4809130
:103140004F06909150061816190634F08EE991E05A
:103150000E940A110E94BB0F6091490670914A06B5
:10316000072E000C880B990B0E94EA1B20E030E030
:103170004EEF52E40E94001E20E030E040ED51E4AA
:103180000E94251C0E94721E20914B060AEF02032A
:1031900090011124E0E2F0E0E61BF70BE20FF31FD1
:1031A00030914C0600910101262F46E0BF01832F8C
:1031B00090E00E947C0F60914F0670915006072EA0
:1031C000000C880B990B0E94EA1B20E030E04EEFC8
:1031D00052E40E94001E20E030E040ED51E40E94E5
:1031E000251C0E94721E262F6091510636E0639FB7
:1031F000B0011124605E7F4F809152060091CE0194
:1032000046E090E00E947C0F8091CD01E091C901E1
:10321000F091CA012091CB013091CC01813009F0AD
:1032200092C0CF0168ED7FEF0E94BC1E6B5F6330E0
:1032300008F480C06093C6016091C60146E0649FB7
:10324000B0011124C9010E94A81E892BC9F50E9452
:10325000901BA50194010E94F91C672B682B692B18
:1032600009F06CC081E090E09B838A830E94901BF0
:10327000A50194010E94F91C21E030E040E0672B99
:10328000682B692B19F02FEF3FEF4FE78091C701B3
:103290009091C801883C91059CF4189FF001199FFA
:1032A000F00D1124ED5AF94F40834A815B8152831E
:1032B00041833483238301969093C8018093C7018F
:1032C00090E080E02091C7013091C80182179307F8
:1032D0000CF09DC0189FD001199FB00D1124AD5A5C
:1032E000B94F4C9113965C911397450F4C9347FF40
:1032F00013C021503109129FF001139FF00D1124CA
:10330000ED5AF94F45E001900D924A95E1F730935F
:10331000C8012093C70101970196D4CF109251069E
:1033200060914D0670914E068091520690E00E9489
:10333000D90FC5CE83E08093C6017ECFEFEFFFEFBC
:10334000FB83EA8393CF8111BBCFC90164E270E0B4
:103350000E94A81E892B09F042C08091C40190915F
:10336000C5018E319105D8F5DC01A95CBE4F2C91C9
:10337000222381F161E070E0213011F06FEF7FEFE7
:10338000DC01A75EBE4F4C91042E000C550B413062
:10339000510509F0A9C019822091C7013091C801D7
:1033A000283C3105BCF4129FD001139FB00D1124AD
:1033B000AD5AB94F09810C9312967C936E93119775
:1033C00014965C934E9313972F5F3F4F3093C80131
:1033D0002093C70101969093C5018093C401E83CF6
:1033E000F1050CF46DCFE3E5F6E0108221E030E06A
:1033F00032832183148213823596EE16FF06A9F7D5
:103400001092C8011092C70183E08093D70143E571
:1034100056E05B834A8380914C0690E0AC014450B7
:1034200051090496A0914706B091480600914B06B9
:1034300060905206712C1301E4E02E1A3108F4E07A
:103440006F0E711CC0904D06D0904E062091510613
:103450002983E3E5F6E0208130E02417350754F0B6
:10346000281739073CF461817281A617B70711F458
:10347000002371F022153305D4F126153705BCF56C
:10348000218132812C153D0591F5398131112FC0F3
:1034900085EA91E00E940A110E94BB0FD12CC12C39
:1034A000009101018091C7019091C801C816D90609
:1034B00024F5EA81FB8181819281019709F0D7C0CF
:1034C0006AE170E0EA81FB81808126E046E090E0DD
:1034D0000E947C0FFFEFCF1ADF0A2A813B812B5F0E
:1034E0003F4F3B832A83DCCF0FE7098355CF3596C7
:1034F000EE16FF0609F0AFCFD1CF8091CB019091AE
:10350000CC0166E070E00E94A81E892B49F48091EE
:10351000C9019091CA0101969093CA018093C90193
:103520001092D2011092D1011092D4011092D301C5
:10353000009302018091C9019091CA010E949F10DD
:103540008091CB019091CC0101969093CC01809316
:10355000CB01BACC0E94101040E350E05093D2014E
:103560004093D1018BE090E09093D4018093D301FC
:10357000809101018093020140913F0A5091400ADD
:1035800060913B0A70913C0A81E49AE00E949B0E94
:1035900080E390E09093D2018093D1018CE290E09F
:1035A0009093D4018093D3018091CE018093020146
:1035B00040913F0A5091400A60913B0A70913C0A49
:1035C00081E49AE00E949B0E1092D2011092D101E8
:1035D0001092D4011092D3018091010180930201D5
:1035E0008091C9019091CA010E949F1088E00E94B9
:1035F000630F882361F11092D70166CC0E941010EE
:10360000EBE0F0E0F093D201E093D101F093D4012C
:10361000E093D30180910101809302018CEA91E053
:103620000E94CF102BE030E03093D2012093D101E3
:103630008CE290E09093D4018093D3018091CE01ED
:10364000809302018CEA91E00E94CF10CFCF80E1FD
:103650000E94630F8111CFCF84E00E94630F81111C
:10366000CACF80E80E94630F8111C5CF2DCC009195
:10367000CE0160E226CF80913B0A90913C0A0097F0
:1036800011F00C94721F08958F929F92AF92BF9287
:10369000CF92DF92EF92FF92CF93DF93EC0168819C
:1036A00079818A819B81611571058105910521F4DC
:1036B00064E279ED8BE597E02DE133EF41E050E0F6
:1036C0000E94F91C49015A019B01AC01A7EAB1E42F
:1036D0000E94181D6B017C01ACEEB4EFA5019401B2
:1036E0000E94261DC60ED71EE81EF91EF7FE06C054
:1036F00081E0C81AD108E10880E8F80AC882D982B6
:10370000EA82FB82C701B6019F77DF91CF91FF90DC
:10371000EF90DF90CF90BF90AF909F908F900895E3
:103720008F929F92AF92BF92CF92DF92EF92FF92D1
:1037300060910F017091100180911101909112011F
:10374000611571058105910521F464E279ED8BE540
:1037500097E02DE133EF41E050E00E94F91C490170
:103760005A019B01AC01A7EAB1E40E94181D6B014C
:103770007C01ACEEB4EFA50194010E94261DC60E9B
:10378000D71EE81EF91EF7FE06C081E0C81AD10850
:10379000E10880E8F80AC0920F01D0921001E0928F
:1037A0001101F0921201C701B6019F77FF90EF90CF
:1037B000DF90CF90BF90AF909F908F9008956093CF
:1037C0000F017093100180931101909312010895DD
:1037D000E89409C097FB3EF49095809570956195AB
:1037E0007F4F8F4F9F4F9923A9F0F92F96E9BB2761
:1037F0009395F695879577956795B795F111F8CFDD
:10380000FAF4BB0F11F460FF1BC06F5F7F4F8F4F47
:103810009F4F16C0882311F096E911C0772321F03D
:103820009EE8872F762F05C0662371F096E8862FD5
:1038300070E060E02AF09A95660F771F881FDAF72C
:10384000880F9695879597F908950E94381C0C94D7
:10385000A91C0E949B1C38F00E94A21C20F09523FA
:1038600011F00C94921C0C94981C11240C94DD1CE7
:103870000E94BA1C70F3959FC1F3950F50E0551F3D
:10388000629FF001729FBB27F00DB11D639FAA27B5
:10389000F00DB11DAA1F649F6627B00DA11D661F04
:1038A000829F2227B00DA11D621F739FB00DA11D25
:1038B000621F839FA00D611D221F749F3327A00DDF
:1038C000611D231F849F600D211D822F762F6A2F7B
:1038D00011249F5750409AF0F1F088234AF0EE0FE0
:1038E000FF1FBB1F661F771F881F91505040A9F70D
:1038F0009E3F510580F00C94921C0C94DD1C5F3FA0
:10390000E4F3983ED4F3869577956795B795F79548
:10391000E7959F5FC1F7FE2B880F911D96958795C0
:1039200097F9089597F99F6780E870E060E008953F
:103930009FEF80EC089500240A94161617061806C7
:103940000906089500240A941216130614060506A3
:103950000895092E0394000C11F4882352F0BB0F34
:1039600040F4BF2B11F460FF04C06F5F7F4F8F4F97
:103970009F4F089557FD9058440F551F59F05F3FD2
:1039800071F04795880F97FB991F61F09F3F79F081
:1039900087950895121613061406551FF2CF469503
:1039A000F1DF08C0161617061806991FF1CF869585
:1039B0007105610508940895E894BB276627772769
:1039C000CB0197F90895F999FECF92BD81BDF89A80
:1039D000992780B50895262FF999FECF1FBA92BD79
:1039E00081BD20BD0FB6F894FA9AF99A0FBE0196E0
:1039F0000895052E97FB1EF400940E94101D57FD9C
:103A000007D00E94621D07FC03D04EF40C94101DD9
:103A100050954095309521953F4F4F4F5F4F0895FA
:103A200090958095709561957F4F8F4F9F4F08952A
:103A30000E94841DA59F900DB49F900DA49F800DA2
:103A4000911D11240895B7FF0C94181D0E94181D94
:103A5000821B930B08952F923F924F925F926F9229
:103A60007F928F929F92AF92BF92CF92DF92EF920E
:103A7000FF920F931F93CF93DF93CDB7DEB7CA1B8F
:103A8000DB0B0FB6F894DEBF0FBECDBF09942A88BA
:103A9000398848885F846E847D848C849B84AA8462
:103AA000B984C884DF80EE80FD800C811B81AA81EF
:103AB000B981CE0FD11D0FB6F894DEBF0FBECDBFBA
:103AC000ED010895A1E21A2EAA1BBB1BFD010DC03A
:103AD000AA1FBB1FEE1FFF1FA217B307E407F507BE
:103AE00020F0A21BB30BE40BF50B661F771F881F9A
:103AF000991F1A9469F760957095809590959B0130
:103B0000AC01BD01CF010895A29FB001B39FC001D8
:103B1000A39F700D811D1124911DB29F700D811DF9
:103B20001124911D08955058BB27AA270E94AB1D50
:103B30000C94A91C0E949B1C38F00E94A21C20F02F
:103B400039F49F3F19F426F40C94981C0EF4E09578
:103B5000E7FB0C94921CE92F0E94BA1C58F3BA1789
:103B6000620773078407950720F079F4A6F50C9493
:103B7000DC1C0EF4E0950B2EBA2FA02D0B01B90121
:103B800090010C01CA01A0011124FF27591B99F0D3
:103B9000593F50F4503E68F11A16F040A22F232FDF
:103BA000342F4427585FF3CF469537952795A7952F
:103BB000F0405395C9F77EF41F16BA0B620B730BD6
:103BC000840BBAF09150A1F0FF0FBB1F661F771F47
:103BD000881FC2F70EC0BA0F621F731F841F48F4FC
:103BE000879577956795B795F7959E3F08F0B0CF85
:103BF0009395880F08F09927EE0F9795879508956C
:103C00000E94141E0C94A91C0E94A21C58F00E9431
:103C10009B1C40F029F45F3F29F00C94921C511139
:103C20000C94DD1C0C94981C0E94BA1C68F3992318
:103C3000B1F3552391F3951B550BBB27AA276217A8
:103C40007307840738F09F5F5F4F220F331F441FB5
:103C5000AA1FA9F335D00E2E3AF0E0E832D09150E9
:103C60005040E695001CCAF72BD0FE2F29D0660FD6
:103C7000771F881FBB1F261737074807AB07B0E819
:103C800009F0BB0B802DBF01FF2793585F4F3AF01F
:103C90009E3F510578F00C94921C0C94DD1C5F3F04
:103CA000E4F3983ED4F3869577956795B795F795A5
:103CB0009F5FC9F7880F911D9695879597F908958D
:103CC000E1E0660F771F881FBB1F62177307840729
:103CD000BA0720F0621B730B840BBA0BEE1F88F738
:103CE000E09508950E94791E6894B1110C94DD1C32
:103CF00008950E94C21C88F09F5798F0B92F992709
:103D0000B751B0F0E1F0660F771F881F991F1AF0C6
:103D1000BA95C9F714C0B13091F00E94DC1CB1E033
:103D200008950C94DC1C672F782F8827B85F39F032
:103D3000B93FCCF3869577956795B395D9F73EF45F
:103D400090958095709561957F4F8F4F9F4F089507
:103D5000AA1BBB1B51E107C0AA1FBB1FA617B707B1
:103D600010F0A61BB70B881F991F5A95A9F78095CD
:103D70009095BC01CD01089597FB072E16F4009491
:103D800007D077FD09D00E94A81E07FC05D03EF49D
:103D9000909581959F4F0895709561957F4F0895F7
:103DA000EE0FFF1F0590F491E02D09940F931F93E0
:103DB000CF93DF938230910510F482E090E0E091A0
:103DC000470AF091480A30E020E0B0E0A0E03097E8
:103DD00099F42115310509F44AC0281B390B243008
:103DE0003105D8F58A819B816115710589F1FB0147
:103DF00093838283FE0111C040815181028113812E
:103E000048175907E0F04817590799F4109761F0DF
:103E100012960C93129713961C933296CF01DF9152
:103E2000CF911F910F9108950093470A1093480A6C
:103E3000F4CF2115310551F04217530738F0A9018D
:103E4000DB019A01BD01DF01F801C1CFEF01F9CF1C
:103E50009093480A8093470ACDCFFE01E20FF31FEB
:103E6000819391932250310939832883D7CF2091B0
:103E7000450A3091460A232B41F4209115013091D7
:103E800016013093460A2093450A20911301309180
:103E900014012115310541F42DB73EB740911701AA
:103EA00050911801241B350BE091450AF091460A08
:103EB000E217F307A0F42E1B3F0B2817390778F001
:103EC000AC014E5F5F4F2417350748F04E0F5F1F60
:103ED0005093460A4093450A819391939FCFF0E017
:103EE000E0E09CCFCF93DF930097E9F0FC0132979D
:103EF00013821282A091470AB091480AED0130E086
:103F000020E01097A1F420813181820F931F20912E
:103F1000450A3091460A2817390709F061C0F09325
:103F2000460AE093450ADF91CF910895EA01CE1742
:103F3000DF07E8F54A815B819E0141155105B1F724
:103F4000E901FB83EA8349915991C40FD51FEC170E
:103F5000FD0761F4808191810296840F951FE9012C
:103F600099838883828193819B838A83F0E0E0E058
:103F700012968D919C9113970097B9F52D913C91D4
:103F80001197CD010296820F931F2091450A30911F
:103F9000460A2817390739F6309751F51092480A22
:103FA0001092470AB093460AA093450ABCCFD38328
:103FB000C28340815181840F951FC817D90761F4CE
:103FC0004E5F5F4F88819981480F591F518340830D
:103FD0008A819B81938382832115310509F0B0CFBB
:103FE000F093480AE093470A9ECFFD01DC01C0CF61
:103FF00013821282D7CFB0E0A0E0E1E0F0E20C94AF
:104000002D1D8C01009751F4CB010E94D61E8C010E
:10401000C801CDB7DEB7E0E10C94491DFC01E60F05
:10402000F71F9C0122503109E217F30708F49DC0E5
:10403000D901CD91DC911197C617D70798F0C530FB
:10404000D10530F3CE0104978617970708F3C61BF6
:10405000D70B2297C193D1936D937C93CF010E948C
:10406000721FD6CF5B01AC1ABD0A4C018C0E9D1E8F
:10407000A091470AB091480A512C412CF12CE12C17
:10408000109731F58091450A9091460A8815990557
:1040900009F05CC04616570608F058C0809113011D
:1040A00090911401009741F48DB79EB7409117018C
:1040B00050911801841B950BE817F90708F055C0BB
:1040C000F093460AE093450AF90171836083A0CF1B
:1040D0008D919C91119712966C90129713967C90EB
:1040E0001397A815B90559F56C0142E0C40ED11C0F
:1040F000CA14DB0420F1AC014A195B09DA011296FB
:10410000159780F06282738251834083D9016D9349
:104110007C93E114F10471F0D7011396FC93EE93B4
:10412000129776CF22968C0F9D1FF9019183808381
:10413000F301EFCFF093480AE093470A69CF48169E
:10414000590608F42C017D01D3019ACFCB010E94BE
:10415000D61E7C01009749F0AE01B8010E94B8203C
:10416000C8010E94721F870153CF10E000E050CFBA
:10417000FB01DC0102C001900D9241505040D8F784
:104180000895FB01DC0101900D920020E1F70895F4
:104190001BE0CCE6DBE004C0FE010E94D01E2196AD
:0A41A000CD36D107C9F7F894FFCF20
:1041AA00100101FFFFFFFF00E10000000000000115
:1041BA000000000000490A8000010001010100011D
:1041CA000100FF010000FFFF010100FF0001FF00E5
:1041DA00FFFF0001010101010001010000FF0100D0
:1041EA0001010000FFFF0101000100010100FF01C0
:1041FA000001FF01FF00C1808100000000000000F3
:10420A00AB0C160ECC0CC10C120DD00CEE0C00002F
:10421A000000EF0E9B0E4E104D104C6F736521007F
:10422A003C20202047656E746C652020203E003CAF
:10423A002020204D415948454D2020203E00456D03
:10424A0070747921004372617368210047656E7446
:10425A006C6520436F757273652057696E21000083
:00000001FF
