:100000000C9477030C949F030C949F030C949F0310
:100010000C949F030C949F030C949F030C949F03D8
:100020000C949F030C949F030C94D7070C944608E0
:100030000C949F030C949F030C949F030C949F03B8
:100040000C949F030C949F030C949F030C949F03A8
:100050000C949F030C949F030C949F030C94780AB8
:100060000C949F030C949F030C949F030C949F0388
:100070000C949F030C949F030C949F030C949F0378
:100080000C949F030C949F030C949F030C949F0368
:100090000C949F030C949F030C949F030C949F0358
:1000A0000C949F030C949F030C949F03000000008A
:1000B000003E5B4F5B3E3E6B4F6B3E1C3E7C3E1CEE
:1000C000183C7E3C181C577D571C1C5E7F5E1C0034
:1000D000183C1800FFE7C3E7FF0018241800FFE7EB
:1000E000DBE7FF30483A060E2629792926407F05AE
:1000F0000507407F05253F5A3CE73C5A7F3E1C1CC4
:1001000008081C1C3E7F14227F22145F5F005F5F83
:1001100006097F017F006689956A6060606060946F
:10012000A2FFA29408047E040810207E2010080874
:100130002A1C08081C2A08081E101010100C1E0C7F
:100140001E0C30383E3830060E3E0E060000000011
:100150000000005F00000007000700147F147F14F8
:10016000242A7F2A1223130864623649562050003D
:1001700008070300001C2241000041221C002A1C29
:100180007F1C2A08083E0808008070300008080814
:100190000808000060600020100804023E51494534
:1001A0003E00427F400072494949462141494D3352
:1001B0001814127F1027454545393C4A49493141B9
:1001C000211109073649494936464949291E000087
:1001D00014000000403400000008142241141414DC
:1001E0001414004122140802015909063E415D59C8
:1001F0004E7C1211127C7F494949363E41414122D1
:100200007F4141413E7F494949417F090909013EFA
:10021000414151737F0808087F00417F4100204021
:10022000413F017F081422417F404040407F021C33
:10023000027F7F0408107F3E4141413E7F0909094A
:10024000063E4151215E7F09192946264949493216
:1002500003017F01033F4040403F1F2040201F3FDC
:100260004038403F63140814630304780403615961
:10027000494D43007F4141410204081020004141A3
:10028000417F04020102044040404040000307084F
:100290000020545478407F2844443838444444284B
:1002A000384444287F385454541800087E090218F2
:1002B000A4A49C787F0804047800447D400020407A
:1002C000403D007F1028440000417F40007C0478BE
:1002D00004787C080404783844444438FC18242406
:1002E0001818242418FC7C08040408485454542486
:1002F00004043F44243C4040207C1C2040201C3C03
:100300004030403C44281028444C9090907C4464F9
:10031000544C44000836410000007700000041368C
:10032000080002010204023C2623263C1EA1A16112
:10033000123A4040207A3854545559215555794144
:100340002154547841215554784020545579400C1B
:100350001E527212395555555939545454593955FC
:100360005454580000457C410002457D420001453F
:100370007C40F0292429F0F0282528F07C545545AC
:10038000002054547C547C0A097F4932494949323F
:100390003248484832324A4848303A4141217A3A54
:1003A00042402078009DA0A07D39444444393D401E
:1003B00040403D3C24FF2424487E4943662B2FFCCB
:1003C0002F2BFF0929F620C0887E09032054547979
:1003D000410000447D413048484A32384040227A4A
:1003E000007A0A0A727D0D19317D2629292F2826C7
:1003F0002929292630484D402038080808080808CF
:100400000808382F10C8ACBA2F102834FA00007B27
:10041000000008142A142222142A1408950022002D
:1004200095AA005500AAAA55AA55AA000000FF00E7
:10043000101010FF00141414FF001010FF00FF1024
:1004400010F010F0141414FC001414F700FF000056
:10045000FF00FF1414F404FC141417101F10101FD5
:10046000101F1414141F00101010F0000000001FC3
:10047000101010101F10101010F010000000FF10CE
:100480001010101010101010FF10000000FF1400CA
:1004900000FF00FF00001F10170000FC04F41414FC
:1004A0001710171414F404F40000FF00F7141414C8
:1004B00014141414F700F7141414171410101F1048
:1004C0001F141414F4141010F010F000001F101F6B
:1004D0000000001F14000000FC140000F010F010D9
:1004E00010FF10FF141414FF141010101F00000050
:1004F00000F010FFFFFFFFFFF0F0F0F0F0FFFFFF54
:100500000000000000FFFF0F0F0F0F0F38444438AA
:10051000447C2A2A3E147E02020606027E027E02E5
:1005200063554941633844443C04407E201E200604
:10053000027E020299A5E7A5991C2A492A1C4C7241
:1005400001724C304A4D4D303048784830BC625AC8
:10055000463D3E494949007E0101017E2A2A2A2A58
:100560002A44445F444440514A444040444A514034
:100570000000FF0103E080FF000008086B6B0836F5
:1005800012362436060F090F060000181800000066
:100590001010003040FF0101001F01011E00191D55
:1005A0001712003C3C3C3C0000000000F0F89C8E20
:1005B0008783878E9CF8F00000FEFF03030303038C
:1005C000070EFCF80000FEFF0303030303070EFC05
:1005D000F80000FFFF00000000000000FFFF000027
:1005E000FEFF8383838383C7EE7C380000F8FC0E14
:1005F00007030303070EFCF800003F7FE0C0808084
:10060000C0E07F3FFFFF01010101010101FFFF0089
:1006100000FFFF0C0C0C0C1C3E77E3C100007FFFB9
:10062000C0C0C0C0C0E0703F1F00001F3F70E0C0EE
:10063000C0C0E0703F1F00007FFFC1C1C1C1C1E366
:10064000773E1C00001F3F70E0C0C0C0E0703F1F3D
:10065000000000000001FFFF01000000D5F08D1434
:10066000A1C881CFD9F1AF2000456C656374726F6A
:1006700063617264696F67726F756E642100080B45
:10068000000202020000090400000102020000054D
:10069000240010010524010101042402060524069A
:1006A00000010705810310004009040100020A004F
:1006B0000000070502024000000705830240000019
:1006C0000403090412010002EF02014041233680B5
:1006D00000010102030141726475696E6F204C4C88
:1006E000430041726475626F7900F50AC0101124ED
:1006F0001FBECFEFDAE0DEBFCDBF11E0A0E0B1E07A
:10070000E4EBFCE202C005900D92AA34B107D9F7E0
:1007100027E0AAE4B1E001C01D92A53DB207E1F7D0
:1007200013E0C6E7D3E004C02197FE010E945514F0
:10073000C537D107C9F70E94770B0C944D160C945E
:100740000000E7E7F1E0A0E0B8E000800EBC811116
:10075000012C1197A0FDFDCF0192B9F70DB40895BA
:10076000FC0180917601882311F13FB7F89482E073
:100770008093E9002091F200822F90E0181619066C
:1007800014F481E090E0882339F0289844E64093FF
:1007900075014091F1004083222339F02091F2004D
:1007A000211103C02BE62093E8003FBF08958FEF8F
:1007B0009FEF08952FB7F89483E08093E90090911C
:1007C000E800892F807295FF04C09091F20080E4C8
:1007D000891B2FBF089580916D0181110DC082E0AA
:1007E0008093690184E080936A0110926C011092F9
:1007F0006B0181E080936D0189E691E00895CF93CC
:10080000DF931F92CDB7DEB76983DC01ED91FC91D8
:100810000280F381E02D41E050E0BE016F5F7F4F29
:1008200009950F90DF91CF91089583E08093E900BF
:100830008091F200882319F08AE38093E8000895FC
:100840000E94DA0390E00895CF93DF931F92CDB713
:10085000DEB7FC018485958597FD08C02FEF3FEF3B
:10086000358724870F90DF91CF910895CE010196AF
:100870000E94B003019719F4898190E0F3CF8FEFC4
:100880009FEFF0CF0F931F93CF93DF931F92CDB7BE
:10089000DEB78C01FC018485958597FF0BC0CE01E6
:1008A00001960E94B003019771F4898190E0F801EC
:1008B00095878487F801848595850F90DF91CF9186
:1008C0001F910F9108958FEF9FEFF1CFFC01848569
:1008D000958597FD0BC09FB7F89482E08093E9005F
:1008E0008091F2009FBF90E0019608959FB7F89421
:1008F00082E08093E9008091F2009FBF90E008952C
:100900004091630150916401209161013091620135
:1009100042175307B4F49091E8009570E1F3909179
:10092000E80092FD19C08093F100809163019091DD
:10093000640101968F739927892B19F48EEF8093A8
:10094000E8008091630190916401019690936401A5
:100950008093630181E0089580E00895DF92EF9233
:10096000FF920F931F93CF93DF93D82E8A01EB0151
:100970007B01E40EF51ECE15DF0559F0D7FE12C03F
:10098000FE0184910E94800421968111F4CF0FEF23
:100990001FEFC801DF91CF911F910F91FF90EF9052
:1009A000DF9008958881EECF0F931F93CF93DF934D
:1009B0001F92CDB7DEB782E0898342E450E06EE754
:1009C00076E080E80E94AE040E94EB03DC01129600
:1009D0000D911C910115110589F0D801ED91FC9143
:1009E0000280F381E02DBE016F5F7F4FC801099542
:1009F00097FD04C0F80100851185ECCF89810F9027
:100A0000DF91CF911F910F910895615030F02091A7
:100A1000F100FC0120830196F8CF289884E68093AA
:100A2000750108953FB7F89480915D0190915E0142
:100A3000A0915F01B091600126B5A89B05C02F3F32
:100A400019F00196A11DB11D3FBFBA2FA92F982FF4
:100A50008827BC01CD01620F711D811D911D42E0EF
:100A6000660F771F881F991F4A95D1F708958F92B7
:100A70009F92AF92BF92CF92DF92EF92FF926B0163
:100A80007C010E9412054B015C01C114D104E104F8
:100A9000F104B9F00E941205681979098A099B09C5
:100AA000683E73408105910580F321E0C21AD108A8
:100AB000E108F10888EE880E83E0981EA11CB11CA5
:100AC000E4CFFF90EF90DF90CF90BF90AF909F90DA
:100AD0008F9008958F929F92AF92BF92CF92DF92A4
:100AE000EF92FF920F931F93CF93DF936C017B01E3
:100AF0008A0180910C01882309F45CC08091760101
:100B0000882309F457C08091680180FF05C0809157
:100B1000E00082608093E000E801B12C8AEFA82E0B
:100B200093E0892E2AE3922E209711F4BB20D9F16D
:100B30000E94DA0381110AC0AA94AA20D9F161E0C7
:100B400070E080E090E00E943705EECF8C171D0624
:100B500011F00CF08C2F9FB7F8948092E90020914F
:100B6000E80025FD02C09FBFDFCF282F30E0C21B69
:100B7000D30BF701815020F041914093F100FACF5F
:100B8000E20EF31EBB2021F09092E800B12CEBCFD7
:100B90008091E80085FDE7CF9092E800BB24B394F4
:100BA000209709F3F3CF5D9884E6809367011016D0
:100BB00011063CF081E090E0F6019383828310E01F
:100BC00000E0C801DF91CF911F910F91FF90EF904E
:100BD000DF90CF90BF90AF909F908F900895AF928D
:100BE000BF92CF92DF92EF92FF920F931F93CF931A
:100BF000DF936C017B018B01040F151FEB015E017C
:100C0000AE18BF08C017D10759F06991D601ED9110
:100C1000FC910190F081E02DC6010995892B79F7AF
:100C2000C501DF91CF911F910F91FF90EF90DF9061
:100C3000CF90BF90AF9008952D9A0895BC0190E099
:100C400080E00C9437058FB18095807F669B88602B
:100C50001C9B8460089520E191E061FD94E060FDBB
:100C6000990F62FD9295687F269FD0011124A80FED
:100C7000A958BE4F8C9140FF03C0892B8C930895D7
:100C800090958923FBCF8F929F92AF92BF92CF9284
:100C9000DF92EF92FF920F931F93CF93DF936D300C
:100CA00089F0C0905201D09053016A30D1F4109273
:100CB00051011092500188E0C80ED11CD09253010E
:100CC000C092520181E090E0DF91CF911F910F918E
:100CD000FF90EF90DF90CF90BF90AF909F908F905C
:100CE00008950091500110915101E5E06E9FE001DF
:100CF0001124C455DF4F5801F12CF5E0E12CFF160B
:100D000029F0CE010196FE01E490EC01912C812C9A
:100D1000F0E8AF16B10458F4B601680D791D6034DF
:100D2000710528F44E2D4170C5010E942B06E694F2
:100D30008FEF881A980AE8E08E16910449F7F39429
:100D4000FFEFAF1ABF0A86E0F812D7CF0A5F1F4F36
:100D50001093510100935001B5CF90915401982305
:100D600029F490915501982381E009F480E00895D9
:100D7000CF93C82F0E942306982F9C2381E09C13B9
:100D800080E0CF91089580E00C94A1038F929F9210
:100D9000AF92BF92CF92DF92EF92FF920F93CF93D9
:100DA000DF935B01EC014C01840E911C6B01C20EC0
:100DB000D11CC815D905ECF47501B7FE02C0F12CA1
:100DC000E12CC60121E4C216D10414F080E490E0C5
:100DD000E816F90664F4C038D1052CF4402FB701A9
:100DE000CE010E942B068FEFE81AF80AEACF21966F
:100DF000E0CFDF91CF910F91FF90EF90DF90CF90F8
:100E0000BF90AF909F908F900895E3EDF5E081E063
:100E100090E010829283818314821382359627E0BA
:100E2000E73CF207B1F710924F0110924E0182E0B9
:100E3000809357010895EF92FF920F931F93CF93E2
:100E4000DF93282FC0914E01D0914F01E3EDF5E0E3
:100E5000B0E0A0E080E030E08901055011092B5F8F
:100E60003F4FEE24FF24E61AF70AAC17BD079CF4A7
:100E7000418152814617570759F4408150E040178D
:100E8000510734F0241735071CF0F282E18281E02B
:100E900011963596EACFDF91CF911F910F91FF9078
:100EA000EF90089510925601E7ECF5E081E090E0B4
:100EB000918380838FE790E093838283148224E37D
:100EC00025832FEF3FEF3783268391878087128614
:100ED0008CE483870895089590E080E00895CF938F
:100EE000DF93EC018091C7079091C807009759F0F4
:100EF0002091C9073091CA072C173D0720F081E0E7
:100F0000DF91CF910895BE016F5F7F4F0E948015E2
:100F1000009789F09093C8078093C707D093CA07BA
:100F2000C093C9072091CB073091CC07232B39F709
:100F3000FC011082E4CF80E0E3CF0F931F93CF93A7
:100F4000DF938C01EC0109900020E9F72197C81B81
:100F5000D90BCE010E946F072091C7073091C807B7
:100F6000811117C02115310519F0C9010E94F7142C
:100F70001092C8071092C7071092CC071092CB07A7
:100F80001092CA071092C907DF91CF911F910F915C
:100F90000895D093CC07C093CB07B801C901DF9166
:100FA000CF911F910F910C9446160C9468121F92CA
:100FB0000F920FB60F9211248F939F938091E100AF
:100FC0009091E100937F9093E10083FF0FC0109216
:100FD000E90091E09093EB001092EC0092E3909383
:100FE000ED001092760198E09093F00082FF22C00D
:100FF00093E09093E9009091F200992319F09AE31D
:101000009093E80090916701992341F090916701D6
:10101000915090936701911101C05D9A9091750173
:10102000992341F090917501915090937501911120
:1010300001C0289A84FF18C08091E2008E7E8160F2
:101040008093E2008091E1008F7E8093E1008091A7
:1010500068018E7E8061809368019F918F910F90CF
:101060000FBE0F901F90189580FFF7CF8091E20080
:101070008E7E80618093E2008091E1008E7E80937D
:10108000E100809168018E7E8160E5CF1F920F9212
:101090000FB60F921124CF92DF92EF92FF920F932F
:1010A0001F932F933F934F935F936F937F938F93F0
:1010B0009F93AF93BF93EF93FF93CF93DF93CDB7FE
:1010C000DEB76C97DEBFCDBF1092E9008091E800DB
:1010D00083FF25C068E0CE0145960E94050582EF9A
:1010E0008093E8008D8987FF39C09091E80090FFD8
:1010F000FCCF982F907609F034C19E894F89588D86
:101100002F89F88C911131C0803861F5809166018A
:101110008093F1001092F1008EEF8093E8006C96BE
:101120000FB6F894DEBF0FBECDBFDF91CF91FF9118
:10113000EF91BF91AF919F918F917F916F915F914F
:101140004F913F912F911F910F91FF90EF90DF9062
:10115000CF900F900FBE0F901F9018959EEF909319
:10116000E800C7CF1092F100D5CF913059F481112A
:10117000D3CF4130510581F6809166018D7F8093F8
:101180006601CACF933049F48111C6CF4130510571
:1011900019F6809166018260F2CF953041F480911A
:1011A000E80080FFFCCF20682093E300B5CF9630A5
:1011B00009F0A9C00B8D1C8D22E01092E90010925D
:1011C000640110926301F2122EC01092620110921B
:1011D00061010E94D4041F8299E09983FA8291E010
:1011E0009E8390EA98879AEF9987209163013091C6
:1011F0006401275F3F4F3C832B838D831092E9006E
:1012000010926401109263011093620100936101D6
:1012100049E050E0BE016F5F7F4F80E00E94AE0466
:101220000E94D40479CF10936201009361010E945F
:10123000EB03DC0112960D911C910115110509F4C7
:1012400051C1D801ED91FC910480F581E02DBE01E2
:101250006B5E7F4FC8010995009709F03EC1F80108
:1012600000851185EACFF3E0FF120EC08F89882335
:1012700009F440C0823061F440E867E082EE96E015
:101280000E94C20A811148CF81E28093EB0047CFD0
:10129000813029F440E86BE086ED96E0F1CF8330B1
:1012A00099F70E94EB03DC011296ED90FC908E0101
:1012B0000F5F1F4F6801E114F10479F0D701ED9140
:1012C000FC910680F781E02DB801C7010995080F50
:1012D000111DF701E084F184EECFD8011C92F601D4
:1012E00001900020E9F73197BF016C197D0940E0BA
:1012F000C601C6CF60EC76E0FB01449150E080E887
:101300000E94AE0409CF973009F4BECF983021F483
:1013100081E08093F10000CF993009F0FDCE837019
:1013200009F0B2CFE8E1F1E081E031E096E321910C
:10133000222371F08093E9003093EB00DF011197D5
:101340002C912093EC009093ED008F5F873079F71C
:101350008EE78093EA001092EA008F8980937601ED
:10136000DBCE8B8D9C8D1092E9001092640110925F
:1013700063019093620180936101898D811192C014
:101380008E899D89913A49F4813209F07DCF47E0F9
:1013900050E065E071E080E0B3CF913209F074CFA6
:1013A000833269F48F89988DB0E0A0E080930101C9
:1013B00090930201A0930301B0930401ADCE80325B
:1013C00069F48091E80082FFFCCF67E085E091E05E
:1013D0000E9405058BEF8093E8009ECE823209F0D3
:1013E0009BCE8F8980930C01EEEFFFE7859194915E
:1013F0008B3F9C4D51F1E0E0F8E080910501909128
:101400000601A0910701B0910801803B9440A1051D
:10141000B105F1F480910C0180FD1AC0EE3F8AE025
:10142000F80789F587E797E79183808380916000CB
:101430008093650188E19BE00FB6F894A8958093AE
:1014400060000FBE9093600067CEEEEFFAE0D5CF5C
:10145000808191818737974709F05ECEA89580916A
:1014600060008861809360008091650180936000D6
:10147000EE3F2AE0F20789F08091FE0A9091FF0A80
:101480009183808349CE808191818737980751F27B
:101490009093FF0A8093FE0AC5CF1092FF0A109224
:1014A000FE0A3ACE0E94EB03DC0112960D911C91CC
:1014B0000115110509F4E8CED801ED91FC910190D8
:1014C000F081E02DBE016B5E7F4FC801099581114F
:1014D00023CEF80100851185EBCF181619060CF400
:1014E0001BCED2CEF1E0FF12BECE64EC76E004CF8C
:1014F0001F920F920FB60F9211242F933F938F9349
:101500009F93AF93BF938091590190915A01A091FD
:101510005B01B0915C013091580123E0230F2D371E
:1015200058F50196A11DB11D2093580180935901D2
:1015300090935A01A0935B01B0935C0180915D018F
:1015400090915E01A0915F01B09160010196A11D93
:10155000B11D80935D0190935E01A0935F01B093F4
:101560006001BF91AF919F918F913F912F910F900B
:101570000FBE0F901F90189526E8230F0296A11D0D
:10158000B11DD2CFEF92FF920F931F93CF93DF93B2
:10159000F82E192FE62E042F81E0860F880F0E9467
:1015A000800483E00E948004CF2DD12FEC0EFD2E0D
:1015B000F11CCE15DF05B9F007FF13C0FE018491C1
:1015C0000E948004182F80E00E94800481232196CD
:1015D0008111EFCFDF91CF911F910F91FF90EF908D
:1015E00008958881EDCF81E0F5CF10927A051092B1
:1015F000790588EE93E0A0E0B0E080937B059093BE
:101600007C05A0937D05B0937E0582E291E09093E6
:101610007805809377058FEF9FEF909384058093F3
:1016200083051092D0071092CF0784E391E0909346
:10163000CE078093CD071092C8071092C70710926B
:10164000CA071092C9071092CC071092CB0790E0FE
:1016500080E00E946F072091C7073091C807811171
:101660003CC02115310519F0C9010E94F7141092F0
:10167000C8071092C7071092CC071092CB071092A0
:10168000CA071092C907E3EDF5E027EC37E081E0E7
:1016900090E01082928381831482138235962E17F4
:1016A0003F07B9F79093C8058093C7052FE730E04F
:1016B0003093CA052093C9051092CB051092CC0532
:1016C0009093CE058093CD053093D0052093CF0520
:1016D0001092D1051092D20508951092CC07109265
:1016E000CB0769E471E0C9010E944616CCCFCF93C5
:1016F000DF9300D000D01F92CDB7DEB7789484B5C9
:10170000826084BD84B5816084BD85B5826085BDFD
:1017100085B5816085BD80916E00816080936E008B
:10172000109281008091810082608093810080917D
:10173000810081608093810080918000816080932E
:10174000800080919100826080939100809191004F
:1017500081608093910080919000816080939000DF
:101760008091C10084608093C1008091C10082603B
:101770008093C1008091C10081608093C1008091FD
:10178000C30081608093C3008091C0008260809319
:10179000C0008091C20081608093C20080917A0075
:1017A000846080937A0080917A00826080937A00CE
:1017B00080917A00816080937A0080917A008068BD
:1017C00080937A001092760110926601109268015F
:1017D0008091D70081608093D70080EA8093D80001
:1017E00089B5806189BD89B5826089BD09B400FE73
:1017F000FDCF61E070E080E090E00E9437058091CD
:10180000D8008F7C80618093D8008091E000807F39
:101810008093E0008091E1008E7E8093E1008DE076
:101820008093E200559A209A0E94520781EC80939F
:101830007C0085B1806F85B984B1877E84B984B11D
:10184000876E84B95E9A5F988AB1806D8AB9769AFC
:101850006E9881B3806F81BB899880B38D7080BB97
:1018600080E58CBD81E08DBD85E090E00E941E0684
:101870005F9A85E090E00E941E065E985C98ECE519
:10188000F6E089E696E024912EBD00000DB407FE37
:10189000FDCF31968E179F07B1F75C9A81E8809350
:1018A0006400809165008160809365000E94C3069A
:1018B00080E80E94B8068823A9F05C9885EA8EBD6E
:1018C00000000DB407FEFDCF5C9A2E982F982D983E
:1018D0008091640080628093640081E083BF88957A
:1018E00013BEFCCF84E00E94B806882309F448C0E8
:1018F0002D9884E80E94B8068823E1F00E941C0617
:1019000088EC90E00E941E062F9882E090E00E94F2
:1019100068128F3F29F06FEF82E090E00E94701212
:1019200084EF91E00E941E062F9A84E80E94B80678
:101930008111FBCF84E10E94B8068823E1F00E9468
:101940001C0688EC90E00E941E062E9882E090E033
:101950000E946812882329F060E082E090E00E94F3
:10196000701284EF91E00E941E062E9A84E10E947C
:10197000B8068111FBCF88EC90E00E941E06B2CF22
:101980000E941C0682E090E00E94D507882309F49B
:1019900080C03E9A3F9A81E090E00E94D507082FD0
:1019A0000470702E81FF12C001112E9871EF272E46
:1019B00033243A9408E010E080E40E94B8068823BB
:1019C00009F46AC02E9A2F9A0E941C0682E390E0C6
:1019D0000E941E060E9423068111F8CF80E18093A9
:1019E0000001809164008E7F8093640080917A0072
:1019F000806480937A0080917A0086FDFCCF00910C
:101A00007800109179000E941205AB01BC01C80159
:101A1000B0E0A0E0DC01992788278C019D01040F2C
:101A2000151F261F371FC901B801209164002160CE
:101A300020936400611571058105910511F00E94E4
:101A4000641194E6892E912CA12CB12C22E0422E17
:101A5000512C612C712C15E082E3C82ED12C8FB74C
:101A6000F8944091590150915A0160915B01709135
:101A70005C018FBF00914C010983002309F4E1C090
:101A800010924C0180E090E0892B49F30E94000005
:101A9000E2CF3E983F987FCF772031F024E02216A6
:101AA000310411F42E9A2F9881E00E94A103910134
:101AB00037FE04C022273327221933092770332722
:101AC000C10137FC079663E0959587956A95E1F724
:101AD00037FE05C00197A801421B530B9A01BC01B8
:101AE0007695762F662777956795F12CE12C28015E
:101AF000421A530A8E3F5FEF950709F447C0E8E5A5
:101B0000EE9D5001EF9DB00C1124DB01A958BE4F92
:101B100050E040E0F501E455FA4F5F01FB01E95068
:101B2000FE4F4F018F3F980781F0F501E40FF51F3D
:101B3000E491022E01C0EE0F0A94EAF75496FC914C
:101B40005497EF2B5496EC93549721153105C1F01F
:101B5000F501E40FF51F64906401C40ED51EE62D57
:101B6000F0E0042C02C0F595E7950A94E2F7FD83B6
:101B7000EC83F601F489FB836C806F2AF601648A9A
:101B80004F5F5F4F11964835510561F601966058D9
:101B90007F4FEA94EF2809F050C00E94C3068FE0FF
:101BA00090E00E941E062FEF221A320A39E1231616
:101BB000310409F001CF772011F02F9A2D9880E998
:101BC00091E00E941E060E941C0681E090E00E94A7
:101BD000D50780FFFBCE8AE090E00E94D5079FEFFB
:101BE000980F9E3F08F0F2CE22E330E0309351018F
:101BF0002093500128E330E03093530120935201A9
:101C00000BE010E01A830983682F8DEC97E00E94A7
:101C1000430689819A810E94D50709811A810F5F45
:101C20001F4F1A8309830131110571F70E94C30602
:101C300088EE93E00E941E06C9CEEE24E394F12CB8
:101C400059CF80914D01242F281B822F90910001A4
:101C5000291748F48F5F891708F014CF81E083BFFC
:101C6000889513BE0FCF81E080934C0140934D01C6
:101C700080914A0190914B01019690934B01809382
:101C80004A0180915501809354010E94230680935C
:101C90005501E7E7F1E0398131113FEF002431933D
:101CA0003193319331930394D1F7109253011092F1
:101CB00052011092510110925001809157018130D0
:101CC00009F43FC058F0823009F432C280915601C5
:101CD0008F5F809356010E94C306D4CED0925101EB
:101CE000C092500149E656E05A834983E981FA815E
:101CF0006491662361F08DEC97E00E944306298190
:101D00003A812F5F3F4F3A832983892B79F788E007
:101D10000E94AD0681110FC080E10E94AD068111C5
:101D20000AC084E00E94AD06811105C080E80E94CF
:101D3000AD06882359F20E94520781E08093570133
:101D4000C5CF00E020E240E870E060E090E080E095
:101D50000E94C60601E020E240E860E270E090E008
:101D600080E00E94C60688E00E94B8068823C1F180
:101D700081E08093CB056091C9057091CA05161664
:101D800017060CF455C084E00E94B806811163C0A8
:101D900080E80E94B80681115EC08091D105882339
:101DA00051F01092D1056091CD057091CE058091D2
:101DB000D2050E941B076091CF057091D0056F3747
:101DC00071050CF064C0072E000C880B990B0E9463
:101DD0006F1120E030E040E050E40E94191351C040
:101DE00080E10E94B8068111C3CF8091CB05882382
:101DF00051F01092CB056091C7057091C805809194
:101E0000CC050E941B076091C9057091CA056F3708
:101E100071050CF0B8CF072E000C880B990B0E94AF
:101E20006F1120E030E040E050E40E9419130CC034
:101E3000072E000C880B990B0E946F1120E030E0F8
:101E400040E850E40E9418130E94F7137093CA05EB
:101E50006093C90598CF81E08093D1056091CF054B
:101E60007091D0051616170694F4072E000C880BF7
:101E7000990B0E946F1120E030E040E850E40E948E
:101E800018130E94F7137093D0056093CF058091CB
:101E9000C9059091CA05181619063CF48091CF0522
:101EA0009091D0051816190634F08CE391E00E9449
:101EB0009D070E9405076091C9057091CA05072E0C
:101EC000000C880B990B0E946F1120E030E04EEF60
:101ED00052E40E94851320E030E040ED51E40E947E
:101EE000AA110E94F7134091CB053AEF3403A001E9
:101EF000112420E230E0261B370BFA01E20FF31F1A
:101F00003091CC0501E0262F46E0BF01832F90E001
:101F10000E94C6066091CF057091D005072E000C77
:101F2000880B990B0E946F1120E030E04EEF52E4D5
:101F30000E94851320E030E040ED51E40E94AA1198
:101F40000E94F713262F6091D10546E0649FB001EF
:101F50001124605E7F4F8091D20500E046E090E062
:101F60000E94C6068091560190E06CE070E00E94ED
:101F70002D149A838983892BA1F50E941511A5013F
:101F800094010E947E1269317105810591054CF51D
:101F90000E941511A30192010E947E1221E030E0FF
:101FA000662331F02FEF3FEF8FE790E09A8389832C
:101FB00080914E0190914F018436910594F4189FC1
:101FC000F001199FF00D1124ED52FA4F09810083A1
:101FD0003283218334832383019690934F0180932E
:101FE0004E0190E080E020914E0130914F01821728
:101FF000930724F5189FD001199FB00D1124AD52FD
:10200000BA4F4C9113965C911397450F4C9347FF31
:1020100013C021503109129FF001139FF00D1124BC
:10202000ED52FA4F45E001900D924A95E1F7309359
:102030004F0120934E0101970196D5CF23ED35E056
:102040003D832C836091CC0570E0AB014550510974
:102050006C5F7F4FA091C705B091C8050091CB057B
:102060008091D20590E07C0135E0E31AF108FC0193
:102070003496FA83E9832090CD053090CE05F09117
:10208000D105FB83E3EDF5E0808190E084179507AF
:1020900054F0681779073CF021813281A217B30709
:1020A00011F4002381F08E159F05D4F129813A8126
:1020B00028173907ACF1818192818215930581F54A
:1020C0003B8131112DC083E491E00E949D070E9465
:1020D0000507F12CE12C80914E0190914F01E816FB
:1020E000F9060CF0F3CDEC81FD818181928100E055
:1020F00060E2019711F401E06AE170E0EC81FD819A
:10210000808126E046E090E00E94C606FFEFEF1ACD
:10211000FF0A2C813D812B5F3F4F3D832C83DBCF1A
:10212000359687EC97E08E179F0709F0ADCFD1CF9A
:10213000D0925101C09250014091CB075091CC07F1
:102140006091C7077091C8078DEC97E00E94EF057A
:1021500088E00E94AD06811110C080E10E94AD06AA
:1021600081110BC084E00E94AD06811106C080E899
:102170000E94AD06882309F4A9CD10925701A6CD7F
:102180008091C7079091C807009711F00C94F7143D
:1021900008958F929F92AF92BF92CF92DF92EF926B
:1021A000FF92CF93DF93EC01688179818A819B81D3
:1021B000611571058105910521F464E279ED8BE5E6
:1021C00097E02DE133EF41E050E00E947E1249019B
:1021D0005A019B01AC01A7EAB1E40E949D126B0178
:1021E0007C01ACEEB4EFA50194010E94AB12C60EC7
:1021F000D71EE81EF91EF7FE06C081E0C81AD108F6
:10220000E10880E8F80AC882D982EA82FB82C70125
:10221000B6019F77DF91CF91FF90EF90DF90CF9045
:10222000BF90AF909F908F9008958F929F92AF92A2
:10223000BF92CF92DF92EF92FF9260910D01709169
:102240000E0180910F0190911001611571058105BA
:10225000910521F464E279ED8BE597E02DE133EF10
:1022600041E050E00E947E1249015A019B01AC01FD
:10227000A7EAB1E40E949D126B017C01ACEEB4EFC1
:10228000A50194010E94AB12C60ED71EE81EF91ECE
:10229000F7FE06C081E0C81AD108E10880E8F80A14
:1022A000C0920D01D0920E01E0920F01F092100148
:1022B000C701B6019F77FF90EF90DF90CF90BF905E
:1022C000AF909F908F90089560930D0170930E01D1
:1022D00080930F01909310010895E89409C097FB33
:1022E0003EF490958095709561957F4F8F4F9F4FED
:1022F0009923A9F0F92F96E9BB279395F695879531
:1023000077956795B795F111F8CFFAF4BB0F11F4F3
:1023100060FF1BC06F5F7F4F8F4F9F4F16C088239A
:1023200011F096E911C0772321F09EE8872F762FD0
:1023300005C0662371F096E8862F70E060E02AF011
:102340009A95660F771F881FDAF7880F96958795FD
:1023500097F908950E94BD110C942E120E9420122C
:1023600038F00E94271220F0952311F00C941712D8
:102370000C941D1211240C9462120E943F1270F3EF
:10238000959FC1F3950F50E0551F629FF001729F1A
:10239000BB27F00DB11D639FAA27F00DB11DAA1F29
:1023A000649F6627B00DA11D661F829F2227B00D76
:1023B000A11D621F739FB00DA11D621F839FA00D01
:1023C000611D221F749F3327A00D611D231F849F51
:1023D000600D211D822F762F6A2F11249F575040A8
:1023E0009AF0F1F088234AF0EE0FFF1FBB1F661F23
:1023F000771F881F91505040A9F79E3F510580F0EC
:102400000C9417120C9462125F3FE4F3983ED4F3DD
:10241000869577956795B795F795E7959F5FC1F78F
:10242000FE2B880F911D9695879597F9089597F93A
:102430009F6780E870E060E008959FEF80EC08956A
:1024400000240A9416161706180609060895002493
:102450000A9412161306140605060895092E03940D
:10246000000C11F4882352F0BB0F40F4BF2B11F481
:1024700060FF04C06F5F7F4F8F4F9F4F089557FDE0
:102480009058440F551F59F05F3F71F04795880FE2
:1024900097FB991F61F09F3F79F087950895121679
:1024A00013061406551FF2CF4695F1DF08C0161625
:1024B00017061806991FF1CF8695710561050894D6
:1024C0000895E894BB2766277727CB0197F90895ED
:1024D000F999FECF92BD81BDF89A992780B50895EC
:1024E000262FF999FECF1FBA92BD81BD20BD0FB630
:1024F000F894FA9AF99A0FBE01960895052E97FB63
:102500001EF400940E94951257FD07D00E94E71216
:1025100007FC03D04EF40C949512509540953095DD
:1025200021953F4F4F4F5F4F08959095809570953F
:1025300061957F4F8F4F9F4F08950E940913A59F6C
:10254000900DB49F900DA49F800D911D11240895AE
:10255000B7FF0C949D120E949D12821B930B08954D
:102560002F923F924F925F926F927F928F929F92A3
:10257000AF92BF92CF92DF92EF92FF920F931F9391
:10258000CF93DF93CDB7DEB7CA1BDB0B0FB6F89442
:10259000DEBF0FBECDBF09942A88398848885F8482
:1025A0006E847D848C849B84AA84B984C884DF80F3
:1025B000EE80FD800C811B81AA81B981CE0FD11DD7
:1025C0000FB6F894DEBF0FBECDBFED010895A1E2B6
:1025D0001A2EAA1BBB1BFD010DC0AA1FBB1FEE1F9D
:1025E000FF1FA217B307E407F50720F0A21BB30BE8
:1025F000E40BF50B661F771F881F991F1A9469F764
:1026000060957095809590959B01AC01BD01CF01BF
:102610000895A29FB001B39FC001A39F700D811DBB
:102620001124911DB29F700D811D1124911D0895DB
:102630005058BB27AA270E9430130C942E120E94D8
:10264000201238F00E94271220F039F49F3F19F42D
:1026500026F40C941D120EF4E095E7FB0C9417126F
:10266000E92F0E943F1258F3BA17620773078407D5
:10267000950720F079F4A6F50C9461120EF4E0951C
:102680000B2EBA2FA02D0B01B90190010C01CA012C
:10269000A0011124FF27591B99F0593F50F4503ED7
:1026A00068F11A16F040A22F232F342F4427585FC9
:1026B000F3CF469537952795A795F0405395C9F7E1
:1026C0007EF41F16BA0B620B730B840BBAF0915099
:1026D000A1F0FF0FBB1F661F771F881FC2F70EC038
:1026E000BA0F621F731F841F48F48795779567950B
:1026F000B795F7959E3F08F0B0CF9395880F08F0F7
:102700009927EE0F9795879508950E9499130C9439
:102710002E120E94271258F00E94201240F029F435
:102720005F3F29F00C94171251110C9462120C9413
:102730001D120E943F1268F39923B1F3552391F3C0
:10274000951B550BBB27AA2762177307840738F020
:102750009F5F5F4F220F331F441FAA1FA9F335D07D
:102760000E2E3AF0E0E832D091505040E695001C31
:10277000CAF72BD0FE2F29D0660F771F881FBB1FEB
:10278000261737074807AB07B0E809F0BB0B802DC9
:10279000BF01FF2793585F4F3AF09E3F510578F0F5
:1027A0000C9417120C9462125F3FE4F3983ED4F33A
:1027B000869577956795B795F7959F5FC9F7880FC9
:1027C000911D9695879597F90895E1E0660F771F1B
:1027D000881FBB1F621773078407BA0720F0621BAC
:1027E000730B840BBA0BEE1F88F7E09508950E94D7
:1027F000FE136894B1110C94621208950E9447125E
:1028000088F09F5798F0B92F9927B751B0F0E1F0B1
:10281000660F771F881F991F1AF0BA95C9F714C061
:10282000B13091F00E946112B1E008950C946112F0
:10283000672F782F8827B85F39F0B93FCCF386959A
:1028400077956795B395D9F73EF4909580957095F7
:1028500061957F4F8F4F9F4F089597FB072E16F47A
:10286000009407D077FD09D00E94411407FC05D0E1
:102870003EF4909581959F4F0895709561957F4F97
:102880000895AA1BBB1B51E107C0AA1FBB1FA617B7
:10289000B70710F0A61BB70B881F991F5A95A9F709
:1028A00080959095BC01CD010895EE0FFF1F059016
:1028B000F491E02D09940F931F93CF93DF9382300F
:1028C000910510F482E090E0E091D307F091D407F5
:1028D00030E020E0B0E0A0E0309799F42115310518
:1028E00009F44AC0281B390B24303105D8F58A81F8
:1028F0009B816115710589F1FB0193838283FE0140
:1029000011C0408151810281138148175907E0F0BD
:102910004817590799F4109761F012960C93129783
:1029200013961C933296CF01DF91CF911F910F9197
:1029300008950093D3071093D407F4CF21153105E0
:1029400051F04217530738F0A901DB019A01BD018C
:10295000DF01F801C1CFEF01F9CF9093D407809345
:10296000D307CDCFFE01E20FF31F81939193225045
:10297000310939832883D7CF2091D1073091D207ED
:10298000232B41F420911301309114013093D2078D
:102990002093D107209111013091120121153105A9
:1029A00041F42DB73EB74091150150911601241BFB
:1029B000350BE091D107F091D207E217F307A0F4AD
:1029C0002E1B3F0B2817390778F0AC014E5F5F4F85
:1029D0002417350748F04E0F5F1F5093D2074093DE
:1029E000D107819391939FCFF0E0E0E09CCFCF930C
:1029F000DF930097E9F0FC01329713821282A091D5
:102A0000D307B091D407ED0130E020E01097A1F496
:102A100020813181820F931F2091D1073091D207FD
:102A20002817390709F061C0F093D207E093D10766
:102A3000DF91CF910895EA01CE17DF07E8F54A81CB
:102A40005B819E0141155105B1F7E901FB83EA83E2
:102A500049915991C40FD51FEC17FD0761F480818E
:102A600091810296840F951FE90199838883828161
:102A700093819B838A83F0E0E0E012968D919C9194
:102A800013970097B9F52D913C911197CD010296BE
:102A9000820F931F2091D1073091D2072817390751
:102AA00039F6309751F51092D4071092D307B093AE
:102AB000D207A093D107BCCFD383C2834081518179
:102AC000840F951FC817D90761F44E5F5F4F888147
:102AD0009981480F591F518340838A819B81938339
:102AE00082832115310509F0B0CFF093D407E0932C
:102AF000D3079ECFFD01DC01C0CF13821282D7CF56
:102B0000B0E0A0E0E6E8F5E10C94B2128C01009789
:102B100051F4CB010E945B148C01C801CDB7DEB724
:102B2000E0E10C94CE12FC01E60FF71F9C0122504D
:102B30003109E217F30708F49DC0D901CD91DC916A
:102B40001197C617D70798F0C530D10530F3CE01DD
:102B500004978617970708F3C61BD70B2297C193D4
:102B6000D1936D937C93CF010E94F714D6CF5B0174
:102B7000AC1ABD0A4C018C0E9D1EA091D307B091DA
:102B8000D407512C412CF12CE12C109731F5809178
:102B9000D1079091D2078815990509F05CC04616B7
:102BA000570608F058C080911101909112010097CA
:102BB00041F48DB79EB74091150150911601841BC9
:102BC000950BE817F90708F055C0F093D207E0938A
:102BD000D107F90171836083A0CF8D919C911197EA
:102BE00012966C90129713967C901397A815B905BE
:102BF00059F56C0142E0C40ED11CCA14DB0420F16B
:102C0000AC014A195B09DA011296159780F06282CD
:102C1000738251834083D9016D937C93E114F10455
:102C200071F0D7011396FC93EE93129776CF22960C
:102C30008C0F9D1FF90191838083F301EFCFF093F7
:102C4000D407E093D30769CF4816590608F42C013E
:102C50007D01D3019ACFCB010E945B147C010097C8
:102C600049F0AE01B8010E943D16C8010E94F71458
:102C7000870153CF10E000E050CFFB01DC0102C020
:102C800001900D9241505040D8F70895FB01DC01AE
:102C900001900D920020E1F7089513E0C6E7D3E01C
:102CA00004C0FE010E9455142196C737D107C9F709
:042CB000F894FFCFC6
:102CB40010FFFFFFFF00E100000000000001000022
:102CC400000000D507800000C180810000000000E2
:102CD4000000FF036A05200415046604240442046A
:102CE400000000004306EF056C076B07656D707408
:0A2CF400792100437261736821002A
:00000001FF
