:100000000C94770B0C949F0B0C949F0B0C949F0BF0
:100010000C949F0B0C949F0B0C949F0B0C949F0BB8
:100020000C949F0B0C949F0B0C9458120C94C712B9
:100030000C949F0B0C949F0B0C949F0B0C949F0B98
:100040000C949F0B0C949F0B0C949F0B0C949F0B88
:100050000C949F0B0C949F0B0C949F0B0C94F91415
:100060000C949F0B0C949F0B0C949F0B0C949F0B68
:100070000C949F0B0C949F0B0C949F0B0C949F0B58
:100080000C9443150C949F0B0C949F0B0C949F0B9A
:100090000C949F0B0C949F0B0C949F0B0C949F0B38
:1000A0000C949F0B0C949F0B0C949F0B0000000072
:1000B000003E5B4F5B3E3E6B4F6B3E1C3E7C3E1CEE
:1000C000183C7E3C181C577D571C1C5E7F5E1C0034
:1000D000183C1800FFE7C3E7FF0018241800FFE7EB
:1000E000DBE7FF30483A060E2629792926407F05AE
:1000F0000507407F05253F5A3CE73C5A7F3E1C1CC4
:1001000008081C1C3E7F14227F22145F5F005F5F83
:1001100006097F017F006689956A6060606060946F
:10012000A2FFA29408047E040810207E2010080874
:100130002A1C08081C2A08081E101010100C1E0C7F
:100140001E0C30383E3830060E3E0E060000000011
:100150000000005F00000007000700147F147F14F8
:10016000242A7F2A1223130864623649562050003D
:1001700008070300001C2241000041221C002A1C29
:100180007F1C2A08083E0808008070300008080814
:100190000808000060600020100804023E51494534
:1001A0003E00427F400072494949462141494D3352
:1001B0001814127F1027454545393C4A49493141B9
:1001C000211109073649494936464949291E000087
:1001D00014000000403400000008142241141414DC
:1001E0001414004122140802015909063E415D59C8
:1001F0004E7C1211127C7F494949363E41414122D1
:100200007F4141413E7F494949417F090909013EFA
:10021000414151737F0808087F00417F4100204021
:10022000413F017F081422417F404040407F021C33
:10023000027F7F0408107F3E4141413E7F0909094A
:10024000063E4151215E7F09192946264949493216
:1002500003017F01033F4040403F1F2040201F3FDC
:100260004038403F63140814630304780403615961
:10027000494D43007F4141410204081020004141A3
:10028000417F04020102044040404040000307084F
:100290000020545478407F2844443838444444284B
:1002A000384444287F385454541800087E090218F2
:1002B000A4A49C787F0804047800447D400020407A
:1002C000403D007F1028440000417F40007C0478BE
:1002D00004787C080404783844444438FC18242406
:1002E0001818242418FC7C08040408485454542486
:1002F00004043F44243C4040207C1C2040201C3C03
:100300004030403C44281028444C9090907C4464F9
:10031000544C44000836410000007700000041368C
:10032000080002010204023C2623263C1EA1A16112
:10033000123A4040207A3854545559215555794144
:100340002154547841215554784020545579400C1B
:100350001E527212395555555939545454593955FC
:100360005454580000457C410002457D420001453F
:100370007C40F0292429F0F0282528F07C545545AC
:10038000002054547C547C0A097F4932494949323F
:100390003248484832324A4848303A4141217A3A54
:1003A00042402078009DA0A07D39444444393D401E
:1003B00040403D3C24FF2424487E4943662B2FFCCB
:1003C0002F2BFF0929F620C0887E09032054547979
:1003D000410000447D413048484A32384040227A4A
:1003E000007A0A0A727D0D19317D2629292F2826C7
:1003F0002929292630484D402038080808080808CF
:100400000808382F10C8ACBA2F102834FA00007B27
:10041000000008142A142222142A1408950022002D
:1004200095AA005500AAAA55AA55AA000000FF00E7
:10043000101010FF00141414FF001010FF00FF1024
:1004400010F010F0141414FC001414F700FF000056
:10045000FF00FF1414F404FC141417101F10101FD5
:10046000101F1414141F00101010F0000000001FC3
:10047000101010101F10101010F010000000FF10CE
:100480001010101010101010FF10000000FF1400CA
:1004900000FF00FF00001F10170000FC04F41414FC
:1004A0001710171414F404F40000FF00F7141414C8
:1004B00014141414F700F7141414171410101F1048
:1004C0001F141414F4141010F010F000001F101F6B
:1004D0000000001F14000000FC140000F010F010D9
:1004E00010FF10FF141414FF141010101F00000050
:1004F00000F010FFFFFFFFFFF0F0F0F0F0FFFFFF54
:100500000000000000FFFF0F0F0F0F0F38444438AA
:10051000447C2A2A3E147E02020606027E027E02E5
:1005200063554941633844443C04407E201E200604
:10053000027E020299A5E7A5991C2A492A1C4C7241
:1005400001724C304A4D4D303048784830BC625AC8
:10055000463D3E494949007E0101017E2A2A2A2A58
:100560002A44445F444440514A444040444A514034
:100570000000FF0103E080FF000008086B6B0836F5
:1005800012362436060F090F060000181800000066
:100590001010003040FF0101001F01011E00191D55
:1005A0001712003C3C3C3C0000000000F0F89C8E20
:1005B0008783878E9CF8F00000FEFF03030303038C
:1005C000070EFCF80000FEFF0303030303070EFC05
:1005D000F80000FFFF00000000000000FFFF000027
:1005E000FEFF8383838383C7EE7C380000F8FC0E14
:1005F00007030303070EFCF800003F7FE0C0808084
:10060000C0E07F3FFFFF01010101010101FFFF0089
:1006100000FFFF0C0C0C0C1C3E77E3C100007FFFB9
:10062000C0C0C0C0C0E0703F1F00001F3F70E0C0EE
:10063000C0C0E0703F1F00007FFFC1C1C1C1C1E366
:10064000773E1C00001F3F70E0C0C0C0E0703F1F3D
:10065000000000000001FFFF01000000D5F08D1434
:10066000A1C881CFD9F1AF2000400196009001963A
:1006700000400196009001960076025E010080FF26
:10068000FFFFFFFFFFFFFFFFFFFF3FBF3FFF3FBF3A
:100690003FFF3FFF3FBFFF3FBFFFFFFFFFFFFFFFEA
:1006A000FFFFFFFFFF3FBF3FFF3FFF3FFF3FBF3F5A
:1006B000FF3FFF3FBF7FFFFFFF3FFF3FBFFFBF3F4A
:1006C000BFFF3FBF3FFF3FBF3FBF3FFF3FBF3FFFBA
:1006D000FFFFFFFFFFFFFFFFFFFFFFFF3FBFFF3FEA
:1006E000FF3FFF3FBF3FFF3FFF3FFF3FFF3FFF3F5A
:1006F000FF3FBFFFFFFFFFFFFFFFFFFFFFFFFFFF0A
:10070000FFFFFFFFFFFFFFFFFFFFF8FEF9FFF8FE0F
:10071000F8FFF8FFFAF8FFF8FAFFFFFFFFFFFFFF0F
:10072000FFFFFFFFFFF8FEF8FFFCFBFCFFF8FBF804
:10073000FFF8FFF8FBFCFFFBFCFFFFFAF8FFFFF8F8
:10074000FFFFF8FBF8FFF8FFFCFFF8FFF8FDFCFFE8
:10075000FFFFFFFFFFFFFFFFFFFFFFFFFAF8FFF8BC
:10076000FBF8FFF8FEF9FFFCFBFCFFF8FFFCFBFCCD
:10077000FFF8FAFFFFFFFFFFFFFFFFFFFFFFFFFF95
:10078000FFFFFFFFFFFFFFFFFFFFFFFFFFFFFF0078
:100790000000FFFFFFFFFFFFFFFFFFFFFFFFFFFF67
:1007A000FFFFFFFFFFFFFFFFFFFFFFFFFFFFFFFF59
:1007B000FFFFFFFFFFFFFFFFFF000000FFFFFFFF46
:1007C000FFFFFFFFFFFFFFFFFFFFFFFFFFFFFFFF39
:1007D000FFFFFFFFFFFFFFFFFFFFFFFFFF7FFFFFA9
:1007E000FFFFFFFF43FFFFFFFFFFFFFFFFFFFFFFD5
:1007F000FFFFFFFFFFFFFFFFFFFFFFFFFFFFFFFF09
:10080000FFFFFFFFFFFFFFFFFFFFFFFFFFFFFFB83F
:10081000D8B8FFFFFFFFFFFFFFFFFFFFFFFFFFFF56
:10082000FFFFFFFFFFFFFFFFFFFFFFFFFFFFFFFFD8
:100830001F1F1FFFFF5FBFFFFFF8F8F8FFFFFFFF5D
:10084000FFFFFFFFFFFFFFFFFFFFFFFFFFFFFFFFB8
:10085000FFFFFFFFFFFFFFFFFFFFFFFF1F141FFF53
:100860005FBFFF030303FFFFFFFFFFFFFFFFFFFF6C
:10087000FFFFFFFFFFFFFFFFFFFFFFFFFFFFFF0087
:100880000000000000000000000000000000000068
:100890000000000000F2F4F2000000000000000080
:1008A0000000000000000000000000000000000048
:1008B000000000000000000000000040204007F79A
:1008C000F7F0000000000000000000000000000041
:1008D0000000000000000000000000000000000018
:1008E000000000000000000000FFFFFF0002050004
:1008F00007D7070000000000000000000000000013
:1009000000000000000000000000000000000000E7
:1009100000000000007F7F7F00000000000000005A
:1009200000000000000000000000000000000000C7
:100930000000000000000000000000000000007F38
:100940007F7F0000000000000000000000000000A9
:100950000000000000000000000000000000000097
:100960000000000000000000000707070000000072
:100970000003000000000000000000000000000074
:1009800000000000C060A060C000C0E060E0C000E7
:100990000000804000C020A060C000C0E0E0E0C0D7
:1009A0000000000000000000000000000000000047
:1009B0000000000000000000000000000000000037
:1009C0000000000000000000000000000000000027
:1009D0000000000000000000000000000000000017
:1009E0000000000000000000000000000000000007
:1009F00000000000000000000000000000000000F7
:100A00000000000007080E080700070E0F0E070081
:100A1000020100000007080A0D0700070E0D0E076F
:100A200000000000000000000000000000000000C6
:100A300000000000000000000000000000000000B6
:100A400000000000000000000000000000000000A6
:100A50000000000000000000000000003E283800F8
:100A60005820180000003828380038283E00382860
:100A70003E00B8A8F80038283800382838000000B0
:100A800000000000000000000000C040C000C040A6
:100A9000C000C000C04000C04000000000000000D6
:100AA0000000000000C040C000C000C000C040C046
:100AB00000C000C04080000000C000C0400040C036
:100AC0004000C040C000C040C040C000C040C000A6
:100AD000000000000000000000000000C04000C056
:100AE00000C000C040C000C000C000C000C000C0C6
:100AF00000C04000000000000000000000000000F6
:100B000000000000000000000000070106000701CF
:100B100007000700050700070500000000000000AF
:100B2000000000000007010700030403000704079A
:100B30000007000704030004030000050700000786
:100B40000000070407000700030007000702030076
:100B50000000000000000000000000000507000782
:100B60000407000701060003040300070003040351
:100B70000007050000000000000000000000000069
:100B8000000000000000000000000000000000FF66
:100B9000FFFF000000000000000000000000000057
:100BA0000000000000000000000000000000000045
:100BB000000000000000000000FFFFFF0000000038
:100BC0000000000000000000000000000000000025
:100BD0000000000000000000000000000080000095
:100BE00000000000BC000000000000000000000049
:100BF00000000000000000000000000000000000F5
:100C0000000000000000000000000000000000479D
:100C10002747000000000000000000000000000066
:100C200000000000000000000000000000000000C4
:100C3000E0E0E00000A0400000070707000000001F
:100C400000000000000000000000000000000000A4
:100C5000000000000000000000000000E0EBE000E9
:100C6000A04000FCFCFC00000000000000000000B0
:100C7000000000000000000000000000000000FF75
:100C8000FFFFFFFFFFFFFFFFFFFFFFFFFFFFFFFF74
:100C9000FFFFFFFFFF0D0B0DFFFFFFFFFFFFFFFF3C
:100CA000FFFFFFFFFFFFFFFFFFFFFFFFFFFFFFFF54
:100CB000FFFFFFFFFFFFFFFFFFFFFFBFDFBFF808E2
:100CC000080FFFFFFFFFFFFFFFFFFFFFFFFFFFFF1B
:100CD000FFFFFFFFFFFFFFFFFFFFFFFFFFFFFFFF24
:100CE000FFFFFFFFFFFFFFFFFF000000FFFDFAFF18
:100CF000F828F8FFFFFFFFFFFFFFFFFFFFFFFFFFE9
:100D0000FFFFFFFFFFFFFFFFFFFFFFFFFFFFFFFFF3
:100D1000FFFFFFFFFF808080FFFFFFFFFFFFFFFF60
:100D2000FFFFFFFFFFFFFFFFFFFFFFFFFFFFFFFFD3
:100D3000FFFFFFFFFFFFFFFFFFFFFFFFFFFFFF8042
:100D40008080FFFFFFFFFFFFFFFFFFFFFFFFFFFFB1
:100D5000FFFFFFFFFFFFFFFFFFFFFFFFFFFFFFFFA3
:100D6000FFFFFFFFFFFFFFFFFFF8F8F8FFFFFFFFA8
:100D7000FFFCFFFFFFFFFFFFFFFFFFFFFFFFFFFF86
:100D8000FFFFFFFF3F9F5F9F3FFF3F1F9F1F3FFFF3
:100D9000FFFF7FBFFF3FDF5F9F3FFF3F1F1F1F3FE3
:100DA000FFFFFFFFFFFFFFFFFFFFFFFFFFFFFFFF53
:100DB000FFFFFFFFFFFFFFFFFFFFFFFFFFFFFFFF43
:100DC000FFFFFFFFFFFFFFFFFFFFFFFFFFFFFFFF33
:100DD000FFFFFFFFFFFFFFFFFFFFFFFFFFFFFFFF23
:100DE000FFFFFFFFFFFFFFFFFFFFFFFFFFFFFFFF13
:100DF000FFFFFFFFFFFFFFFFFFFFFFFFFFFFFFFF03
:100E0000FFFFFFFFF8F7F1F7F8FFF8F1F0F1F8FF57
:100E1000FDFEFFFFFFF8F7F5F2F8FFF8F1F2F1F849
:100E2000FFFFFFFFFFFFFFFFFFFFFFFFFFFFFFFFD2
:100E3000FFFFFFFFFFFFFFFFFFFFFFFFFFFFFFFFC2
:100E4000FFFFFFFFFFFFFFFFFFFFFFFFFFFFFFFFB2
:100E5000FFFFFFFFFFFFFFFFFFFFFFFFC1D7C7FF40
:100E6000A7DFE7FFFFFFC7D7C7FFC7D7C1FFC7D7B8
:100E7000C1FF475707FFC7D7C7FFC7D7C7FFFFFF48
:100E8000FFFFFFFFFFFFFF07F7F7F7F7FF07FFFF82
:100E9000FFFFFF07F7F7F7F7FF07F7F7F7F7FFE7AA
:100EA000E707E7E7FF07F7F7F707FF07F7F7F707A2
:100EB000FF07F7F7F7F7FF0FF7F7F70FFF07F7F75A
:100EC000F707FF07F7F7F70FFFF7F707F7F7FF0742
:100ED000F7F7F707FF07F7F7F7F7FF07F7F7F70752
:100EE000FF07F7F7F707FF07FFFFFF07FF077FFF82
:100EF000FF07FF07F7F7F70FFFFFFFFFFFFFFFE712
:100F0000E7E7E7E7FFFFFF00E7E7E7E7FF00FFFFAF
:100F1000FFFFFF00E7E7E7E7FF00FFFFFFFFFFFF3F
:100F2000FF00FFFFFF00E19979F8FF00FFFFFF00DE
:100F3000FF00FFFFFFFFFF00F9F9F900FF00E19953
:100F400079F8FF00FFFFFF00FFFFFF00FFFFFF003A
:100F5000FFFFFF00FF00FFE7E707FF00E19979F8D7
:100F6000FF00FFFFFF00FF00FFFFFF00FF00FCC3CB
:100F70003F00FF00FFFFFF00FFFFFFE7E7E7E7FF9E
:100F8000FFFFFFFFFFFFFFF0F1F1F1F1FFF0F1F1E3
:100F9000F1F1FFF0F1F1F1F1FFF0F1F1F1F1FFFF0B
:100FA000FFF0FFFFFFF0FFFFFEF1FFF0F1F1F1F0C6
:100FB000FFF0F1F1F1F1FFF03FBFBFB0FFB07FFFF5
:100FC0007EB1FFF0F1F1F1F8FFF1F1F0F1F1FFF096
:100FD000F1F1F1F0FFF0F1F1F1F0FFF0FFFFFEF1C0
:100FE000FFF0F1F1F1F0FFF0F1F1F1F0FFF0FFFFB0
:100FF000F8F0FFF0F1F1F1F8FFFFFFFFFFFFFFFF57
:10100000FFFFFFFFFFFFFFFFFFFFFFFFFFFFFFFFF0
:10101000FFFFFFFFFFFFFFFFFFFFFFFFFFFFFFFFE0
:10102000FFFFFFFFFFFFFFFFFFFFFFFFFFFFFFFFD0
:10103000FFFFFFFFFFFFF3FCFDFDFDFFF7FBFCF8EB
:10104000F7FFFFFFFFFFFFFFFFFFFFFFFFFFFFFFB8
:10105000FFFFFFFFFFFFFFFFFFFFFFFFFFFFFFFFA0
:10106000FFFFFFFFFFFFFFFFFFFFFFFFFFFFFFFF90
:10107000FFFFFFFFFFFFFFFFFFFFFFFFFFFFFF007F
:101080000000000000000000000000000000000060
:101090000000000000000000000000000000000050
:1010A0000000000000000000000000000000000040
:1010B0000000000000000000000000000000000030
:1010C0000000000000000000000000000000000020
:1010D0000000000000000000000000000000000010
:1010E0000000000000000000000000000000000000
:1010F00000000000000000000000000000000000F0
:1011000000000000000000000000000000000000DF
:1011100000000000000000000000000000000000CF
:1011200000000000000000000000000000000000BF
:1011300000000000000000000000000000000000AF
:10114000000000000000000000000000000000009F
:10115000000000000000000000000000000000008F
:10116000000000000000000000000000000000007F
:10117000000000000000000000000000000000006F
:10118000000000000000000000000000000000005F
:10119000000000000000000000000000000000004F
:1011A000000000000000000000000000000000003F
:1011B000000000000000000000000000000000002F
:1011C000000000000000000000000000000000001F
:1011D000000000000000000000000000000000000F
:1011E00000000000000000000000000000000000FF
:1011F00000000000000000000000000000000000EF
:1012000000000000000000000000000000000000DE
:1012100000000000000000000000000000000000CE
:1012200000000000000000000000000000000000BE
:1012300000000000000000000000000000000000AE
:10124000000000000000000000000000000000009E
:10125000000000000000000000000000000000008E
:10126000000000000000000000000000000000007E
:10127000000000000000000000000000000000006E
:1012800000000000000000F80808080800F800004E
:10129000000000F80808080800F808080808001806
:1012A00018F8181800F8080808F800F8080808F8EE
:1012B00000F80808080800F0080808F000F8080816
:1012C00008F800F8080808F0000808F8080800F80E
:1012D000080808F800F80808080800F8080808F8DE
:1012E00000F8080808F800F8000000F800F880008E
:1012F00000F800F8080808F00000000000000018DE
:1013000018181818000000FF1818181800FF00001F
:10131000000000FF1818181800FF0000000000006F
:1013200000FF000000FF1E66860700FF000000FFB0
:1013300000FF0000000000FF060606FF00FF1E661B
:10134000860700FF000000FF000000FF000000FF14
:10135000000000FF00FF001818F800FF1E66860757
:1013600000FF000000FF00FF000000FF00FF033C43
:10137000C0FF00FF000000FF000000181818180050
:10138000000000000000000F0E0E0E0E000F0E0EEB
:101390000E0E000F0E0E0E0E000F0E0E0E0E0000A3
:1013A000000F0000000F0000010E000F0E0E0E0FC8
:1013B000000F0E0E0E0E000FC040404F004F800079
:1013C000814E000F0E0E0E07000E0E0F0E0E000FB8
:1013D0000E0E0E0F000F0E0E0E0F000F0000010E6E
:1013E000000F0E0E0E0F000F0E0E0E0F000F00005E
:1013F000070F000F0E0E0E07000000000000000097
:1014000000000000000000000000000000000000DC
:1014100000000000000000000000000000000000CC
:1014200000000000000000000000000000000000BC
:101430000000000000000C03020202000804030781
:101440000800000000000000000000000000000094
:10145000000000000000000000000000000000008C
:10146000000000000000000000000000000000007C
:10147000000000000000000000000000000000FF6D
:10148000FFFFFFFFFFFFFFFFFFFFFFFFFFFFFFFF6C
:10149000FFFFFFFFFFFFFFFFFFFFFFFFFFFFFFFF5C
:1014A000FFFFFFFFFFFFFFFFFFFFFFFFFFFFFFFF4C
:1014B000FFFFFFFFFFFFFFFFFFFFFFFFFFFFFFFF3C
:1014C000FFFFFFFFFFFFFFFFFFFFFFFFFFFFFFFF2C
:1014D000FFFFFFFFFFFFFFFFFFFFFFFFFFFFFFFF1C
:1014E000FFFFFFFFFFFFFFFFFFFFFFFFFFFFFFFF0C
:1014F000FFFFFFFFFFFFFFFFFFFFFFFFFFFFFFFFFC
:10150000FFFFFFFFFFFFFFFFFFFFFFFFFFFFFFFFEB
:10151000FFFFFFFFFFFFFFFFFFFFFFFFFFFFFFFFDB
:10152000FFFFFFFFFFFFFFFFFFFFFFFFFFFFFFFFCB
:10153000FFFFFFFFFFFFFFFFFFFFFFFFFFFFFFFFBB
:10154000FFFFFFFFFFFFFFFFFFFFFFFFFFFFFFFFAB
:10155000FFFFFFFFFFFFFFFFFFFFFFFFFFFFFFFF9B
:10156000FFFFFFFFFFFFFFFFFFFFFFFFFFFFFFFF8B
:10157000FFFFFFFFFFFFFFFFFFFFFFFFFFFFFFFF7B
:10158000FFFFFFFFFFFFFFFFFFFFFFFFFFFFFFFF6B
:10159000FFFFFFFFFFFFFFFFFFFFFFFFFFFFFFFF5B
:1015A000FFFFFFFFFFFFFFFFFFFFFFFFFFFFFFFF4B
:1015B000FFFFFFFFFFFFFFFFFFFFFFFFFFFFFFFF3B
:1015C000FFFFFFFFFFFFFFFFFFFFFFFFFFFFFFFF2B
:1015D000FFFFFFFFFFFFFFFFFFFFFFFFFFFFFFFF1B
:1015E000FFFFFFFFFFFFFFFFFFFFFFFFFFFFFFFF0B
:1015F000FFFFFFFFFFFFFFFFFFFFFFFFFFFFFFFFFB
:10160000FFFFFFFFFFFFFFFFFFFFFFFFFFFFFFFFEA
:10161000FFFFFFFFFFFFFFFFFFFFFFFFFFFFFFFFDA
:10162000FFFFFFFFFFFFFFFFFFFFFFFFFFFFFFFFCA
:10163000FFFFFFFFFFFFFFFFFFFFFFFFFFFFFFFFBA
:10164000FFFFFFFFFFFFFFFFFFFFFFFFFFFFFFFFAA
:10165000FFFFFFFFFFFFFFFFFFFFFFFFFFFFFFFF9A
:10166000FFFFFFFFFFFFFFFFFFFFFFFFFFFFFFFF8A
:10167000FFFFFFFFFFFFFFFFFFFFFFFFFFFFFF0871
:101680000B00020202000009040000010202000037
:10169000052400100105240101010424020605248B
:1016A0000600010705810310004009040100020A39
:1016B0000000000705020240000007058302400009
:1016C000000403090412010002EF02014041233625
:1016D0008000010102030141726475696E6F204C44
:1016E0004C430041726475626F790000D715112474
:1016F0001FBECFEFDAE0DEBFCDBF11E0A0E0B1E06A
:10170000E6E9FFE302C005900D92A43BB107D9F7CB
:101710002AE0A4EBB1E001C01D92A435B207E1F7C5
:101720001BE0C7E7DBE004C02197FE010E94C31F56
:10173000C637D107C9F70E9436160C94C91F0C94FE
:1017400000008091BD010895E7EFF1E0A0E0B8E06E
:1017500000800EBC8111012C1197A0FDFDCF0192DC
:10176000B9F70DB408954F925F926F927F928F9266
:101770009F92AF92BF92CF92DF92EF92FF920F9320
:101780001F93CF93DF93FB01E00FF11D1E161F0681
:101790000CF08AC0603471050CF086C0DB0177FF65
:1017A00004C0AA27BB27A61BB70BA770BB27EB015A
:1017B00077FD2796E3E0D595C795EA95E1F777FFA2
:1017C00007C0219768E070E0FB01EA1BFB0BDF011B
:1017D00030E0069506950695802E912C8A01AE0183
:1017E0005695542F442757954795480F591F4950F0
:1017F0005E4FBE01E0E8F0E07F01E81AF90A88E0F8
:1018000090E03C016A1A7B0A6F3FFFEF7F070CF400
:101810003BC090E080E05A01E0E8AE0EB11C6F3FA3
:10182000760709F452C0FC01E00FF11FE4916A0150
:10183000C80ED91EF0E02F010A2E01C0440C0A94F4
:10184000EAF7F6015080452840821097B1F06730E2
:10185000710599F0F801E80FF91FE4916501C80ED0
:10186000D91EF0E02F01062C02C0559447940A942B
:10187000E2F7F601508045284082019682179307CF
:101880001CF4E816F90659F66F5F7F4F020F131F1D
:1018900040585F4FCB018C1B9D0B8815990524F494
:1018A0006830710509F0B0CFDF91CF911F910F9192
:1018B000FF90EF90DF90CF90BF90AF909F908F9070
:1018C0007F906F905F904F900895109709F0C2CF6E
:1018D000D4CFFC018091F601882311F13FB7F89431
:1018E00082E08093E9002091F200822F90E01816A8
:1018F000190614F481E090E0882339F0289844E632
:101900004093F5014091F1004083222339F020916A
:10191000F200211103C02BE62093E8003FBF089599
:101920008FEF9FEF08952FB7F89483E08093E9003D
:101930009091E800892F807295FF04C09091F20089
:1019400080E4891B2FBF08958091ED0181110DC0A6
:1019500082E08093E90184E08093EA011092EC0137
:101960001092EB0181E08093ED0189EE91E0089502
:10197000CF93DF931F92CDB7DEB76983DC01ED9182
:10198000FC910280F381E02D41E050E0BE016F5FE9
:101990007F4F09950F90DF91CF91089583E0809359
:1019A000E9008091F200882319F08AE38093E8002F
:1019B00008950E94930C90E00895CF93DF931F92B7
:1019C000CDB7DEB7FC018485958597FD08C02FEF64
:1019D0003FEF358724870F90DF91CF910895CE0197
:1019E00001960E94690C019719F4898190E0F3CF68
:1019F0008FEF9FEFF0CF0F931F93CF93DF931F9243
:101A0000CDB7DEB78C01FC018485958597FF0BC0AF
:101A1000CE0101960E94690C019771F4898190E0D2
:101A2000F80195878487F801848595850F90DF916B
:101A3000CF911F910F9108958FEF9FEFF1CFFC0190
:101A40008485958597FD0BC09FB7F89482E08093BD
:101A5000E9008091F2009FBF90E0019608959FB742
:101A6000F89482E08093E9008091F2009FBF90E0BB
:101A700008954091E3015091E4012091E1013091FA
:101A8000E20142175307B4F49091E8009570E1F336
:101A90009091E80092FD19C08093F1008091E301DC
:101AA0009091E40101968F739927892B19F48EEF99
:101AB0008093E8008091E3019091E4010196909376
:101AC000E4018093E30181E0089580E00895DF92CE
:101AD000EF92FF920F931F93CF93DF93D82E8A013B
:101AE000EB017B01E40EF51ECE15DF0559F0D7FEA4
:101AF00012C0FE0184910E94390D21968111F4CF0C
:101B00000FEF1FEFC801DF91CF911F910F91FF9051
:101B1000EF90DF9008958881EECF0F931F93CF93BE
:101B2000DF931F92CDB7DEB782E0898342E450E0B5
:101B30006FE776E180E80E94670D0E94A40CDC014B
:101B400012960D911C910115110589F0D801ED91A6
:101B5000FC910280F381E02DBE016F5F7F4FC801D1
:101B6000099597FD04C0F80100851185ECCF8981A6
:101B70000F90DF91CF911F910F910895615030F038
:101B80002091F100FC0120830196F8CF289884E68B
:101B90008093F50108953FB7F8948091DD0190910D
:101BA000DE01A091DF01B091E00126B5A89B05C040
:101BB0002F3F19F00196A11DB11D3FBFBA2FA92FCC
:101BC000982F8827BC01CD01620F711D811D911DC9
:101BD00042E0660F771F881F991F4A95D1F7089535
:101BE0008F929F92AF92BF92CF92DF92EF92FF922D
:101BF0006B017C010E94CB0D4B015C01C114D1042F
:101C0000E104F104B9F00E94CB0D681979098A0941
:101C10009B09683E73408105910580F321E0C21A5B
:101C2000D108E108F10888EE880E83E0981EA11C17
:101C3000B11CE4CFFF90EF90DF90CF90BF90AF90BA
:101C40009F908F9008958F929F92AF92BF92CF9264
:101C5000DF92EF92FF920F931F93CF93DF936C016C
:101C60007B018A0180910E01882309F45CC0809178
:101C7000F601882309F457C08091E80180FF05C070
:101C80008091E00082608093E000E801B12C8AEF4F
:101C9000A82E93E0892E2AE3922E209711F4BB20E0
:101CA000D9F10E94930C81110AC0AA94AA20D9F1FB
:101CB00061E070E080E090E00E94F00DEECF8C17C4
:101CC0001D0611F00CF08C2F9FB7F8948092E9005C
:101CD0002091E80025FD02C09FBFDFCF282F30E014
:101CE000C21BD30BF701815020F041914093F100CA
:101CF000FACFE20EF31EBB2021F09092E800B12C47
:101D0000EBCF8091E80085FDE7CF9092E800BB24FF
:101D1000B394209709F3F3CF5D9884E68093E701AD
:101D2000101611063CF081E090E0F6019383828367
:101D300010E000E0C801DF91CF911F910F91FF905B
:101D4000EF90DF90CF90BF90AF909F908F900895CD
:101D5000EF92FF920F931F93CF93DF93282FC091A1
:101D6000C701D091C801E8E6F6E0B0E0A0E080E06D
:101D700030E08901055011092B5F3F4FEE24FF240D
:101D8000E61AF70AAC17BD079CF441815281461749
:101D9000570759F4408150E04017510734F0241799
:101DA00035071CF0F282E18281E011963596EACF88
:101DB000DF91CF911F910F91FF90EF900895AF9217
:101DC000BF92CF92DF92EF92FF920F931F93CF9328
:101DD000DF936C017B018B01040F151FEB015E018A
:101DE000AE18BF08C017D10759F06991D601ED911F
:101DF000FC910190F081E02DC6010995892B79F7BE
:101E0000C501DF91CF911F910F91FF90EF90DF906F
:101E1000CF90BF90AF9008952091FB05E091F90518
:101E2000F091FA05CF0102969093FA058093F90597
:101E3000222319F0859194910895808191810895CC
:101E4000CF92DF92EF92FF92CF93DF930E940C0F1D
:101E5000811520E8920791F4809171008D7F809325
:101E6000710010929100469847981092B601DF9148
:101E7000CF91FF90EF90DF90CF90089521E02093D5
:101E8000B601813020E8920751F48091F7059091D6
:101E9000F8059093FA058093F9050E940C0F97FDC1
:101EA00005C02091B501222309F454C02091B4014A
:101EB000211150C021E02093B701EC01DF7720977A
:101EC00009F04BC081E08093B80146983FE9C32EEA
:101ED0003FE0D32EE12CF12CCAEFD0E0E0915A067E
:101EE000F0915B060995811103C081E08093B801F0
:101EF0008091B701882329F08091B801882309F4E3
:101F00003FC047980E940C0F0097F1F19C01DE0141
:101F10000E947C1DDC01CB0129E0B595A795979522
:101F200087952A95D1F7109290002AE0209391008E
:101F3000D0929900C09298008093B9019093BA0111
:101F4000A093BB01B093BC0180917100826080932B
:101F500071008DCF1092B701B0CF9E0150E040E0EC
:101F600060E472E48FE090E00E94281D69017A012C
:101F700081E0C81AD108E108F1081092B801AECF8B
:101F80004699BFCF479ABECF8FEF9FEFDC01CBCFF3
:101F90009C01E1E7F0E090819D7F90831092FB052A
:101FA000ECE4F6E0F093FA05E093F905F093F80518
:101FB000E093F7053183208382E390E0938382836B
:101FC00080E090E8958384830C94200FCF93DF9377
:101FD000EC018C818823C9F11C82688179818D8113
:101FE00090E00E94A80E882309F447C080917100F8
:101FF0008D7F809371001092FB058CE496E09093A6
:10200000FA058093F9059093F8058093F70588EC1D
:1020100090E090934D0680934C0680E590E090937D
:102020004F0680934E062AEF30E0309351062093FE
:102030005006909353068093520680E090E8909368
:102040005506809354060E94200F6A817B816F376A
:10205000710584F4072E000C880B990B0E94A21EB8
:1020600020E030E040E050E40E948C1D0E946A1E97
:102070007B836A83DF91CF91089588EC90E00E9482
:10208000C80FE3CF2D9A0895BC0190E080E00C9436
:10209000F00D8FB18095807F669B88601C9B84606B
:1020A000089520E191E061FD94E060FD990F62FDEB
:1020B0009295687F269FD0011124A80FA950BE4F8A
:1020C0008C9140FF03C0892B8C93089590958923B0
:1020D000FBCF6F927F928F929F92AF92BF92CF92DF
:1020E000DF92EF92FF920F931F93CF93DF936D30A8
:1020F00089F0C090D301D090D4016A30E1F41092FD
:10210000D2011092D10188E0C80ED11CD092D40126
:10211000C092D30181E090E0DF91CF911F910F91A8
:10212000FF90EF90DF90CF90BF90AF909F908F90F7
:102130007F906F90089560900201E090D101F0903F
:10214000D201E5E06E9FE0011124C455DF4F570135
:1021500000E010E0053029F0CE010196FE01149157
:10216000EC01460188E0782E412F417010FD23C01C
:10217000662061F0F0E8AF16B10440F480E4881600
:10218000910420F4B401C5010E94511016957A946F
:10219000EFEF8E1A9E0A7110E7CF0F5FFFEFAF1AB5
:1021A000BF0A0630B1F686E0E80EF11CF092D201CB
:1021B000E092D101AFCF462DDDCF9091D50198238C
:1021C00029F49091D601982381E009F480E00895E4
:1021D000CF93C82F0E944910982F9C2381E09C1315
:1021E00080E0CF91089580E00C94A40B8F929F9291
:1021F000AF92BF92CF92DF92EF92FF920F93CF9365
:10220000DF935B01EC014C01840E911C6B01C20E4B
:10221000D11CC815D905ECF47501B7FE02C0F12C2C
:10222000E12CC60121E4C216D10414F080E490E050
:10223000E816F90664F4C038D1052CF4402FB70134
:10224000CE010E9451108FEFE81AF80AEACF2196CA
:10225000E0CFDF91CF910F91FF90EF90DF90CF9083
:10226000BF90AF909F908F900895809171008D7F67
:10227000809371001092FB058CE496E09093FA0530
:102280008093F9059093F8058093F7058EE690E02A
:1022900090934D0680934C0686E490E090934F0611
:1022A00080934E0688E790E0909351068093500605
:1022B0008CE390E0909353068093520680E590E083
:1022C000909355068093540684E690E090935706C9
:1022D000809356060E94200F8091CE0190910101BB
:1022E0009093CE0180930101E8E6F6E081E090E072
:1022F0001082928381831482138235962AE0E0351E
:10230000F207B1F71092C8011092C70182E08093E2
:10231000D70108950F930091CE0120E240E870E0CC
:1023200060E090E080E00E94F6100091010120E260
:1023300040E860E270E090E080E00E94F6100F91CB
:1023400008951092C5011092C40185E08093C601E2
:102350001092CA011092C9011092CC011092CB01C7
:10236000ECE5F6E081E090E0918380838FE790E0F8
:1023700093838283148224E325832FEF3FEF3783F7
:1023800026839187808712868CE483870895089539
:1023900090E080E008958F929F92AF92BF920F934A
:1023A0001F93CF93DF93CDB7DEB7A1970FB6F89405
:1023B000DEBF0FBECDBF19A2423008F44AE08E0145
:1023C0000F5D1F4F842E912CB12CA12CA5019401DF
:1023D0000E945A1DE62FB901CA01EA3044F5E05DBA
:1023E000D801EE938D01232B242B252B79F790E038
:1023F00080E0109769F0FD0101900020E9F7319726
:10240000AF014A1B5B0BBD0180E59AE00E94DF0E25
:10241000A1960FB6F894DEBF0FBECDBFDF91CF916E
:102420001F910F91BF90AF909F908F900895E95C9E
:10243000D7CFFC0101900020E9F73197AF01481B8D
:10244000590BBC0180E59AE00C94DF0ECF92DF922D
:10245000EF92FF92CF93DF936C01990FEE08FF0884
:10246000F7FE19C06DE280E59AE00E946910EC0168
:1024700066277727CB016C197D098E099F094AE0F1
:102480000E94CB118C0F9D1FDF91CF91FF90EF9099
:10249000DF90CF9008954AE0C701B601DF91CF9158
:1024A000FF90EF90DF90CF900C94CB110C94121D05
:1024B0001F920F920FB60F9211248F939F938091CA
:1024C000E1009091E100937F9093E10083FF0FC0C2
:1024D0001092E90091E09093EB001092EC0092E3EF
:1024E0009093ED001092F60198E09093F00082FF37
:1024F00022C093E09093E9009091F200992319F0A3
:102500009AE39093E8009091E701992341F090912C
:10251000E70191509093E701911101C05D9A90916C
:10252000F501992341F09091F50191509093F501B7
:10253000911101C0289A84FF18C08091E2008E7E1C
:1025400081608093E2008091E1008F7E8093E100C2
:102550008091E8018E7E80618093E8019F918F9148
:102560000F900FBE0F901F90189580FFF7CF8091AE
:10257000E2008E7E80618093E2008091E1008E7E99
:102580008093E1008091E8018E7E8160E5CF1F920B
:102590000F920FB60F921124CF92DF92EF92FF921B
:1025A0000F931F932F933F934F935F936F937F935B
:1025B0008F939F93AF93BF93EF93FF93CF93DF934B
:1025C000CDB7DEB76C97DEBFCDBF1092E90080912A
:1025D000E80083FF25C068E0CE0145960E94BE0D4D
:1025E00082EF8093E8008D8987FF39C09091E800E1
:1025F00090FFFCCF982F907609F034C19E894F89C7
:10260000588D2F89F88C911131C0803861F58091F7
:10261000E6018093F1001092F1008EEF8093E800C4
:102620006C960FB6F894DEBF0FBECDBFDF91CF9191
:10263000FF91EF91BF91AF919F918F917F916F919A
:102640005F914F913F912F911F910F91FF90EF90CC
:10265000DF90CF900F900FBE0F901F9018959EEFB8
:102660009093E800C7CF1092F100D5CF913059F484
:102670008111D3CF4130510581F68091E6018D7FE4
:102680008093E601CACF933049F48111C6CF41301F
:10269000510519F68091E6018260F2CF953041F440
:1026A0008091E80080FFFCCF20682093E300B5CF45
:1026B000963009F0A9C00B8D1C8D22E01092E90024
:1026C0001092E4011092E301F2122EC01092E20186
:1026D0001092E1010E948D0D1F8299E09983FA8288
:1026E00091E09E8390EA98879AEF99872091E30181
:1026F0003091E401275F3F4F3C832B838D83109201
:10270000E9001092E4011092E3011093E2010093BA
:10271000E10149E050E0BE016F5F7F4F80E00E9421
:10272000670D0E948D0D79CF1093E2010093E101B6
:102730000E94A40CDC0112960D911C91011511054B
:1027400009F451C1D801ED91FC910480F581E02D8F
:10275000BE016B5E7F4FC8010995009709F03EC12D
:10276000F80100851185EACFF3E0FF120EC08F89D2
:10277000882309F440C0823061F440E867E083EECA
:1027800096E10E94A415811148CF81E28093EB006D
:1027900047CF813029F440E86BE087ED96E1F1CF37
:1027A000833099F70E94A40CDC011296ED90FC9006
:1027B0008E010F5F1F4F6801E114F10479F0D7011A
:1027C000ED91FC910680F781E02DB801C7010995D4
:1027D000080F111DF701E084F184EECFD8011C929F
:1027E000F60101900020E9F73197BF016C197D09CE
:1027F00040E0C601C6CF61EC76E1FB01449150E0B8
:1028000080E80E94670D09CF973009F4BECF983059
:1028100021F481E08093F10000CF993009F0FDCEE2
:10282000837009F0B2CFE0E5F1E081E031E096E3BA
:102830002191222371F08093E9003093EB00DF01B6
:1028400011972C912093EC009093ED008F5F8730CF
:1028500079F78EE78093EA001092EA008F898093DF
:10286000F601DBCE8B8D9C8D1092E9001092E40175
:102870001092E3019093E2018093E101898D81112F
:1028800092C08E899D89913A49F4813209F07DCFB9
:1028900047E050E067E071E080E0B3CF913209F0AB
:1028A00074CF833269F48F89988DB0E0A0E0809373
:1028B000030190930401A0930501B0930601ADCEEE
:1028C000803269F48091E80082FFFCCF67E087E006
:1028D00091E00E94BE0D8BEF8093E8009ECE823285
:1028E00009F09BCE8F8980930E01EEEFFFE7859173
:1028F00094918B3F9C4D51F1E0E0F8E0809107010D
:1029000090910801A0910901B0910A01803B944087
:10291000A105B105F1F480910E0180FD1AC0EE3FD2
:102920008AE0F80789F587E797E7918380838091AC
:1029300060008093E50188E19BE00FB6F894A895CC
:10294000809360000FBE9093600067CEEEEFFAE0D8
:10295000D5CF808191818737974709F05ECEA895C2
:10296000809160008861809360008091E501809390
:102970006000EE3F2AE0F20789F08091FE0A909114
:10298000FF0A9183808349CE8081918187379807A0
:1029900051F29093FF0A8093FE0AC5CF1092FF0A6E
:1029A0001092FE0A3ACE0E94A40CDC0112960D9100
:1029B0001C910115110509F4E8CED801ED91FC91A7
:1029C0000190F081E02DBE016B5E7F4FC80109953B
:1029D000811123CEF80100851185EBCF1816190659
:1029E0000CF41BCED2CEF1E0FF12BECE65EC76E148
:1029F00004CF1F920F920FB60F9211242F933F9383
:102A00008F939F93AF93BF938091D9019091DA01F7
:102A1000A091DB01B091DC013091D80123E0230FBC
:102A20002D3758F50196A11DB11D2093D801809333
:102A3000D9019093DA01A093DB01B093DC0180917E
:102A4000DD019091DE01A091DF01B091E0010196DE
:102A5000A11DB11D8093DD019093DE01A093DF01E4
:102A6000B093E001BF91AF919F918F913F912F91D2
:102A70000F900FBE0F901F90189526E8230F029617
:102A8000A11DB11DD2CF1F920F920FB60F9211242C
:102A90002F933F934F935F936F937F938F939F9366
:102AA000AF93BF93EF93FF938091B9019091BA01D7
:102AB000A091BB01B091BC01892B8A2B8B2B09F40F
:102AC00040C08091B80181110BC088B190E4892782
:102AD00088B98091B701882319F088B1805888B9E6
:102AE0008091B9019091BA01A091BB01B091BC0154
:102AF000181619061A061B069CF48091B9019091CC
:102B0000BA01A091BB01B091BC010197A109B10923
:102B10008093B9019093BA01A093BB01B093BC011B
:102B2000FF91EF91BF91AF919F918F917F916F91A5
:102B30005F914F913F912F910F900FBE0F901F907B
:102B400018950E94200FECCFEF92FF920F931F93E6
:102B5000CF93DF93F82E192FE62E042F81E0860FF6
:102B6000880F0E94390D83E00E94390DCF2DD12F9F
:102B7000EC0EFD2EF11CCE15DF05B9F007FF13C0DA
:102B8000FE0184910E94390D182F80E00E94390DBA
:102B9000812321968111EFCFDF91CF911F910F916A
:102BA000FF90EF9008958881EDCF81E0F5CF1092EE
:102BB000FF051092FE0588EE93E0A0E0B0E0809360
:102BC000000690930106A0930206B09303068AE5DF
:102BD00091E09093FD058093FC058FEF9FEF90931C
:102BE0000906809308061092530A1092520A8CE646
:102BF00091E09093510A8093500A81EA9BE0909370
:102C00005B0680935A0680E090E890935906809383
:102C1000580646983E9A47983F9AE8E6F6E081E0E3
:102C200090E01082928381831482138235962AE089
:102C3000E035F207B1F790935D0680935C062FE7CD
:102C400030E030935F0620935E061092600610928B
:102C50006106909363068093620630936506209325
:102C6000640610926606109267060895CF93DF936C
:102C700000D01F92CDB7DEB7789484B5826084BD52
:102C800084B5816084BD85B5826085BD85B5816070
:102C900085BD80916E00816080936E0010928100EE
:102CA00080918100826080938100809181008160A9
:102CB000809381008091800081608093800080916A
:102CC0009100826080939100809191008160809357
:102CD0009100809190008160809390008091C1006C
:102CE00084608093C1008091C10082608093C100A4
:102CF0008091C10081608093C1008091C300816098
:102D00008093C3008091C00082608093C000809156
:102D1000C20081608093C20080917A0084608093B9
:102D20007A0080917A00826080937A0080917A00A4
:102D3000816080937A0080917A00806880937A0025
:102D40001092F6011092E6011092E8018091D700EE
:102D500081608093D70080EA8093D80089B5806134
:102D600089BD89B5826089BD09B400FEFDCF61E0EF
:102D700070E080E090E00E94F00D8091D8008F7CA0
:102D800080618093D8008091E000807F8093E00094
:102D90008091E1008E7E8093E1008DE08093E200DF
:102DA000559A209A0E94A11181EC80937C0085B1F4
:102DB000806F85B984B1877E84B984B1876E84B908
:102DC0005E9A5F988AB1806D8AB9769A6E9881B35F
:102DD000806F81BB899880B38D7080BB80E58CBD8E
:102DE00081E08DBD85E090E00E9444105F9A85E00F
:102DF00090E00E9444105E985C98ECE5F6E089E66D
:102E000096E024912EBD00000DB407FEFDCF319653
:102E10008E179F07B1F75C9A81E8809364008091D8
:102E200065008160809365000E94F31080E80E9435
:102E3000E8108823A9F05C9885EA8EBD00000DB4E7
:102E400007FEFDCF5C9A2E982F982D9880916400F4
:102E500080628093640081E083BF889513BEFCCFBD
:102E600084E00E94E810882309F448C02D9884E883
:102E70000E94E8108823E1F00E94421088EC90E064
:102E80000E9444102F9882E090E00E94121D8F3F14
:102E900029F06FEF82E090E00E941A1D84EF91E02C
:102EA0000E9444102F9A84E80E94E8108111FBCF01
:102EB00084E10E94E8108823E1F00E94421088EC2F
:102EC00090E00E9444102E9882E090E00E94121D33
:102ED000882329F060E082E090E00E941A1D84EFD0
:102EE00091E00E9444102E9A84E10E94E810811122
:102EF000FBCF88EC90E00E944410B2CF0E944210B9
:102F000082E090E00E945612882309F480C03E9A25
:102F10003F9A81E08093BD0181E090E00E945612CB
:102F2000182F147081FF10C011112E9821EF3FEF60
:102F30003B832A8380E40E94E810882309F46CC054
:102F40002E9A2F9A0E94421082E390E00E94441031
:102F50000E9449108111F8CF80E180930001809197
:102F600064008E7F8093640080917A0080648093F7
:102F70007A0080917A0086FDFCCF00917800109154
:102F800079000E94CB0DAB01BC01C801B0E0A0E00C
:102F9000DC01992788278C019D01040F151F261F2E
:102FA000371FC901B801209164002160209364009B
:102FB000611571058105910511F00E94091D80E5DB
:102FC000C82E8AE0D82E99E6A92E96E0B92E22E0E6
:102FD000422E512C612C712C15E08FB7F894409142
:102FE000D9015091DA016091DB017091DC018FBF52
:102FF0000091C0010983002309F474C01092C0013C
:1030000080E090E0892B49F30E940000E5CF109208
:10301000BD013E983F9880CF112339F04A815B81F2
:103020004430510511F42E9A2F9881E00E94A40B90
:1030300000E128E54CEA55E06A817B8184E190E07B
:103040000E94B30B0E94F3108FE090E00E944410A6
:103050008A819B8101969B838A83499709F06ACF75
:10306000112311F02F9A2D9880E991E00E944410CD
:103070000E94421081E090E00E94561280FF64CFCF
:103080008AE090E00E9456129FEF980F9E3F08F052
:103090005BCF22E330E03093D2012093D10128E3CB
:1030A00030E03093D4012093D3010BE010E01B8378
:1030B0000A83682F80E59AE00E9469108A819B81CB
:1030C0000E9456120A811B810F5F1F4F1B830A83C8
:1030D0000131110571F70E94F31088EE93E00E9410
:1030E000441032CF8091C101242F281B822F909150
:1030F0000001291748F48F5F891708F081CF81E01C
:1031000083BF889513BE7CCF81E08093C00140933C
:10311000C1018091BE019091BF0101969093BF01C2
:103120008093BE018091D6018093D5010E94491001
:103130008093D601E7EFF1E0398131113FEF0024B0
:1031400031933193319331930394D1F71092D40199
:103150001092D3011092D2011092D1018091D70127
:10316000813009F4B1C048F0823009F424C38330BF
:1031700009F477C30E94F31043CF80E40E94DD106E
:10318000882369F08091CF019091D001019683301E
:1031900091050CF067C09093D0018093CF0180E23D
:1031A0000E94DD10882359F08091CF019091D001C9
:1031B000019797FD5CC09093D0018093CF0140911F
:1031C000CF015091D0015B834A83F090CE0100E49F
:1031D00020E84230510509F465C04FE752E1FF2075
:1031E00011F04FE75EE070E060E090E080E00E9468
:1031F000B30B8A819B81892BE9F51092CD0187E180
:1032000090E09093D2018093D1018CE290E0909372
:10321000D4018093D301F092020184E791E00E94EF
:10322000191288E00E94DD10811110C080E10E9417
:10323000DD1081110BC084E00E94DD10811106C0F9
:1032400080E80E94DD10882309F494CF8091CF019B
:103250009091D001029799F10E94A11181E0809391
:10326000D70188CF1092D0011092CF0198CF82E081
:1032700090E0A1CFEA81FB81319799F681E08093BC
:10328000CD0183E190E09093D2018093D1018CE253
:1032900090E09093D4018093D301F092020183E8EF
:1032A00091E0BDCF4FE75AE0FF2011F04FE756E025
:1032B00070E060E090E080E00E94B30BB2CF10922B
:1032C000D0011092CF0156CF0E948A1188E00E944F
:1032D000E81081111CC180E80E94E810811117C11B
:1032E00080E20E94E810811112C18CE596E00E94F4
:1032F000E60F84E00E94E810811122C180E10E9463
:10330000E81081111DC180E40E94E810811118C1EC
:1033100082E696E00E94E60F8091D7018130B1F4F9
:1033200080915E0690915F06181619063CF4809114
:103330006406909165061816190644F081E090E045
:103340009093C3018093C2010E94351160915E0683
:1033500070915F06072E000C880B990B0E94A21E2D
:1033600020E030E04EEF52E40E94F81D20E030E013
:1033700040ED51E40E942E1F0E946A1E409160069B
:103380000AEF0403A001112420E230E0261B370BD2
:10339000FA01E20FF31F3091610600910101262F1F
:1033A00046E0BF01832F90E00E94F6106091640612
:1033B00070916506072E000C880B990B0E94A21EC7
:1033C00020E030E04EEF52E40E94F81D20E030E0B3
:1033D00040ED51E40E942E1F0E946A1E262F60912C
:1033E000660636E0639FB0011124605E7F4F8091D6
:1033F00067060091CE0146E090E00E94F6108091B1
:10340000CD01813009F0BEC08091C9019091CA01FF
:1034100068ED7FEF0E94AF1F6B5F633008F4A9C0B7
:103420006093C6016091C60146E0649FB00111241B
:103430008091CB019091CC010E949B1F892BC9F5F3
:103440000E94BA1CA30192010E94281D672B682BC1
:10345000692B09F092C081E090E09B838A830E94EF
:10346000BA1CA30192010E94281D21E030E040E037
:10347000672B682B692B19F02FEF3FEF4FE78091F7
:10348000C7019091C801883C91059CF4189FF001F8
:10349000199FF00D1124E859F94F40834A815B814F
:1034A000528341833483238301969093C801809390
:1034B000C70190E080E02091C7013091C8018217D8
:1034C00093070CF0D6C0189FD001199FB00D11249E
:1034D000A859B94F4C9113965C911397450F4C9393
:1034E00047FF13C021503109129FF001139FF00DC7
:1034F0001124E859F94F45E001900D924A95E1F702
:103500003093C8012093C70101970196D4CF8091D1
:103510006006811104C088E592E00E94C80F81E036
:103520008093600680915E0690915F0618161906DA
:103530000CF0DFCE049790935F0680935E06D9CEA1
:1035400080916606811104C088E592E00E94C80F50
:1035500081E0809366068091640690916506181656
:1035600019060CF0D9CE04979093650680936406F3
:10357000D3CE83E08093C60155CFEFEFFFEFFB83FF
:10358000EA836DCF811195CF8091CB019091CC01D1
:1035900064E270E00E949B1F892BE9F58091C401D1
:1035A0009091C5018E319105B0F5FC01EF5CFE4FA5
:1035B0002081222359F161E070E0213011F06FEF9A
:1035C0007FEFFC01ED5EFE4F4081042E000C550B99
:1035D000A0E04130510509F0AFE72091C7013091DB
:1035E000C801283C310594F4129FF001139FF00D9F
:1035F0001124E859F94FA083728361835483438374
:103600002F5F3F4F3093C8012093C70101969093DD
:10361000C5018093C4018091C9019091CA01883C81
:1036200091050CF446CF809171008D7F80937100DD
:1036300081E08093FB05B092FA05A092F905B09263
:10364000F805A092F7050E94200FE8E6F6E081E079
:1036500090E0108292838183148213823596CE1675
:10366000DF06B9F71092C8011092C70183E080937A
:10367000D70188E696E09B838A836091610670E0BB
:103680009B01245031096C5F7F4FA0915C06B09183
:103690005D060091600680916706282E312C41015D
:1036A00094E0891A9108E4E02E0E311CE090620645
:1036B000F0906306F0916606F983E8E6F6E0808113
:1036C00090E08217930754F0861797073CF44181E6
:1036D0005281A417B50711F4002371F088159905DC
:1036E000BCF182159305A4F5818192818E159F0509
:1036F00079F5498141112CC01092C3011092C20189
:103700000E943511F12CE12C009101018091C7013B
:103710009091C801E816F9060CF5EA81FB818181D8
:103720009281019709F0D6C06AE170E0EA81FB81DD
:10373000808126E046E090E00E94F610FFEFEF1A4D
:10374000FF0A2A813B812B5F3F4F3B832A83DCCFDB
:103750003596CE16DF0609F0B2CFD4CF8091CB01DB
:103760009091CC0166E070E00E949B1F892B49F488
:103770008091C9019091CA0101969093CA018093EA
:10378000C9011092D2011092D1011092D40110926D
:10379000D301009302018091C9019091CA010E9456
:1037A00026128091CB019091CC0101969093CC018F
:1037B0008093CB01DFCC0E948A1180E390E090934C
:1037C000D2018093D1018BE090E09093D40180935B
:1037D000D30180910101809302018091C2019091F7
:1037E000C301892BC1F583E991E00E94191280E39E
:1037F00090E09093D2018093D1018CE290E090937D
:10380000D4018093D3018091CE01809302018091F5
:10381000C2019091C301892B09F583E991E00E94CF
:1038200019121092D2011092D1011092D40110926B
:10383000D30180910101809302018091C90190918F
:10384000CA010E94261288E00E94DD10882391F1AF
:103850001092D7018FCC8AE991E0C7CF8AE991E035
:10386000DECF0E948A114BE050E05093D20140938A
:10387000D1015093D4014093D301809101018093F1
:10388000020181EA91E00E9419128BE090E090938E
:10389000D2018093D1018CE290E09093D401809387
:1038A000D3018091CE018093020181EA91E00E94D0
:1038B0001912C9CF80E10E94DD108111C9CF84E0C7
:1038C0000E94DD108111C4CF80E80E94DD108111BB
:1038D000BFCF50CC0091CE0160E227CF8F929F9254
:1038E000AF92BF92CF92DF92EF92FF92CF93DF938E
:1038F000EC01688179818A819B816115710581055F
:10390000910521F464E279ED8BE597E02DE133EF49
:1039100041E050E00E94281D49015A019B01AC0181
:10392000A7EAB1E40E94471D6B017C01ACEEB4EF45
:10393000A50194010E94551DC60ED71EE81EF91E52
:10394000F7FE06C081E0C81AD108E10880E8F80A4D
:10395000C882D982EA82FB82C701B6019F77DF91D4
:10396000CF91FF90EF90DF90CF90BF90AF909F905E
:103970008F9008958F929F92AF92BF92CF92DF92D5
:10398000EF92FF9260910F017091100180911101EF
:1039900090911201611571058105910521F464E290
:1039A00079ED8BE597E02DE133EF41E050E00E94A7
:1039B000281D49015A019B01AC01A7EAB1E40E940C
:1039C000471D6B017C01ACEEB4EFA50194010E9490
:1039D000551DC60ED71EE81EF91EF7FE06C081E073
:1039E000C81AD108E10880E8F80AC0920F01D09205
:1039F0001001E0921101F0921201C701B6019F7708
:103A0000FF90EF90DF90CF90BF90AF909F908F90FE
:103A1000089560930F0170931001809311019093AA
:103A200012010895F999FECF92BD81BDF89A9927A8
:103A300080B50895262FF999FECF1FBA92BD81BD9A
:103A400020BD0FB6F894FA9AF99A0FBE0196089520
:103A5000052E97FB1EF400940E943F1D57FD07D0D2
:103A60000E945A1D07FC03D04EF40C943F1D509544
:103A70004095309521953F4F4F4F5F4F089590955A
:103A80008095709561957F4F8F4F9F4F08950E944D
:103A90007C1DA59F900DB49F900DA49F800D911D3E
:103AA00011240895B7FF0C94471D0E94471D821BE7
:103AB000930B0895A1E21A2EAA1BBB1BFD010DC09A
:103AC000AA1FBB1FEE1FFF1FA217B307E407F507CE
:103AD00020F0A21BB30BE40BF50B661F771F881FAA
:103AE000991F1A9469F760957095809590959B0140
:103AF000AC01BD01CF010895A29FB001B39FC001E9
:103B0000A39F700D811D1124911DB29F700D811D09
:103B10001124911D08955058BB27AA270E94A31D68
:103B20000C94F41E0E94E61E38F00E94ED1E20F058
:103B300039F49F3F19F426F40C94E31E0EF4E0953B
:103B4000E7FB0C94DD1EE92F0E94051F58F3BA17FE
:103B5000620773078407950720F079F4A6F50C94A3
:103B6000271F0EF4E0950B2EBA2FA02D0B01B901E3
:103B700090010C01CA01A0011124FF27591B99F0E3
:103B8000593F50F4503E68F11A16F040A22F232FEF
:103B9000342F4427585FF3CF469537952795A7953F
:103BA000F0405395C9F77EF41F16BA0B620B730BE6
:103BB000840BBAF09150A1F0FF0FBB1F661F771F57
:103BC000881FC2F70EC0BA0F621F731F841F48F40C
:103BD000879577956795B795F7959E3F08F0B0CF95
:103BE0009395880F08F09927EE0F9795879508957C
:103BF0000E940C1E0C94F41E0E94ED1E58F00E94B0
:103C0000E61E40F029F45F3F29F00C94DD1E5111AF
:103C10000C94281F0C94E31E0E94051F68F399233F
:103C2000B1F3552391F3951B550BBB27AA276217B8
:103C30007307840738F09F5F5F4F220F331F441FC5
:103C4000AA1FA9F335D00E2E3AF0E0E832D09150F9
:103C50005040E695001CCAF72BD0FE2F29D0660FE6
:103C6000771F881FBB1F261737074807AB07B0E829
:103C700009F0BB0B802DBF01FF2793585F4F3AF02F
:103C80009E3F510578F00C94DD1E0C94281F5F3F79
:103C9000E4F3983ED4F3869577956795B795F795B5
:103CA0009F5FC9F7880F911D9695879597F908959D
:103CB000E1E0660F771F881FBB1F62177307840739
:103CC000BA0720F0621B730B840BBA0BEE1F88F748
:103CD000E09508950E94711E6894B1110C94281FFC
:103CE00008950E940D1F88F09F5798F0B92F9927CB
:103CF000B751B0F0E1F0660F771F881F991F1AF0D7
:103D0000BA95C9F714C0B13091F00E94271FB1E0F5
:103D100008950C94271F672F782F8827B85F39F0F4
:103D2000B93FCCF3869577956795B395D9F73EF46F
:103D300090958095709561957F4F8F4F9F4F089517
:103D4000E89409C097FB3EF4909580957095619535
:103D50007F4F8F4F9F4F9923A9F0F92F96E9BB27EB
:103D60009395F695879577956795B795F111F8CF67
:103D7000FAF4BB0F11F460FF1BC06F5F7F4F8F4FD2
:103D80009F4F16C0882311F096E911C0772321F0C8
:103D90009EE8872F762F05C0662371F096E8862F60
:103DA00070E060E02AF09A95660F771F881FDAF7B7
:103DB000880F9695879597F9089597F99F6780E8FA
:103DC00070E060E008959FEF80EC089500240A946D
:103DD0001616170618060906089500240A941216E6
:103DE0001306140605060895092E0394000C11F419
:103DF000882352F0BB0F40F4BF2B11F460FF04C0C6
:103E00006F5F7F4F8F4F9F4F089557FD9058440F1E
:103E1000551F59F05F3F71F04795880F97FB991F29
:103E200061F09F3F79F087950895121613061406E6
:103E3000551FF2CF4695F1DF08C016161706180673
:103E4000991FF1CF86957105610508940895E8944E
:103E5000BB2766277727CB0197F908950E94411F5A
:103E60000C94F41E0E94E61E38F00E94ED1E20F015
:103E7000952311F00C94DD1E0C94E31E11240C9478
:103E8000281F0E94051F70F3959FC1F3950F50E006
:103E9000551F629FF001729FBB27F00DB11D639FFC
:103EA000AA27F00DB11DAA1F649F6627B00DA11DA2
:103EB000661F829F2227B00DA11D621F739FB00D48
:103EC000A11D621F839FA00D611D221F749F3327B8
:103ED000A00D611D231F849F600D211D822F762F51
:103EE0006A2F11249F5750409AF0F1F088234AF02E
:103EF000EE0FFF1FBB1F661F771F881F915050409A
:103F0000A9F79E3F510580F00C94DD1E0C94281FEC
:103F10005F3FE4F3983ED4F3869577956795B79520
:103F2000F795E7959F5FC1F7FE2B880F911D96953A
:103F3000879597F90895AA1BBB1B51E107C0AA1FDB
:103F4000BB1FA617B70710F0A61BB70B881F991F3A
:103F50005A95A9F780959095BC01CD01089597FBDE
:103F6000072E16F4009407D077FD09D00E949B1FFE
:103F700007FC05D03EF4909581959F4F089570956C
:103F800061957F4F0895EE0FFF1F0590F491E02D8E
:063F90000994F894FFCF34
:103F9600100101FFFFFFFF00E1000000000000012B
:103FA600000000010001010100010100FF01000005
:103FB600FFFF010100FF0001FF00FFFF00010101FB
:103FC60001010001010000FF010001010000FFFFE7
:103FD6000101000100010100FF010001FF01FF00D6
:103FE600C1808100000000000000B80C230ED90C2F
:103FF600CE0C1F0DDD0CFB0C000000006910DF0E5F
:10400600C811C7113C20202047656E746C652020BE
:10401600203E003C202020454E444C455353202052
:10402600203E0043726173682100456D70747921EA
:104036000047656E746C6520436F75727365205713
:04404600696E21007E
:00000001FF
