:100000000C9478030C94A0030C94A0030C94A0030C
:100010000C94A0030C94A0030C94A0030C94A003D4
:100020000C94A0030C94A0030C944E080C94BD08EF
:100030000C94A0030C94A0030C94A0030C94A003B4
:100040000C94A0030C94A0030C94A0030C94A003A4
:100050000C94A0030C94A0030C94A0030C94EF0A3E
:100060000C94A0030C94A0030C94A0030C94A00384
:100070000C94A0030C94A0030C94A0030C94A00374
:100080000C94A0030C94A0030C94A0030C94A00364
:100090000C94A0030C94A0030C94A0030C94A00354
:1000A0000C94A0030C94A0030C94A0030000000087
:1000B000003E5B4F5B3E3E6B4F6B3E1C3E7C3E1CEE
:1000C000183C7E3C181C577D571C1C5E7F5E1C0034
:1000D000183C1800FFE7C3E7FF0018241800FFE7EB
:1000E000DBE7FF30483A060E2629792926407F05AE
:1000F0000507407F05253F5A3CE73C5A7F3E1C1CC4
:1001000008081C1C3E7F14227F22145F5F005F5F83
:1001100006097F017F006689956A6060606060946F
:10012000A2FFA29408047E040810207E2010080874
:100130002A1C08081C2A08081E101010100C1E0C7F
:100140001E0C30383E3830060E3E0E060000000011
:100150000000005F00000007000700147F147F14F8
:10016000242A7F2A1223130864623649562050003D
:1001700008070300001C2241000041221C002A1C29
:100180007F1C2A08083E0808008070300008080814
:100190000808000060600020100804023E51494534
:1001A0003E00427F400072494949462141494D3352
:1001B0001814127F1027454545393C4A49493141B9
:1001C000211109073649494936464949291E000087
:1001D00014000000403400000008142241141414DC
:1001E0001414004122140802015909063E415D59C8
:1001F0004E7C1211127C7F494949363E41414122D1
:100200007F4141413E7F494949417F090909013EFA
:10021000414151737F0808087F00417F4100204021
:10022000413F017F081422417F404040407F021C33
:10023000027F7F0408107F3E4141413E7F0909094A
:10024000063E4151215E7F09192946264949493216
:1002500003017F01033F4040403F1F2040201F3FDC
:100260004038403F63140814630304780403615961
:10027000494D43007F4141410204081020004141A3
:10028000417F04020102044040404040000307084F
:100290000020545478407F2844443838444444284B
:1002A000384444287F385454541800087E090218F2
:1002B000A4A49C787F0804047800447D400020407A
:1002C000403D007F1028440000417F40007C0478BE
:1002D00004787C080404783844444438FC18242406
:1002E0001818242418FC7C08040408485454542486
:1002F00004043F44243C4040207C1C2040201C3C03
:100300004030403C44281028444C9090907C4464F9
:10031000544C44000836410000007700000041368C
:10032000080002010204023C2623263C1EA1A16112
:10033000123A4040207A3854545559215555794144
:100340002154547841215554784020545579400C1B
:100350001E527212395555555939545454593955FC
:100360005454580000457C410002457D420001453F
:100370007C40F0292429F0F0282528F07C545545AC
:10038000002054547C547C0A097F4932494949323F
:100390003248484832324A4848303A4141217A3A54
:1003A00042402078009DA0A07D39444444393D401E
:1003B00040403D3C24FF2424487E4943662B2FFCCB
:1003C0002F2BFF0929F620C0887E09032054547979
:1003D000410000447D413048484A32384040227A4A
:1003E000007A0A0A727D0D19317D2629292F2826C7
:1003F0002929292630484D402038080808080808CF
:100400000808382F10C8ACBA2F102834FA00007B27
:10041000000008142A142222142A1408950022002D
:1004200095AA005500AAAA55AA55AA000000FF00E7
:10043000101010FF00141414FF001010FF00FF1024
:1004400010F010F0141414FC001414F700FF000056
:10045000FF00FF1414F404FC141417101F10101FD5
:10046000101F1414141F00101010F0000000001FC3
:10047000101010101F10101010F010000000FF10CE
:100480001010101010101010FF10000000FF1400CA
:1004900000FF00FF00001F10170000FC04F41414FC
:1004A0001710171414F404F40000FF00F7141414C8
:1004B00014141414F700F7141414171410101F1048
:1004C0001F141414F4141010F010F000001F101F6B
:1004D0000000001F14000000FC140000F010F010D9
:1004E00010FF10FF141414FF141010101F00000050
:1004F00000F010FFFFFFFFFFF0F0F0F0F0FFFFFF54
:100500000000000000FFFF0F0F0F0F0F38444438AA
:10051000447C2A2A3E147E02020606027E027E02E5
:1005200063554941633844443C04407E201E200604
:10053000027E020299A5E7A5991C2A492A1C4C7241
:1005400001724C304A4D4D303048784830BC625AC8
:10055000463D3E494949007E0101017E2A2A2A2A58
:100560002A44445F444440514A444040444A514034
:100570000000FF0103E080FF000008086B6B0836F5
:1005800012362436060F090F060000181800000066
:100590001010003040FF0101001F01011E00191D55
:1005A0001712003C3C3C3C0000000000F0F89C8E20
:1005B0008783878E9CF8F00000FEFF03030303038C
:1005C000070EFCF80000FEFF0303030303070EFC05
:1005D000F80000FFFF00000000000000FFFF000027
:1005E000FEFF8383838383C7EE7C380000F8FC0E14
:1005F00007030303070EFCF800003F7FE0C0808084
:10060000C0E07F3FFFFF01010101010101FFFF0089
:1006100000FFFF0C0C0C0C1C3E77E3C100007FFFB9
:10062000C0C0C0C0C0E0703F1F00001F3F70E0C0EE
:10063000C0C0E0703F1F00007FFFC1C1C1C1C1E366
:10064000773E1C00001F3F70E0C0C0C0E0703F1F3D
:10065000000000000001FFFF01000000D5F08D1434
:10066000A1C881CFD9F1AF2000667800454C454341
:1006700054524F43415244494F47524F554E440004
:10068000080B00020202000009040000010202003F
:1006900000052400100105240101010424020605BF
:1006A000240600010705810310004009040100022F
:1006B0000A0000000705020240000007058302400F
:1006C00000000403090412010002EF02014041236B
:1006D000368000010102030141726475696E6F206A
:1006E0004C4C430041726475626F79006C0B6D1164
:1006F00011241FBECFEFDAE0DEBFCDBF11E0A0E0D6
:10070000B1E0E6E2FEE202C005900D92A236B1072A
:10071000D9F727E0A2E6B1E001C01D92A33FB207DE
:10072000E1F713E0C7E7D3E004C02197FE010E9480
:100730000E15C637D107C9F70E94CF0B0C940617C8
:100740000C940000E5E9F1E0A0E0B8E000800EBC08
:100750008111012C1197A0FDFDCF0192B9F70DB4C5
:100760000895FC0180919401882311F13FB7F8941A
:1007700082E08093E9002091F200822F90E0181629
:10078000190614F481E090E0882339F0289844E6B3
:10079000409393014091F1004083222339F020914E
:1007A000F200211103C02BE62093E8003FBF08951B
:1007B0008FEF9FEF08952FB7F89483E08093E900BF
:1007C0009091E800892F807295FF04C09091F2000B
:1007D00080E4891B2FBF089580918B0181110DC08A
:1007E00082E08093870184E08093880110928A01DF
:1007F0001092890181E080938B0187E891E0089550
:10080000CF93DF931F92CDB7DEB76983DC01ED9103
:10081000FC910280F381E02D41E050E0BE016F5F6A
:100820007F4F09950F90DF91CF91089583E08093DA
:10083000E9008091F200882319F08AE38093E800B0
:1008400008950E94DB0390E00895CF93DF931F92F9
:10085000CDB7DEB7FC018485958597FD08C02FEFE5
:100860003FEF358724870F90DF91CF910895CE0118
:1008700001960E94B103019719F4898190E0F3CFAA
:100880008FEF9FEFF0CF0F931F93CF93DF931F92C4
:10089000CDB7DEB78C01FC018485958597FF0BC031
:1008A000CE0101960E94B103019771F4898190E015
:1008B000F80195878487F801848595850F90DF91ED
:1008C000CF911F910F9108958FEF9FEFF1CFFC0112
:1008D0008485958597FD0BC09FB7F89482E080933F
:1008E000E9008091F2009FBF90E0019608959FB7C4
:1008F000F89482E08093E9008091F2009FBF90E03D
:100900000895409181015091820120917F013091A1
:10091000800142175307B4F49091E8009570E1F319
:100920009091E80092FD19C08093F10080918101BF
:100930009091820101968F739927892B19F48EEF7C
:100940008093E800809181019091820101969093BB
:1009500082018093810181E0089580E00895DF9213
:10096000EF92FF920F931F93CF93DF93D82E8A01BC
:10097000EB017B01E40EF51ECE15DF0559F0D7FE25
:1009800012C0FE0184910E94810421968111F4CF4E
:100990000FEF1FEFC801DF91CF911F910F91FF90D3
:1009A000EF90DF9008958881EECF0F931F93CF9340
:1009B000DF931F92CDB7DEB782E0898342E450E037
:1009C00060E876E080E80E94AF040E94EC03DC015E
:1009D00012960D911C910115110589F0D801ED9128
:1009E000FC910280F381E02DBE016F5F7F4FC80153
:1009F000099597FD04C0F80100851185ECCF898128
:100A00000F90DF91CF911F910F910895615030F0B9
:100A10002091F100FC0120830196F8CF289884E60C
:100A20008093930108953FB7F89480917B01909152
:100A30007C01A0917D01B0917E0126B5A89B05C0E7
:100A40002F3F19F00196A11DB11D3FBFBA2FA92F4D
:100A5000982F8827BC01CD01620F711D811D911D4A
:100A600042E0660F771F881F991F4A95D1F70895B6
:100A70008F929F92AF92BF92CF92DF92EF92FF92AE
:100A80006B017C010E9413054B015C01C114D10470
:100A9000E104F104B9F00E941305681979098A0983
:100AA0009B09683E73408105910580F321E0C21ADD
:100AB000D108E108F10888EE880E83E0981EA11C99
:100AC000B11CE4CFFF90EF90DF90CF90BF90AF903C
:100AD0009F908F9008958F929F92AF92BF92CF92E6
:100AE000DF92EF92FF920F931F93CF93DF936C01EE
:100AF0007B018A0180910E01882309F45CC08091FA
:100B00009401882309F457C08091860180FF05C0B5
:100B10008091E00082608093E000E801B12C8AEFD0
:100B2000A82E93E0892E2AE3922E209711F4BB2061
:100B3000D9F10E94DB0381110AC0AA94AA20D9F13D
:100B400061E070E080E090E00E943805EECF8C1705
:100B50001D0611F00CF08C2F9FB7F8948092E900DD
:100B60002091E80025FD02C09FBFDFCF282F30E095
:100B7000C21BD30BF701815020F041914093F1004B
:100B8000FACFE20EF31EBB2021F09092E800B12CC8
:100B9000EBCF8091E80085FDE7CF9092E800BB2481
:100BA000B394209709F3F3CF5D9884E68093850191
:100BB000101611063CF081E090E0F60193838283E9
:100BC00010E000E0C801DF91CF911F910F91FF90DD
:100BD000EF90DF90CF90BF90AF909F908F9008954F
:100BE000AF92BF92CF92DF92EF92FF920F931F933B
:100BF000CF93DF936C017B018B01040F151FEB0179
:100C00005E01AE18BF08C017D10759F06991D6012F
:100C1000ED91FC910190F081E02DC6010995892BA1
:100C200079F7C501DF91CF911F910F91FF90EF9060
:100C3000DF90CF90BF90AF9008952D9A0895BC019A
:100C400090E080E00C9438058FB18095807F669BA2
:100C500088601C9B8460089520E191E061FD94E030
:100C600060FD990F62FD9295687F269FD001112447
:100C7000A80FAB56BE4F8C9140FF03C0892B8C93BD
:100C8000089590958923FBCF6F927F928F929F92C8
:100C9000AF92BF92CF92DF92EF92FF920F931F938A
:100CA000CF93DF936D3089F0C0907001D0907101C7
:100CB0006A30E1F410926F0110926E0188E0C80E64
:100CC000D11CD0927101C092700181E090E0DF915F
:100CD000CF911F910F91FF90EF90DF90CF90BF9039
:100CE000AF909F908F907F906F90089560900101DA
:100CF000E0906E01F0906F01E5E06E9FE00111243D
:100D0000C455DF4F570100E010E0053029F0CE0157
:100D10000196FE011491EC01460188E0782E412FE6
:100D2000417010FD23C0662061F0F0E8AF16B104F9
:100D300040F480E48816910420F4B401C5010E94B7
:100D40002C0616957A94EFEF8E1A9E0A7110E7CF53
:100D50000F5FFFEFAF1ABF0A0630B1F686E0E80E6C
:100D6000F11CF0926F01E0926E01AFCF462DDDCF06
:100D70000F931F93CF93DF938C01D0E0C0E0F80175
:100D8000EC0FFD1F6491662341F08BEE97E00E940B
:100D90004406892B11F02196F2CFCE01DF91CF913D
:100DA0001F910F91089590917201982329F49091C9
:100DB0007301982381E009F480E00895CF93C82F50
:100DC0000E942406982F9C2381E09C1380E0CF9101
:100DD000089580E00C94A2038F929F92AF92BF92ED
:100DE000CF92DF92EF92FF920F93CF93DF935B014D
:100DF000EC014C01840E911C6B01C20ED11CC81574
:100E0000D905ECF47501B7FE02C0F12CE12CC60146
:100E100021E4C216D10414F080E490E0E816F9064B
:100E200064F4C038D1052CF4402FB701CE010E94E4
:100E30002C068FEFE81AF80AEACF2196E0CFDF916F
:100E4000CF910F91FF90EF90DF90CF90BF90AF9038
:100E50009F908F90089580916901909102019093E5
:100E6000690180930201E1EFF5E081E090E01082FA
:100E70009283818314821382359627E0E53EF20740
:100E8000B1F710926B0110926A0182E080937501B4
:100E90000895EF92FF920F931F93CF93DF93282F24
:100EA000C0916A01D0916B01E1EFF5E0B0E0A0E004
:100EB00080E030E08901055011092B5F3F4FEE249F
:100EC000FF24E61AF70AAC17BD079CF44181528152
:100ED0004617570759F4408150E04017510734F046
:100EE000241735071CF0F282E18281E011963596D5
:100EF000EACFDF91CF911F910F91FF90EF9008956E
:100F00000F930091690120E240E870E060E090E01A
:100F100080E00E94EC060091020120E240E860E2DD
:100F200070E090E080E00E94EC060F91089510922E
:100F300067011092660184E08093680110926D0150
:100F400010926C0110927401E5EEF5E081E090E002
:100F5000918380838FE790E093838283148224E3DC
:100F600025832FEF3FEF3783268391878087128673
:100F70008CE483870895089590E080E008958F922F
:100F80009F92AF92BF920F931F93CF93DF93CDB7F2
:100F9000DEB7A1970FB6F894DEBF0FBECDBF19A282
:100FA000423008F44AE08E010F5D1F4F842E912CD1
:100FB000B12CA12CA50194010E949413E62FB90134
:100FC000CA01EA3044F5E05DD801EE938D01232B90
:100FD000242B252B79F790E080E0109769F0FD0134
:100FE00001900020E9F73197AF014A1B5B0BBD016F
:100FF0008BEE97E00E94F005A1960FB6F894DEBF45
:101000000FBECDBFDF91CF911F910F91BF90AF90D9
:101010009F908F900895E95CD7CF0C941513EF92B1
:10102000FF920F931F93CF93DF93EC017B018A0113
:1010300088819981009729F02A813B8124173507FF
:1010400088F4B8016F5F7F4F0E943916009791F0C6
:10105000998388831B830A832C813D81232B11F480
:10106000FC0110821D830C83B701888199810E9445
:10107000FF160CC088819981009711F00E94B0156D
:10108000198218821D821C821B821A82CE01DF9176
:10109000CF911F910F91FF90EF9008951F920F92A3
:1010A0000FB60F9211248F939F938091E10090913E
:1010B000E100937F9093E10083FF0FC01092E9005D
:1010C00091E09093EB001092EC0092E39093ED008E
:1010D0001092940198E09093F00082FF22C093E078
:1010E0009093E9009091F200992319F09AE390937C
:1010F000E80090918501992341F0909185019150EC
:1011000090938501911101C05D9A9091930199236B
:1011100041F090919301915090939301911101C0EE
:10112000289A84FF18C08091E2008E7E81608093AF
:10113000E2008091E1008F7E8093E1008091860142
:101140008E7E8061809386019F918F910F900FBE5C
:101150000F901F90189580FFF7CF8091E2008E7E50
:1011600080618093E2008091E1008E7E8093E100B7
:10117000809186018E7E8160E5CF1F920F920FB61F
:101180000F921124CF92DF92EF92FF920F931F9351
:101190002F933F934F935F936F937F938F939F937F
:1011A000AF93BF93EF93FF93CF93DF93CDB7DEB7AA
:1011B0006C97DEBFCDBF1092E9008091E80083FFFD
:1011C00025C068E0CE0145960E94060582EF809317
:1011D000E8008D8987FF39C09091E80090FFFCCF2F
:1011E000982F907609F034C19E894F89588D2F89A8
:1011F000F88C911131C0803861F580918401809321
:10120000F1001092F1008EEF8093E8006C960FB61B
:10121000F894DEBF0FBECDBFDF91CF91FF91EF916C
:10122000BF91AF919F918F917F916F915F914F91FE
:101230003F912F911F910F91FF90EF90DF90CF90F2
:101240000F900FBE0F901F9018959EEF9093E8009F
:10125000C7CF1092F100D5CF913059F48111D3CF7F
:101260004130510581F6809184018D7F8093840106
:10127000CACF933049F48111C6CF4130510519F6D8
:10128000809184018260F2CF953041F48091E80032
:1012900080FFFCCF20682093E300B5CF963009F0A3
:1012A000A9C00B8D1C8D22E01092E90010928201E2
:1012B00010928101F2122EC01092800110927F01D3
:1012C0000E94D5041F8299E09983FA8291E09E835F
:1012D00090EA98879AEF9987209181013091820155
:1012E000275F3F4F3C832B838D831092E900109240
:1012F0008201109281011093800100937F0149E0E7
:1013000050E0BE016F5F7F4F80E00E94AF040E94FB
:10131000D50479CF1093800100937F010E94EC03E4
:10132000DC0112960D911C910115110509F451C1B2
:10133000D801ED91FC910480F581E02DBE016B5E3A
:101340007F4FC8010995009709F03EC1F80100855B
:101350001185EACFF3E0FF120EC08F89882309F4CC
:1013600040C0823061F440E867E084EE96E00E947D
:10137000390B811148CF81E28093EB0047CF813058
:1013800029F440E86BE088ED96E0F1CF833099F7DF
:101390000E94EC03DC011296ED90FC908E010F5F31
:1013A0001F4F6801E114F10479F0D701ED91FC9130
:1013B0000680F781E02DB801C7010995080F111DBE
:1013C000F701E084F184EECFD8011C92F601019080
:1013D0000020E9F73197BF016C197D0940E0C60193
:1013E000C6CF62EC76E0FB01449150E080E80E94B9
:1013F000AF0409CF973009F4BECF983021F481E0D3
:101400008093F10000CF993009F0FDCE837009F090
:10141000B2CFE0E3F1E081E031E096E321912223D5
:1014200071F08093E9003093EB00DF0111972C916C
:101430002093EC009093ED008F5F873079F78EE773
:101440008093EA001092EA008F8980939401DBCEAA
:101450008B8D9C8D1092E900109282011092810177
:101460009093800180937F01898D811192C08E8934
:101470009D89913A49F4813209F07DCF47E050E0EF
:1014800067E071E080E0B3CF913209F074CF83322E
:1014900069F48F89988DB0E0A0E080930301909368
:1014A0000401A0930501B0930601ADCE803269F42A
:1014B0008091E80082FFFCCF67E087E091E00E9426
:1014C00006058BEF8093E8009ECE823209F09BCE1A
:1014D0008F8980930E01EEEFFFE7859194918B3F0A
:1014E0009C4D51F1E0E0F8E08091070190910801F6
:1014F000A0910901B0910A01803B9440A105B1057A
:10150000F1F480910E0180FD1AC0EE3F8AE0F807E9
:1015100089F587E797E791838083809160008093C6
:10152000830188E19BE00FB6F894A8958093600052
:101530000FBE9093600067CEEEEFFAE0D5CF8081CA
:1015400091818737974709F05ECEA895809160001A
:101550008861809360008091830180936000EE3FFA
:101560002AE0F20789F08091FE0A9091FF0A9183A8
:10157000808349CE808191818737980751F290937B
:10158000FF0A8093FE0AC5CF1092FF0A1092FE0A4E
:101590003ACE0E94EC03DC0112960D911C910115CC
:1015A000110509F4E8CED801ED91FC910190F0818C
:1015B000E02DBE016B5E7F4FC8010995811123CEDE
:1015C000F80100851185EBCF181619060CF41BCE17
:1015D000D2CEF1E0FF12BECE66EC76E004CF1F92D1
:1015E0000F920FB60F9211242F933F938F939F93D7
:1015F000AF93BF938091770190917801A091790189
:10160000B0917A013091760123E0230F2D3758F500
:101610000196A11DB11D20937601809377019093CF
:101620007801A0937901B0937A0180917B01909128
:101630007C01A0917D01B0917E010196A11DB11D9B
:1016400080937B0190937C01A0937D01B0937E01F8
:10165000BF91AF919F918F913F912F910F900FBEAE
:101660000F901F90189526E8230F0296A11DB11D1B
:10167000D2CFEF92FF920F931F93CF93DF93F82E69
:10168000192FE62E042F81E0860F880F0E94810417
:1016900083E00E948104CF2DD12FEC0EFD2EF11C92
:1016A000CE15DF05B9F007FF13C0FE0184910E943B
:1016B0008104182F80E00E948104812321968111EA
:1016C000EFCFDF91CF911F910F91FF90EF90089591
:1016D0008881EDCF81E0F5CF1092980510929705A3
:1016E00088EE93E0A0E0B0E08093990590939A058E
:1016F000A0939B05B0939C058AE391E09093960597
:10170000809395058FEF9FEF9093A2058093A1059D
:101710001092EE071092ED078CE491E09093EC07A5
:101720008093EB071092E6071092E5071092E80706
:101730001092E7071092EA071092E90750E040E0A4
:1017400061E671E085EE97E00E940F08E1EFF5E0B9
:1017500081E090E010829283818314821382359617
:1017600027E0E53EF207B1F79093E6058093E505A3
:101770002FE730E03093E8052093E7051092E90564
:101780001092EA059093EC058093EB053093EE05FB
:101790002093ED051092EF051092F0050895CF9378
:1017A000DF93CDB7DEB728970FB6F894DEBF0FBE34
:1017B000CDBF789484B5826084BD84B5816084BDDA
:1017C00085B5826085BD85B5816085BD80916E00DF
:1017D000816080936E001092810080918100826010
:1017E000809381008091810081608093810080914D
:1017F000800081608093800080919100826080935E
:10180000910080919100816080939100809190007F
:101810008160809390008091C10084608093C100BA
:101820008091C10082608093C1008091C10081607D
:101830008093C1008091C30081608093C300809138
:10184000C00082608093C0008091C200816080935C
:10185000C20080917A00846080937A0080917A003F
:10186000826080937A0080917A00816080937A0010
:1018700080917A00806880937A001092940110928F
:101880008401109286018091D70081608093D700F7
:1018900080EA8093D80089B5806189BD89B582606E
:1018A00089BD09B400FEFDCF61E070E080E090E00A
:1018B0000E9438058091D8008F7C80618093D80089
:1018C0008091E000807F8093E0008091E1008E7E37
:1018D0008093E1008DE08093E200559A209A0E9467
:1018E000970781EC80937C0085B1806F85B984B1C6
:1018F000877E84B984B1876E84B95E9A5F988AB115
:10190000806D8AB9769A6E9881B3806F81BB899811
:1019100080B38D7080BB80E58CBD81E08DBD85E09E
:1019200090E00E941F065F9A85E090E00E941F06EB
:101930005E985C98ECE5F6E084918EBD00000DB4F5
:1019400007FEFDCF319606E0E936F007A9F75C9A6D
:1019500081E88093640080916500816080936500D8
:101960000E94E90680E80E94DE068823A9F05C98C0
:1019700085EA8EBD00000DB407FEFDCF5C9A2E985F
:101980002F982D988091640080628093640081E09C
:1019900083BF889513BEFCCF84E00E94DE068823B7
:1019A00009F448C02D9884E80E94DE068823E1F0FF
:1019B0000E941D0688EC90E00E941F062F9882E08E
:1019C00090E00E9415138F3F29F06FEF82E090E0C6
:1019D0000E941D1384EF91E00E941F062F9A84E855
:1019E0000E94DE068111FBCF84E10E94DE0688237F
:1019F000E1F00E941D0688EC90E00E941F062E98E0
:101A000082E090E00E941513882329F060E082E0D4
:101A100090E00E941D1384EF91E00E941F062E9A11
:101A200084E10E94DE068111FBCF88EC90E00E94E9
:101A30001F06B2CF0E941D0682E090E00E940D08B2
:101A4000882309F479C03E9A3F9A81E090E00E9491
:101A50000D0881FF14C0182F1470312E82FD2E98AE
:101A600001EF1FEFB8E0AB2EB12C80E40E94DE0640
:101A7000882309F464C02E9A2F9A0E941D0682E3DF
:101A800090E00E941F060E9424068111F8CF80E199
:101A900080930001809164008E7F80936400809128
:101AA0007A00806480937A0080917A0086FDFCCF72
:101AB00000917800109179000E941305AB01BC01E0
:101AC000C801B0E0A0E0DC01992788278C019D01C6
:101AD000040F151F261F371FC901B801209164008C
:101AE000216020936400611571058105910511F055
:101AF0000E94111230E2232E312C45EE442E47E095
:101B0000542E25E0722E8FB7F894409177015091B2
:101B100078016091790170917A018FBF1091640111
:101B2000112309F4CFC01092640180E090E0892B6A
:101B300051F30E940000E5CF3E983F9886CF3320B6
:101B400029F00430110511F42E9A2F9881E00E949B
:101B5000A203980117FF04C022273327201B310B53
:101B600027703327C80117FD0796A3E09595879541
:101B7000AA95E1F717FF05C00197A501421B530B7A
:101B80009A01AC015695542F4427579547954B56CB
:101B90005E4FB0E0A0E02501421A530A8E3F6FEF7E
:101BA000960709F43FC07A0170E060E0FD01E4555A
:101BB000FA4F4F013A01F0E86F0E711C8F3F980702
:101BC00079F0F401E60FF71FE491F0E06F01022EC7
:101BD00001C0CC0C0A94EAF7F701D488CD28C48A56
:101BE00021153105B9F0F401E60FF71F24906301C8
:101BF000C60ED71EE22DF0E0042C02C0F595E79545
:101C00000A94E2F7F887EF83F6012488FF812F2AF0
:101C1000F601248A6F5F7F4FFFEFEF1AFF0A6835E6
:101C2000710561F60196A85ABF4F40585F4FA03B1F
:101C3000B10509F0B3CF0E94E9068FE090E00E9461
:101C40001F060F5F1F4F0931110509F00ECF33201A
:101C500011F02F9A2D9880E991E00E941F060E94B2
:101C60001D0681E090E00E940D0880FF08CF8AE009
:101C700090E00E940D089FEF980F9E3F08F0FFCE66
:101C800022E330E030936F0120936E0128E330E0CF
:101C900030937101209370010BE010E0682F8BEE00
:101CA00097E00E944406C8010E940D080F5F1F4F75
:101CB0000131110599F70E94E90688EE93E00E9430
:101CC0001F06DDCE80916501242F281B822F909165
:101CD0000001291748F48F5F891708F026CF81E0AB
:101CE00083BF889513BE21CF81E080936401409328
:101CF0006501809162019091630101969093630167
:101D00008093620180917301809372010E94240686
:101D100080937301E5E9F1E011111FEF00241193A5
:101D20001193119311930394D1F7109271011092B2
:101D3000700110926F0110926E01809175018130D7
:101D400009F44DC058F0823009F460C280917401EA
:101D50008F5F809374010E94E906E7CE0E9480079E
:101D600087E090E090936F0180936E0185E090E0B2
:101D70009093710180937001809102018093010121
:101D80008CE696E00E94B80689E390E090936F019C
:101D900080936E018FE090E09093710180937001C9
:101DA00089E696E00E94B80688E00E94D306811179
:101DB00010C080E10E94D30681110BC084E00E9414
:101DC000D306811106C080E80E94D306882309F457
:101DD000BDCF0E94970781E080937501B7CF0E9425
:101DE000800788E00E94DE06811123C080E10E9406
:101DF000DE0681111EC08091E905811151C06091FC
:101E0000E7057091E8056F37710514F5072E000C92
:101E1000880B990B0E941C1220E030E040E050E457
:101E20000E94C6130E94A4147093E8056093E7050E
:101E30000FC081E08093E9058091E7059091E80566
:101E4000181619062CF404979093E8058093E7057B
:101E500084E00E94DE0681112FC080E80E94DE0629
:101E600081112AC08091EF05811127C16091ED0594
:101E70007091EE056F37710574F5072E000C880B15
:101E8000990B0E941C1220E030E040E050E40E94D8
:101E9000C6130E94A4147093EE056093ED051BC059
:101EA0001092E9056091E5057091E6058091EA05DB
:101EB00090E00E944907A3CF81E08093EF058091D5
:101EC000ED059091EE05181619062CF404979093E1
:101ED000EE058093ED05809175018130C1F480910C
:101EE000E7059091E805181619063CF48091ED0578
:101EF0009091EE051816190654F046E050E064E59E
:101F000071E085EE97E00E940F080E942B07609118
:101F1000E7057091E805072E000C880B990B0E94CD
:101F20001C1220E030E04EEF52E40E94321420E018
:101F300030E040ED51E40E9457120E94A414309109
:101F4000E9054AEF4303F00111249101261B370BE9
:101F5000E20FF31F3091EA0500910201262F46E0BF
:101F6000BF01832F90E00E94EC066091ED05709117
:101F7000EE05072E000C880B990B0E941C1220E026
:101F800030E04EEF52E40E94321420E030E040EDA9
:101F900051E40E9457120E94A414262FE091EF05ED
:101FA00096E0F92EFE9EB0011124605E7F4F809175
:101FB000F0050091690146E090E00E94EC06109166
:101FC0007401812F90E0609168016F9DB001112430
:101FD0000E94E614009709F042C0209166013091FA
:101FE0006701F901EC5DFE4F4081442359F1A1E006
:101FF000B0E0413011F0AFEFBFEFF901E75EFE4F07
:102000006081062E000C770B6130710511F08FE7AF
:1020100090E040916A0150916B014436510594F46F
:10202000749EF001759EF00D1124EF50FA4F8083DD
:10203000B283A183748363834F5F5F4F50936B01BF
:1020400040936A012F5F3F4F3093670120936601F1
:102050002B30310520F0109267011092660190E05C
:1020600080E040916A0150916B01841795078CF5CF
:10207000789ED001799EB00D1124AF50BA4F3C919B
:1020800013962C911397320F3C9337FF14C09A018B
:1020900021503109729EF001739EF00D1124EF5012
:1020A000FA4F45E001900D924A95E1F730936B01AC
:1020B00020936A0101970196D4CF1092EF056091A9
:1020C000EB057091EC058091F00590E00E944907C6
:1020D000CDCE81EFE82E85E0F82E2091EA0530E0A4
:1020E000690154E0C51AD1082C5F3F4FA091E50566
:1020F000B091E6050091E9058091F00590E04C0172
:1021000064E0861A910804966091EB057091EC05E5
:102110006090EF05F701408150E04C155D0554F0EB
:10212000421753073CF4A180B280AA15BB0511F4F5
:10213000002369F048155905ACF14817590794F583
:10214000418152814617570769F561102BC046E05F
:1021500050E06BE571E085EE97E00E940F080E9469
:102160002B07D12CC12C0091020180916A01909122
:102170006B01C816D906E4F4F701818192810197B9
:1021800009F0A7C06AE170E0F701808126E046E02F
:1021900090E00E94EC06FFEFCF1ADF0A05E0E00EA8
:1021A000F11CE1CF35964E165F0609F0B4CFD9CFBA
:1021B000812F66E00E94DA14911109C080916C01B0
:1021C00090916D01019690936D0180936C01009345
:1021D0000101C0906C01D0906D010D2C000CEE0837
:1021E000FF084AE0C701B601F7FE0DC06DE28BEEB5
:1021F00097E00E94440666277727CB016C197D097A
:102200008E099F094AE00E94BF07A0CD0E94800767
:102210001A8219821C821B821E821D826091E50730
:102220007091E6076115710541F04091E907509101
:10223000EA07CE0101960E940F0800E310E0109318
:102240006F0100936E018FE090E090937101809395
:10225000700180910201809301014D815E8169814D
:102260007A818BEE97E00E94F00510936F01009346
:102270006E018DE290E090937101809370018091E6
:102280006901809301014D815E8169817A818BEEC4
:1022900097E00E94F00589819A81009711F00E94D1
:1022A000B01588E00E94D306811110C080E10E9421
:1022B000D30681110BC084E00E94D306811106C0B1
:1022C00080E80E94D306882309F440CD109275015E
:1022D0003DCD0091690160E256CF8091E507909174
:1022E000E607009711F00C94B01508958F929F9215
:1022F000AF92BF92CF92DF92EF92FF92CF93DF9394
:10230000EC01688179818A819B8161157105810564
:10231000910521F464E279ED8BE597E02DE133EF4F
:1023200041E050E00E942B1349015A019B01AC018E
:10233000A7EAB1E40E944A136B017C01ACEEB4EF52
:10234000A50194010E945813C60ED71EE81EF91E5F
:10235000F7FE06C081E0C81AD108E10880E8F80A53
:10236000C882D982EA82FB82C701B6019F77DF91DA
:10237000CF91FF90EF90DF90CF90BF90AF909F9064
:102380008F9008958F929F92AF92BF92CF92DF92DB
:10239000EF92FF9260910F017091100180911101F5
:1023A00090911201611571058105910521F464E296
:1023B00079ED8BE597E02DE133EF41E050E00E94AD
:1023C0002B1349015A019B01AC01A7EAB1E40E9419
:1023D0004A136B017C01ACEEB4EFA50194010E949D
:1023E0005813C60ED71EE81EF91EF7FE06C081E080
:1023F000C81AD108E10880E8F80AC0920F01D0920B
:102400001001E0921101F0921201C701B6019F770D
:10241000FF90EF90DF90CF90BF90AF909F908F9004
:10242000089560930F0170931001809311019093B0
:1024300012010895E89409C097FB3EF490958095A9
:10244000709561957F4F8F4F9F4F9923A9F0F92F7A
:1024500096E9BB279395F695879577956795B795F8
:10246000F111F8CFFAF4BB0F11F460FF1BC06F5FDE
:102470007F4F8F4F9F4F16C0882311F096E911C0F0
:10248000772321F09EE8872F762F05C0662371F011
:1024900096E8862F70E060E02AF09A95660F771F25
:1024A000881FDAF7880F9695879597F908950E9407
:1024B0006A120C94DB120E94CD1238F00E94D412E2
:1024C00020F0952311F00C94C4120C94CA1211241C
:1024D0000C940F130E94EC1270F3959FC1F3950FAB
:1024E00050E0551F629FF001729FBB27F00DB11D98
:1024F000639FAA27F00DB11DAA1F649F6627B00D28
:10250000A11D661F829F2227B00DA11D621F739F10
:10251000B00DA11D621F839FA00D611D221F749F1E
:102520003327A00D611D231F849F600D211D822F65
:10253000762F6A2F11249F5750409AF0F1F088238C
:102540004AF0EE0FFF1FBB1F661F771F881F9150B9
:102550005040A9F79E3F510580F00C94C4120C9492
:102560000F135F3FE4F3983ED4F386957795679514
:10257000B795F795E7959F5FC1F7FE2B880F911DE3
:102580009695879597F9089597F99F6780E870E089
:1025900060E008959FEF80EC089500240A941616D9
:1025A000170618060906089500240A941216130641
:1025B000140605060895092E0394000C11F48823CF
:1025C00052F0BB0F40F4BF2B11F460FF04C06F5FEB
:1025D0007F4F8F4F9F4F089557FD9058440F551FC1
:1025E00059F05F3F71F04795880F97FB991F61F095
:1025F0009F3F79F087950895121613061406551F0C
:10260000F2CF4695F1DF08C0161617061806991F77
:10261000F1CF86957105610508940895E894BB276C
:1026200066277727CB0197F90895F999FECF92BDD8
:1026300081BDF89A992780B50895262FF999FECF84
:102640001FBA92BD81BD20BD0FB6F894FA9AF99ACF
:102650000FBE01960895052E97FB1EF400940E946C
:10266000421357FD07D00E94941307FC03D04EF489
:102670000C94421350954095309521953F4F4F4F04
:102680005F4F089590958095709561957F4F8F4F1E
:102690009F4F08950E94B613A59F900DB49F900D73
:1026A000A49F800D911D11240895B7FF0C944A1327
:1026B0000E944A13821B930B08952F923F924F92D0
:1026C0005F926F927F928F929F92AF92BF92CF92C2
:1026D000DF92EF92FF920F931F93CF93DF93CDB7CB
:1026E000DEB7CA1BDB0B0FB6F894DEBF0FBECDBF43
:1026F00009942A88398848885F846E847D848C8414
:102700009B84AA84B984C884DF80EE80FD800C811C
:102710001B81AA81B981CE0FD11D0FB6F894DEBFFF
:102720000FBECDBFED010895A1E21A2EAA1BBB1B5F
:10273000FD010DC0AA1FBB1FEE1FFF1FA217B3078D
:10274000E407F50720F0A21BB30BE40BF50B661FA3
:10275000771F881F991F1A9469F760957095809567
:1027600090959B01AC01BD01CF010895A29FB001DE
:10277000B39FC001A39F700D811D1124911DB29FB5
:10278000700D811D1124911D08955058BB27AA2753
:102790000E94DD130C94DB120E94CD1238F00E94CF
:1027A000D41220F039F49F3F19F426F40C94CA1285
:1027B0000EF4E095E7FB0C94C412E92F0E94EC1292
:1027C00058F3BA17620773078407950720F079F466
:1027D000A6F50C940E130EF4E0950B2EBA2FA02D37
:1027E0000B01B90190010C01CA01A0011124FF27BE
:1027F000591B99F0593F50F4503E68F11A16F040B9
:10280000A22F232F342F4427585FF3CF46953795B7
:102810002795A795F0405395C9F77EF41F16BA0B7C
:10282000620B730B840BBAF09150A1F0FF0FBB1F2A
:10283000661F771F881FC2F70EC0BA0F621F731F73
:10284000841F48F4879577956795B795F7959E3FD0
:1028500008F0B0CF9395880F08F09927EE0F979561
:10286000879508950E9446140C94DB120E94D4129E
:1028700058F00E94CD1240F029F45F3F29F00C94EB
:10288000C41251110C940F130C94CA120E94EC1232
:1028900068F39923B1F3552391F3951B550BBB278F
:1028A000AA2762177307840738F09F5F5F4F220FD4
:1028B000331F441FAA1FA9F335D00E2E3AF0E0E8CB
:1028C00032D091505040E695001CCAF72BD0FE2F15
:1028D00029D0660F771F881FBB1F261737074807A9
:1028E000AB07B0E809F0BB0B802DBF01FF27935861
:1028F0005F4F3AF09E3F510578F00C94C4120C944F
:102900000F135F3FE4F3983ED4F386957795679570
:10291000B795F7959F5FC9F7880F911D9695879595
:1029200097F90895E1E0660F771F881FBB1F6217B4
:1029300073078407BA0720F0621B730B840BBA0B72
:10294000EE1F88F7E09508950E94AB146894B111CA
:102950000C940F1308950E94F41288F09F5798F07A
:10296000B92F9927B751B0F0E1F0660F771F881F94
:10297000991F1AF0BA95C9F714C0B13091F00E94AE
:102980000E13B1E008950C940E13672F782F88274B
:10299000B85F39F0B93FCCF3869577956795B395D5
:1029A000D9F73EF490958095709561957F4F8F4F44
:1029B0009F4F0895991B79E004C0991F961708F05E
:1029C000961B881F7A95C9F78095089597FB072E67
:1029D00016F4009407D077FD09D00E94FA1407FC82
:1029E00005D03EF4909581959F4F0895709561951F
:1029F0007F4F0895AA1BBB1B51E107C0AA1FBB1F35
:102A0000A617B70710F0A61BB70B881F991F5A957A
:102A1000A9F780959095BC01CD010895EE0FFF1F99
:102A20000590F491E02D09940F931F93CF93DF93BA
:102A30008230910510F482E090E0E091F107F0918E
:102A4000F20730E020E0B0E0A0E0309799F42115E3
:102A5000310509F44AC0281B390B24303105D8F55B
:102A60008A819B816115710589F1FB0193838283C2
:102A7000FE0111C04081518102811381481759071D
:102A8000E0F04817590799F4109761F012960C93EB
:102A9000129713961C933296CF01DF91CF911F911D
:102AA0000F9108950093F1071093F207F4CF2115C9
:102AB000310551F04217530738F0A901DB019A01A3
:102AC000BD01DF01F801C1CFEF01F9CF9093F2070B
:102AD0008093F107CDCFFE01E20FF31F8193919315
:102AE0002250310939832883D7CF2091EF073091C5
:102AF000F007232B41F420911501309116013093FA
:102B0000F0072093EF072091130130911401211554
:102B1000310541F42DB73EB740911701509118018E
:102B2000241B350BE091EF07F091F007E217F30754
:102B3000A0F42E1B3F0B2817390778F0AC014E5F2D
:102B40005F4F2417350748F04E0F5F1F5093F00773
:102B50004093EF07819391939FCFF0E0E0E09CCF0B
:102B6000CF93DF930097E9F0FC0132971382128232
:102B7000A091F107B091F207ED0130E020E010974D
:102B8000A1F420813181820F931F2091EF073091B2
:102B9000F0072817390709F061C0F093F007E093B8
:102BA000EF07DF91CF910895EA01CE17DF07E8F52F
:102BB0004A815B819E0141155105B1F7E901FB8313
:102BC000EA8349915991C40FD51FEC17FD0761F4B1
:102BD000808191810296840F951FE90199838883F2
:102BE000828193819B838A83F0E0E0E012968D914D
:102BF0009C9113970097B9F52D913C911197CD01B8
:102C00000296820F931F2091EF073091F00728174B
:102C1000390739F6309751F51092F2071092F10703
:102C2000B093F007A093EF07BCCFD383C28340815A
:102C30005181840F951FC817D90761F44E5F5F4F0C
:102C400088819981480F591F518340838A819B81D4
:102C5000938382832115310509F0B0CFF093F207F9
:102C6000E093F1079ECFFD01DC01C0CF13821282F9
:102C7000D7CFB0E0A0E0EFE3F6E10C945F138C0156
:102C8000009751F4CB010E9414158C01C801CDB7F7
:102C9000DEB7E0E10C947B13FC01E60FF71F9C010B
:102CA00022503109E217F30708F49DC0D901CD91F4
:102CB000DC911197C617D70798F0C530D10530F3CE
:102CC000CE0104978617970708F3C61BD70B2297E8
:102CD000C193D1936D937C93CF010E94B015D6CF51
:102CE0005B01AC1ABD0A4C018C0E9D1EA091F10730
:102CF000B091F207512C412CF12CE12C109731F5B9
:102D00008091EF079091F0078815990509F05CC054
:102D10004616570608F058C080911301909114018F
:102D2000009741F48DB79EB740911701509118015B
:102D3000841B950BE817F90708F055C0F093F007CE
:102D4000E093EF07F90171836083A0CF8D919C918F
:102D5000119712966C90129713967C901397A81562
:102D6000B90559F56C0142E0C40ED11CCA14DB044C
:102D700020F1AC014A195B09DA011296159780F02F
:102D80006282738251834083D9016D937C93E114F5
:102D9000F10471F0D7011396FC93EE93129776CF5E
:102DA00022968C0F9D1FF90191838083F301EFCF51
:102DB000F093F207E093F10769CF4816590608F43B
:102DC0002C017D01D3019ACFCB010E9414157C0107
:102DD000009749F0AE01B8010E94F616C8010E94A2
:102DE000B015870153CF10E000E050CFFB01DC01AC
:102DF00002C001900D9241505040D8F70895FB0158
:102E0000DC0101900D920020E1F7089513E0C7E77F
:102E1000D3E004C0FE010E940E152196C837D107E9
:062E2000C9F7F894FFCF92
:102E2600100101FFFFFFFF00E100000000000001AC
:102E36000000000000F3078000010101010101FF0D
:102E46000100FFFF01010100FF01010100FFFF007A
:102E5600C180810000000000000000046B05210411
:102E66001604670425044304000000004406F00528
:102E7600BC07BB07456D70747921004372617368A6
:022E8600210029
:00000001FF
